{
  "abi": [
    {
      "type": "constructor",
      "inputs": [],
      "stateMutability": "nonpayable"
    },
    {
      "type": "function",
      "name": "allowance",
      "inputs": [
        {
          "name": "owner",
          "type": "address",
          "internalType": "address"
        },
        {
          "name": "spender",
          "type": "address",
          "internalType": "address"
        }
      ],
      "outputs": [
        {
          "name": "",
          "type": "uint256",
          "internalType": "uint256"
        }
      ],
      "stateMutability": "view"
    },
    {
      "type": "function",
      "name": "approve",
      "inputs": [
        {
          "name": "spender",
          "type": "address",
          "internalType": "address"
        },
        {
          "name": "value",
          "type": "uint256",
          "internalType": "uint256"
        }
      ],
      "outputs": [
        {
          "name": "",
          "type": "bool",
          "internalType": "bool"
        }
      ],
      "stateMutability": "nonpayable"
    },
    {
      "type": "function",
      "name": "asset",
      "inputs": [],
      "outputs": [
        {
          "name": "",
          "type": "address",
          "internalType": "address"
        }
      ],
      "stateMutability": "view"
    },
    {
      "type": "function",
      "name": "balanceOf",
      "inputs": [
        {
          "name": "account",
          "type": "address",
          "internalType": "address"
        }
      ],
      "outputs": [
        {
          "name": "",
          "type": "uint256",
          "internalType": "uint256"
        }
      ],
      "stateMutability": "view"
    },
    {
      "type": "function",
      "name": "convertToAssets",
      "inputs": [
        {
          "name": "shares",
          "type": "uint256",
          "internalType": "uint256"
        }
      ],
      "outputs": [
        {
          "name": "",
          "type": "uint256",
          "internalType": "uint256"
        }
      ],
      "stateMutability": "view"
    },
    {
      "type": "function",
      "name": "convertToShares",
      "inputs": [
        {
          "name": "assets",
          "type": "uint256",
          "internalType": "uint256"
        }
      ],
      "outputs": [
        {
          "name": "",
          "type": "uint256",
          "internalType": "uint256"
        }
      ],
      "stateMutability": "view"
    },
    {
      "type": "function",
      "name": "decimals",
      "inputs": [],
      "outputs": [
        {
          "name": "",
          "type": "uint8",
          "internalType": "uint8"
        }
      ],
      "stateMutability": "view"
    },
    {
      "type": "function",
      "name": "deposit",
      "inputs": [
        {
          "name": "assets",
          "type": "uint256",
          "internalType": "uint256"
        },
        {
          "name": "receiver",
          "type": "address",
          "internalType": "address"
        }
      ],
      "outputs": [
        {
          "name": "",
          "type": "uint256",
          "internalType": "uint256"
        }
      ],
      "stateMutability": "nonpayable"
    },
    {
      "type": "function",
      "name": "exit",
      "inputs": [
        {
          "name": "_strategyId",
          "type": "bytes32",
          "internalType": "bytes32"
        },
        {
          "name": "_strategyModule",
          "type": "address",
          "internalType": "address"
        }
      ],
      "outputs": [],
      "stateMutability": "nonpayable"
    },
    {
      "type": "function",
      "name": "join",
      "inputs": [
        {
          "name": "_strategyId",
          "type": "bytes32",
          "internalType": "bytes32"
        },
        {
          "name": "_strategyModule",
          "type": "address",
          "internalType": "address"
        },
        {
          "name": "_amounts",
          "type": "uint256[]",
          "internalType": "uint256[]"
        }
      ],
      "outputs": [],
      "stateMutability": "nonpayable"
    },
    {
      "type": "function",
      "name": "maxDeposit",
      "inputs": [
        {
          "name": "",
          "type": "address",
          "internalType": "address"
        }
      ],
      "outputs": [
        {
          "name": "",
          "type": "uint256",
          "internalType": "uint256"
        }
      ],
      "stateMutability": "view"
    },
    {
      "type": "function",
      "name": "maxMint",
      "inputs": [
        {
          "name": "",
          "type": "address",
          "internalType": "address"
        }
      ],
      "outputs": [
        {
          "name": "",
          "type": "uint256",
          "internalType": "uint256"
        }
      ],
      "stateMutability": "view"
    },
    {
      "type": "function",
      "name": "maxRedeem",
      "inputs": [
        {
          "name": "owner",
          "type": "address",
          "internalType": "address"
        }
      ],
      "outputs": [
        {
          "name": "",
          "type": "uint256",
          "internalType": "uint256"
        }
      ],
      "stateMutability": "view"
    },
    {
      "type": "function",
      "name": "maxWithdraw",
      "inputs": [
        {
          "name": "owner",
          "type": "address",
          "internalType": "address"
        }
      ],
      "outputs": [
        {
          "name": "",
          "type": "uint256",
          "internalType": "uint256"
        }
      ],
      "stateMutability": "view"
    },
    {
      "type": "function",
      "name": "mint",
      "inputs": [
        {
          "name": "shares",
          "type": "uint256",
          "internalType": "uint256"
        },
        {
          "name": "receiver",
          "type": "address",
          "internalType": "address"
        }
      ],
      "outputs": [
        {
          "name": "",
          "type": "uint256",
          "internalType": "uint256"
        }
      ],
      "stateMutability": "nonpayable"
    },
    {
      "type": "function",
      "name": "name",
      "inputs": [],
      "outputs": [
        {
          "name": "",
          "type": "string",
          "internalType": "string"
        }
      ],
      "stateMutability": "view"
    },
    {
      "type": "function",
      "name": "previewDeposit",
      "inputs": [
        {
          "name": "assets",
          "type": "uint256",
          "internalType": "uint256"
        }
      ],
      "outputs": [
        {
          "name": "",
          "type": "uint256",
          "internalType": "uint256"
        }
      ],
      "stateMutability": "view"
    },
    {
      "type": "function",
      "name": "previewMint",
      "inputs": [
        {
          "name": "shares",
          "type": "uint256",
          "internalType": "uint256"
        }
      ],
      "outputs": [
        {
          "name": "",
          "type": "uint256",
          "internalType": "uint256"
        }
      ],
      "stateMutability": "view"
    },
    {
      "type": "function",
      "name": "previewRedeem",
      "inputs": [
        {
          "name": "shares",
          "type": "uint256",
          "internalType": "uint256"
        }
      ],
      "outputs": [
        {
          "name": "",
          "type": "uint256",
          "internalType": "uint256"
        }
      ],
      "stateMutability": "view"
    },
    {
      "type": "function",
      "name": "previewWithdraw",
      "inputs": [
        {
          "name": "assets",
          "type": "uint256",
          "internalType": "uint256"
        }
      ],
      "outputs": [
        {
          "name": "",
          "type": "uint256",
          "internalType": "uint256"
        }
      ],
      "stateMutability": "view"
    },
    {
      "type": "function",
      "name": "redeem",
      "inputs": [
        {
          "name": "shares",
          "type": "uint256",
          "internalType": "uint256"
        },
        {
          "name": "receiver",
          "type": "address",
          "internalType": "address"
        },
        {
          "name": "owner",
          "type": "address",
          "internalType": "address"
        }
      ],
      "outputs": [
        {
          "name": "",
          "type": "uint256",
          "internalType": "uint256"
        }
      ],
      "stateMutability": "nonpayable"
    },
    {
      "type": "function",
      "name": "symbol",
      "inputs": [],
      "outputs": [
        {
          "name": "",
          "type": "string",
          "internalType": "string"
        }
      ],
      "stateMutability": "view"
    },
    {
      "type": "function",
      "name": "totalAssets",
      "inputs": [],
      "outputs": [
        {
          "name": "",
          "type": "uint256",
          "internalType": "uint256"
        }
      ],
      "stateMutability": "view"
    },
    {
      "type": "function",
      "name": "totalSupply",
      "inputs": [],
      "outputs": [
        {
          "name": "",
          "type": "uint256",
          "internalType": "uint256"
        }
      ],
      "stateMutability": "view"
    },
    {
      "type": "function",
      "name": "transfer",
      "inputs": [
        {
          "name": "to",
          "type": "address",
          "internalType": "address"
        },
        {
          "name": "value",
          "type": "uint256",
          "internalType": "uint256"
        }
      ],
      "outputs": [
        {
          "name": "",
          "type": "bool",
          "internalType": "bool"
        }
      ],
      "stateMutability": "nonpayable"
    },
    {
      "type": "function",
      "name": "transferFrom",
      "inputs": [
        {
          "name": "from",
          "type": "address",
          "internalType": "address"
        },
        {
          "name": "to",
          "type": "address",
          "internalType": "address"
        },
        {
          "name": "value",
          "type": "uint256",
          "internalType": "uint256"
        }
      ],
      "outputs": [
        {
          "name": "",
          "type": "bool",
          "internalType": "bool"
        }
      ],
      "stateMutability": "nonpayable"
    },
    {
      "type": "function",
      "name": "withdraw",
      "inputs": [
        {
          "name": "assets",
          "type": "uint256",
          "internalType": "uint256"
        },
        {
          "name": "receiver",
          "type": "address",
          "internalType": "address"
        },
        {
          "name": "owner",
          "type": "address",
          "internalType": "address"
        }
      ],
      "outputs": [
        {
          "name": "",
          "type": "uint256",
          "internalType": "uint256"
        }
      ],
      "stateMutability": "nonpayable"
    },
    {
      "type": "event",
      "name": "Approval",
      "inputs": [
        {
          "name": "owner",
          "type": "address",
          "indexed": true,
          "internalType": "address"
        },
        {
          "name": "spender",
          "type": "address",
          "indexed": true,
          "internalType": "address"
        },
        {
          "name": "value",
          "type": "uint256",
          "indexed": false,
          "internalType": "uint256"
        }
      ],
      "anonymous": false
    },
    {
      "type": "event",
      "name": "Deposit",
      "inputs": [
        {
          "name": "sender",
          "type": "address",
          "indexed": true,
          "internalType": "address"
        },
        {
          "name": "owner",
          "type": "address",
          "indexed": true,
          "internalType": "address"
        },
        {
          "name": "assets",
          "type": "uint256",
          "indexed": false,
          "internalType": "uint256"
        },
        {
          "name": "shares",
          "type": "uint256",
          "indexed": false,
          "internalType": "uint256"
        }
      ],
      "anonymous": false
    },
    {
      "type": "event",
      "name": "Exit",
      "inputs": [
        {
          "name": "strategyId",
          "type": "bytes32",
          "indexed": true,
          "internalType": "bytes32"
        },
        {
          "name": "user",
          "type": "address",
          "indexed": true,
          "internalType": "address"
        }
      ],
      "anonymous": false
    },
    {
      "type": "event",
      "name": "Join",
      "inputs": [
        {
          "name": "strategyId",
          "type": "bytes32",
          "indexed": true,
          "internalType": "bytes32"
        },
        {
          "name": "depositor",
          "type": "address",
          "indexed": true,
          "internalType": "address"
        },
        {
          "name": "tokenAddress",
          "type": "address[]",
          "indexed": false,
          "internalType": "address[]"
        },
        {
          "name": "amount",
          "type": "uint256[]",
          "indexed": false,
          "internalType": "uint256[]"
        }
      ],
      "anonymous": false
    },
    {
      "type": "event",
      "name": "Transfer",
      "inputs": [
        {
          "name": "from",
          "type": "address",
          "indexed": true,
          "internalType": "address"
        },
        {
          "name": "to",
          "type": "address",
          "indexed": true,
          "internalType": "address"
        },
        {
          "name": "value",
          "type": "uint256",
          "indexed": false,
          "internalType": "uint256"
        }
      ],
      "anonymous": false
    },
    {
      "type": "event",
      "name": "Withdraw",
      "inputs": [
        {
          "name": "sender",
          "type": "address",
          "indexed": true,
          "internalType": "address"
        },
        {
          "name": "receiver",
          "type": "address",
          "indexed": true,
          "internalType": "address"
        },
        {
          "name": "owner",
          "type": "address",
          "indexed": true,
          "internalType": "address"
        },
        {
          "name": "assets",
          "type": "uint256",
          "indexed": false,
          "internalType": "uint256"
        },
        {
          "name": "shares",
          "type": "uint256",
          "indexed": false,
          "internalType": "uint256"
        }
      ],
      "anonymous": false
    },
    {
      "type": "error",
      "name": "ERC20InsufficientAllowance",
      "inputs": [
        {
          "name": "spender",
          "type": "address",
          "internalType": "address"
        },
        {
          "name": "allowance",
          "type": "uint256",
          "internalType": "uint256"
        },
        {
          "name": "needed",
          "type": "uint256",
          "internalType": "uint256"
        }
      ]
    },
    {
      "type": "error",
      "name": "ERC20InsufficientBalance",
      "inputs": [
        {
          "name": "sender",
          "type": "address",
          "internalType": "address"
        },
        {
          "name": "balance",
          "type": "uint256",
          "internalType": "uint256"
        },
        {
          "name": "needed",
          "type": "uint256",
          "internalType": "uint256"
        }
      ]
    },
    {
      "type": "error",
      "name": "ERC20InvalidApprover",
      "inputs": [
        {
          "name": "approver",
          "type": "address",
          "internalType": "address"
        }
      ]
    },
    {
      "type": "error",
      "name": "ERC20InvalidReceiver",
      "inputs": [
        {
          "name": "receiver",
          "type": "address",
          "internalType": "address"
        }
      ]
    },
    {
      "type": "error",
      "name": "ERC20InvalidSender",
      "inputs": [
        {
          "name": "sender",
          "type": "address",
          "internalType": "address"
        }
      ]
    },
    {
      "type": "error",
      "name": "ERC20InvalidSpender",
      "inputs": [
        {
          "name": "spender",
          "type": "address",
          "internalType": "address"
        }
      ]
    },
    {
      "type": "error",
      "name": "ERC4626ExceededMaxDeposit",
      "inputs": [
        {
          "name": "receiver",
          "type": "address",
          "internalType": "address"
        },
        {
          "name": "assets",
          "type": "uint256",
          "internalType": "uint256"
        },
        {
          "name": "max",
          "type": "uint256",
          "internalType": "uint256"
        }
      ]
    },
    {
      "type": "error",
      "name": "ERC4626ExceededMaxMint",
      "inputs": [
        {
          "name": "receiver",
          "type": "address",
          "internalType": "address"
        },
        {
          "name": "shares",
          "type": "uint256",
          "internalType": "uint256"
        },
        {
          "name": "max",
          "type": "uint256",
          "internalType": "uint256"
        }
      ]
    },
    {
      "type": "error",
      "name": "ERC4626ExceededMaxRedeem",
      "inputs": [
        {
          "name": "owner",
          "type": "address",
          "internalType": "address"
        },
        {
          "name": "shares",
          "type": "uint256",
          "internalType": "uint256"
        },
        {
          "name": "max",
          "type": "uint256",
          "internalType": "uint256"
        }
      ]
    },
    {
      "type": "error",
      "name": "ERC4626ExceededMaxWithdraw",
      "inputs": [
        {
          "name": "owner",
          "type": "address",
          "internalType": "address"
        },
        {
          "name": "assets",
          "type": "uint256",
          "internalType": "uint256"
        },
        {
          "name": "max",
          "type": "uint256",
          "internalType": "uint256"
        }
      ]
    },
    {
      "type": "error",
      "name": "InvalidActionType",
      "inputs": []
    },
    {
      "type": "error",
      "name": "SafeERC20FailedOperation",
      "inputs": [
        {
          "name": "token",
          "type": "address",
          "internalType": "address"
        }
      ]
    }
  ],
  "bytecode": {
    "object": "0x60c060405234610039576100116101ca565b61001961003e565b6140d26106e8823960805181610f8a015260a05181610f4801526140d290f35b610044565b60405190565b5f80fd5b60018060a01b031690565b90565b61006a61006561006f92610048565b610053565b610048565b90565b61007b90610056565b90565b61008790610072565b90565b61009390610056565b90565b61009f9061008a565b90565b601f801991011690565b634e487b7160e01b5f52604160045260245ffd5b906100ca906100a2565b810190811060018060401b038211176100e257604052565b6100ac565b906100fa6100f361003e565b92836100c0565b565b60018060401b038111610118576101146020916100a2565b0190565b6100ac565b9061012f61012a836100fc565b6100e7565b918252565b5f7f466c756964000000000000000000000000000000000000000000000000000000910152565b610165600561011d565b9061017260208301610134565b565b61017c61015b565b90565b5f7f464c554944000000000000000000000000000000000000000000000000000000910152565b6101b0600561011d565b906101bd6020830161017f565b565b6101c76101a6565b90565b6101f46101de6101d93061007e565b610096565b6101e6610174565b6101ee6101bf565b9161021b565b565b90565b60ff1690565b61021361020e610218926101f6565b610053565b6101f9565b90565b916102259161024e565b61022e81610597565b905f1461023e575b60a052608052565b5061024960126101ff565b610236565b90610258916104ae565b565b5190565b634e487b7160e01b5f52602260045260245ffd5b9060016002830492168015610292575b602083101461028d57565b61025e565b91607f1691610282565b5f5260205f2090565b601f602091010490565b1b90565b919060086102ce9102916102c85f19846102af565b926102af565b9181191691161790565b90565b6102ef6102ea6102f4926102d8565b610053565b6102d8565b90565b90565b919061031061030b610318936102db565b6102f7565b9083546102b3565b9055565b5f90565b6103329161032c61031c565b916102fa565b565b5b818110610340575050565b8061034d5f600193610320565b01610335565b9190601f8111610363575b505050565b61036f6103949361029c565b90602061037b846102a5565b8301931061039c575b61038d906102a5565b0190610334565b5f808061035e565b915061038d81929050610384565b1c90565b906103be905f19906008026103aa565b191690565b816103cd916103ae565b906002021790565b906103df8161025a565b9060018060401b03821161049d57610401826103fb8554610272565b85610353565b602090601f831160011461043557918091610424935f92610429575b50506103c3565b90555b565b90915001515f8061041d565b601f198316916104448561029c565b925f5b8181106104855750916002939185600196941061046b575b50505002019055610427565b61047b910151601f8416906103ae565b90555f808061045f565b91936020600181928787015181550195019201610447565b6100ac565b906104ac916103d5565b565b906104bd6104c49260036104a2565b60046104a2565b565b5f90565b5f90565b6104d790610072565b90565b5f0190565b90565b6104f66104f16104fb926104df565b610053565b6102d8565b90565b5f1c90565b61050f610514916104fe565b6102db565b90565b61052b610526610530926101f9565b610053565b6102d8565b90565b151590565b61054190610533565b90565b90565b61055b61055661056092610544565b610053565b6101f9565b90565b61057261057891939293610538565b92610547565b90565b61058f61058a610594926102d8565b610053565b6101f9565b90565b906105a06104c6565b506105a96104ca565b506106056105fb6105c16105bb61068f565b946104ce565b6105c961003e565b906105f6826105e760046020830163313ce56760e01b8152016104da565b602082018103825203836100c0565b6106a2565b50919091936106d5565b80610668575b80610644575b5f146106305761062a610625600193610503565b61057b565b915b9190565b905061063d5f5f90610563565b919061062c565b5061064e82610503565b61066161065b60ff610517565b916102d8565b1115610611565b506106716106da565b61068461067e60206104e2565b916102d8565b101561060b565b5f90565b61069761068b565b5060405190565b5f90565b6040915f916106af6104c6565b506106b861069e565b506106c161069e565b50602082519201905afa905f519060205190565b604052565b6106e261031c565b503d9056fe60806040526004361015610013575b610bbf565b61001d5f356101cc565b806301e1d114146101c757806306fdde03146101c257806307a2d13a146101bd578063095ea7b3146101b85780630a28a477146101b357806318160ddd146101ae57806323b872dd146101a9578063313ce567146101a457806338d52e0f1461019f578063402d267d1461019a5780634a877938146101955780634cdad5061461019057806369eca7f71461018b5780636e553f651461018657806370a082311461018157806394bf804d1461017c57806395d89b4114610177578063a9059cbb14610172578063b3d7f6b91461016d578063b460af9414610168578063ba08765214610163578063c63d75b61461015e578063c6e6f59214610159578063ce96cb7714610154578063d905777e1461014f578063dd62ed3e1461014a5763ef8b30f70361000e57610b8a565b610b54565b610af2565b610abd565b610a88565b610a53565b610a1d565b6109e7565b610978565b610942565b61090d565b6108d7565b6108a2565b61086c565b61080b565b610694565b610660565b6105d3565b610580565b610529565b6104cb565b61045c565b610427565b6103f1565b61032e565b6102b4565b610214565b60e01c90565b60405190565b5f80fd5b5f80fd5b5f9103126101ea57565b6101dc565b90565b6101fb906101ef565b9052565b9190610212905f602085019401906101f2565b565b34610244576102243660046101e0565b61024061022f610c69565b6102376101d2565b918291826101ff565b0390f35b6101d8565b5190565b60209181520190565b90825f9392825e0152565b601f801991011690565b61028a6102936020936102989361028181610249565b9384809361024d565b95869101610256565b610261565b0190565b6102b19160208201915f81840391015261026b565b90565b346102e4576102c43660046101e0565b6102e06102cf610e26565b6102d76101d2565b9182918261029c565b0390f35b6101d8565b5f80fd5b6102f6816101ef565b036102fd57565b5f80fd5b9050359061030e826102ed565b565b9060208282031261032957610326915f01610301565b90565b6101dc565b3461035e5761035a610349610344366004610310565b610e3c565b6103516101d2565b918291826101ff565b0390f35b6101d8565b60018060a01b031690565b61037790610363565b90565b6103838161036e565b0361038a57565b5f80fd5b9050359061039b8261037a565b565b91906040838203126103c557806103b96103c2925f860161038e565b93602001610301565b90565b6101dc565b151590565b6103d8906103ca565b9052565b91906103ef905f602085019401906103cf565b565b346104225761041e61040d61040736600461039d565b90610e57565b6104156101d2565b918291826103dc565b0390f35b6101d8565b346104575761045361044261043d366004610310565b610e79565b61044a6101d2565b918291826101ff565b0390f35b6101d8565b3461048c5761046c3660046101e0565b610488610477610eba565b61047f6101d2565b918291826101ff565b0390f35b6101d8565b90916060828403126104c6576104c36104ac845f850161038e565b936104ba816020860161038e565b93604001610301565b90565b6101dc565b346104fc576104f86104e76104e1366004610491565b91610ed0565b6104ef6101d2565b918291826103dc565b0390f35b6101d8565b60ff1690565b61051090610501565b9052565b9190610527905f60208501940190610507565b565b34610559576105393660046101e0565b610555610544610f3a565b61054c6101d2565b91829182610514565b0390f35b6101d8565b6105679061036e565b9052565b919061057e905f6020850194019061055e565b565b346105b0576105903660046101e0565b6105ac61059b610f7c565b6105a36101d2565b9182918261056b565b0390f35b6101d8565b906020828203126105ce576105cb915f0161038e565b90565b6101dc565b34610603576105ff6105ee6105e93660046105b5565b610fb1565b6105f66101d2565b918291826101ff565b0390f35b6101d8565b90565b61061481610608565b0361061b57565b5f80fd5b9050359061062c8261060b565b565b9190604083820312610656578061064a610653925f860161061f565b9360200161038e565b90565b6101dc565b5f0190565b3461068f5761067961067336600461062e565b90611d61565b6106816101d2565b8061068b8161065b565b0390f35b6101d8565b346106c4576106c06106af6106aa366004610310565b6124eb565b6106b76101d2565b918291826101ff565b0390f35b6101d8565b5f80fd5b634e487b7160e01b5f52604160045260245ffd5b906106eb90610261565b810190811067ffffffffffffffff82111761070557604052565b6106cd565b9061071d6107166101d2565b92836106e1565b565b67ffffffffffffffff81116107375760208091020190565b6106cd565b5f80fd5b909291926107556107508261071f565b61070a565b938185526020808601920283019281841161079257915b8383106107795750505050565b602080916107878486610301565b81520192019161076c565b61073c565b9080601f830112156107b5578160206107b293359101610740565b90565b6106c9565b91606083830312610806576107d1825f850161061f565b926107df836020830161038e565b92604082013567ffffffffffffffff8111610801576107fe9201610797565b90565b6102e9565b6101dc565b3461083a5761082461081e3660046107ba565b916127d3565b61082c6101d2565b806108368161065b565b0390f35b6101d8565b9190604083820312610867578061085b610864925f8601610301565b9360200161038e565b90565b6101dc565b3461089d5761089961088861088236600461083f565b9061308b565b6108906101d2565b918291826101ff565b0390f35b6101d8565b346108d2576108ce6108bd6108b83660046105b5565b613110565b6108c56101d2565b918291826101ff565b0390f35b6101d8565b34610908576109046108f36108ed36600461083f565b9061312e565b6108fb6101d2565b918291826101ff565b0390f35b6101d8565b3461093d5761091d3660046101e0565b61093961092861319e565b6109306101d2565b9182918261029c565b0390f35b6101d8565b346109735761096f61095e61095836600461039d565b906131b4565b6109666101d2565b918291826103dc565b0390f35b6101d8565b346109a8576109a461099361098e366004610310565b6131d6565b61099b6101d2565b918291826101ff565b0390f35b6101d8565b90916060828403126109e2576109df6109c8845f8501610301565b936109d6816020860161038e565b9360400161038e565b90565b6101dc565b34610a1857610a14610a036109fd3660046109ad565b916131ee565b610a0b6101d2565b918291826101ff565b0390f35b6101d8565b34610a4e57610a4a610a39610a333660046109ad565b91613261565b610a416101d2565b918291826101ff565b0390f35b6101d8565b34610a8357610a7f610a6e610a693660046105b5565b6132d1565b610a766101d2565b918291826101ff565b0390f35b6101d8565b34610ab857610ab4610aa3610a9e366004610310565b6132e0565b610aab6101d2565b918291826101ff565b0390f35b6101d8565b34610aed57610ae9610ad8610ad33660046105b5565b6132f7565b610ae06101d2565b918291826101ff565b0390f35b6101d8565b34610b2257610b1e610b0d610b083660046105b5565b613314565b610b156101d2565b918291826101ff565b0390f35b6101d8565b9190604083820312610b4f5780610b43610b4c925f860161038e565b9360200161038e565b90565b6101dc565b34610b8557610b81610b70610b6a366004610b27565b9061333f565b610b786101d2565b918291826101ff565b0390f35b6101d8565b34610bba57610bb6610ba5610ba0366004610310565b613367565b610bad6101d2565b918291826101ff565b0390f35b6101d8565b5f80fd5b5f90565b90565b610bde610bd9610be392610363565b610bc7565b610363565b90565b610bef90610bca565b90565b610bfb90610be6565b90565b610c0790610bca565b90565b610c1390610bfe565b90565b610c1f90610bfe565b90565b5f80fd5b60e01b90565b90505190610c39826102ed565b565b90602082820312610c5457610c51915f01610c2c565b90565b6101dc565b610c616101d2565b3d5f823e3d90fd5b610c71610bc3565b50610cc16020610c8f610c8a610c85610f7c565b610bf2565b610c0a565b6370a0823190610cb6610ca130610c16565b92610caa6101d2565b95869485938493610c26565b83526004830161056b565b03915afa908115610d05575f91610cd7575b5090565b610cf8915060203d8111610cfe575b610cf081836106e1565b810190610c3b565b5f610cd3565b503d610ce6565b610c59565b606090565b634e487b7160e01b5f52602260045260245ffd5b9060016002830492168015610d43575b6020831014610d3e57565b610d0f565b91607f1691610d33565b60209181520190565b5f5260205f2090565b905f9291805490610d79610d7283610d23565b8094610d4d565b916001811690815f14610dd05750600114610d94575b505050565b610da19192939450610d56565b915f925b818410610db857505001905f8080610d8f565b60018160209295939554848601520191019290610da5565b92949550505060ff19168252151560200201905f8080610d8f565b90610df591610d5f565b90565b90610e18610e1192610e086101d2565b93848092610deb565b03836106e1565b565b610e2390610df8565b90565b610e2e610d0a565b50610e396003610e1a565b90565b610e5090610e48610bc3565b505f906133bf565b90565b5f90565b610e7491610e63610e53565b50610e6c613414565b919091613421565b600190565b610e8e90610e85610bc3565b50600190613431565b90565b5f1c90565b90565b610ea5610eaa91610e91565b610e96565b90565b610eb79054610e99565b90565b610ec2610bc3565b50610ecd6002610ead565b90565b91610efa92610edd610e53565b50610ef2610ee9613414565b82908491613494565b919091613548565b600190565b5f90565b634e487b7160e01b5f52601160045260245ffd5b610f23610f2991610501565b91610501565b019060ff8211610f3557565b610f03565b610f42610eff565b50610f757f0000000000000000000000000000000000000000000000000000000000000000610f6f613601565b90610f17565b90565b5f90565b610f84610f78565b50610fae7f0000000000000000000000000000000000000000000000000000000000000000610c0a565b90565b50610fba610bc3565b505f1990565b610fc990610bca565b90565b610fd590610fc0565b90565b610fe190610bfe565b90565b5f80fd5b5f80fd5b90505190610ff98261060b565b565b905051906110088261037a565b565b5f80fd5b67ffffffffffffffff811161102c57611028602091610261565b0190565b6106cd565b909291926110466110418261100e565b61070a565b938185526020850190828401116110625761106092610256565b565b61100a565b9080601f830112156110855781602061108293519101611031565b90565b6106c9565b67ffffffffffffffff81116110a25760208091020190565b6106cd565b600811156110b157565b5f80fd5b905051906110c2826110a7565b565b67ffffffffffffffff81116110dc5760208091020190565b6106cd565b909291926110f66110f1826110c4565b61070a565b938185526020808601920283019281841161113357915b83831061111a5750505050565b602080916111288486610ffb565b81520192019161110d565b61073c565b9080601f8301121561115657816020611153935191016110e1565b90565b6106c9565b67ffffffffffffffff811161117957611175602091610261565b0190565b6106cd565b9092919261119361118e8261115b565b61070a565b938185526020850190828401116111af576111ad92610256565b565b61100a565b9080601f830112156111d2578160206111cf9351910161117e565b90565b6106c9565b91909160c081840312611289576111ee60c061070a565b926111fb815f8401610ffb565b5f85015261120c81602084016110b5565b6020850152604082015167ffffffffffffffff81116112845781611231918401611138565b60408501526112438160608401610ffb565b60608501526112558160808401610c2c565b608085015260a082015167ffffffffffffffff811161127f5761127892016111b4565b60a0830152565b610fe8565b610fe8565b610fe4565b9291906112a261129d8261108a565b61070a565b93818552602080860192028101918383116112f95781905b8382106112c8575050505050565b815167ffffffffffffffff81116112f4576020916112e987849387016111d7565b8152019101906112ba565b6106c9565b61073c565b9080601f8301121561131c578160206113199351910161128e565b90565b6106c9565b91909160c0818403126113ec5761133860c061070a565b92611345815f8401610fec565b5f8501526113568160208401610ffb565b6020850152604082015167ffffffffffffffff81116113e7578161137b918401611067565b6040850152606082015167ffffffffffffffff81116113e257816113a0918401611067565b606085015260808201519167ffffffffffffffff83116113dd576113c9826113d69483016112fe565b608086015260a001610c2c565b60a0830152565b610fe8565b610fe8565b610fe8565b610fe4565b90602082820312611421575f82015167ffffffffffffffff811161141c576114199201611321565b90565b6102e9565b6101dc565b61142f90610608565b9052565b9190611446905f60208501940190611426565b565b5190565b611455906101ef565b5f8114611463576001900390565b610f03565b90565b61147f61147a61148492611468565b610bc7565b6101ef565b90565b90565b61149e6114996114a392611487565b610bc7565b6101ef565b90565b6114b56114bb919392936101ef565b926101ef565b82039182116114c657565b610f03565b634e487b7160e01b5f52603260045260245ffd5b906114e982611448565b8110156114fa576020809102010190565b6114cb565b606090565b5f90565b634e487b7160e01b5f52602160045260245ffd5b6008111561152657565b611508565b906115358261151c565b565b611541905161152b565b90565b90565b61155b61155661156092611544565b610bc7565b6101ef565b90565b90611575611570836110c4565b61070a565b918252565b369037565b906115a461158c83611563565b9260208061159a86936110c4565b920191039061157a565b565b6115b0905161036e565b90565b5190565b906115c1826115b3565b8110156115d2576020809102010190565b6114cb565b906115e19061036e565b9052565b90565b6115fc6115f7611601926115e5565b610bc7565b6101ef565b90565b61160d90610bca565b90565b61161990611604565b90565b61162590610bfe565b90565b9092919261163d6116388261071f565b61070a565b938185526020808601920283019281841161167a57915b8383106116615750505050565b6020809161166f8486610c2c565b815201920191611654565b61073c565b9080601f8301121561169d5781602061169a93519101611628565b90565b6106c9565b9060e08282031261176e576116b9815f8401610ffb565b92602083015167ffffffffffffffff811161176957826116da918501611138565b92604081015167ffffffffffffffff811161176457836116fb91830161167f565b926117098160608401610ffb565b926117178260808501610c2c565b9260a081015167ffffffffffffffff811161175f5783611738918301611138565b9260c082015167ffffffffffffffff811161175a57611757920161167f565b90565b6102e9565b6102e9565b6102e9565b6102e9565b6101dc565b61177c9061152b565b90565b61178890611773565b9052565b60209181520190565b60200190565b6117a49061036e565b9052565b906117b58160209361179b565b0190565b60200190565b906117dc6117d66117cf846115b3565b809361178c565b92611795565b905f5b8181106117ec5750505090565b9091926118056117ff60019286516117a8565b946117b9565b91019190916117df565b6118189061146b565b9052565b5190565b60209181520190565b6118486118516020936118569361183f8161181c565b93848093611820565b95869101610256565b610261565b0190565b946118b9906118af6118cd966118a561189a8a6118c3986118da9f9d989a9e9a61188c905f610100850194019061177f565b8c60208184039101526117bf565b9b60408b019061055e565b60608901906101f2565b608087019061180f565b60a0850190611426565b60c083019061055e565b60e0818403910152611829565b90565b60016118e991016101ef565b90565b6118f5816103ca565b036118fc57565b5f80fd5b9050519061190d826118ec565b565b9060208282031261192857611925915f01611900565b90565b6101dc565b60409061195661195d949695939661194c60608401985f850190611426565b602083019061055e565b019061055e565b565b5f9060033d1161196c575b565b905060045f803e61197d5f516101cc565b9061196a565b5f9060443d10611a00576119956101d2565b60043d036004823e8051903d602483011167ffffffffffffffff8311176119fc5781810191825167ffffffffffffffff81116119f65780602085010160043d038401106119f0576119ed9394955060200101906106e1565b90565b50505050565b50505050565b5050565b565b905090565b5f7f5374657020000000000000000000000000000000000000000000000000000000910152565b611a3a60058092611a02565b611a4381611a07565b0190565b90565b611a56611a5b916101ef565b611a47565b9052565b5f7f206661696c65643a200000000000000000000000000000000000000000000000910152565b611a9260098092611a02565b611a9b81611a5f565b0190565b611ac4611abb92602092611ab281610249565b94858093611a02565b93849101610256565b0190565b6020611af19392611ae5611ade611aeb94611a2e565b8092611a4a565b01611a86565b90611a9f565b90565b90565b919091604081840312611b6157611b0e604061070a565b925f82015167ffffffffffffffff8111611b5c5781611b2e918401611138565b5f850152602082015167ffffffffffffffff8111611b5757611b50920161167f565b6020830152565b610fe8565b610fe8565b610fe4565b90602082820312611b96575f82015167ffffffffffffffff8111611b9157611b8e9201611af7565b90565b6102e9565b6101dc565b949391606091611bdc94611bc7611bd493611bbd60808b01945f8c0190611426565b60208a019061055e565b87820360408901526117bf565b94019061180f565b565b5f910312611be857565b6101dc565b5190565b60209181520190565b60200190565b611c09906101ef565b9052565b90611c1a81602093611c00565b0190565b60200190565b90611c41611c3b611c3484611bed565b8093611bf1565b92611bfa565b905f5b818110611c515750505090565b909192611c6a611c646001928651611c0d565b94611c1e565b9101919091611c44565b611c7d9061148a565b9052565b9194611cd2611cc760a095611cb9611cdc95611ce39a9c9b999c611cac60c08a01925f8b0190611426565b88820360208a01526117bf565b908682036040880152611c24565b98606085019061055e565b60808301906101f2565b0190611c74565b565b604090611d0e611d159496959396611d0460608401985f850190611426565b602083019061055e565b0190611c74565b565b604090611d40611d479496959396611d3660608401985f850190611426565b602083019061055e565b01906103cf565b565b611d5290610608565b90565b611d5e90610bfe565b90565b90611da15f611d77611d7284610fcc565b610fd8565b6328c84bbd90611d968692611d8a6101d2565b95869485938493610c26565b835260048301611433565b03915afa80156124e6576080915f916124c4575b500151611dc181611448565b5b80611dd5611dcf5f61146b565b916101ef565b11156121fe57611df982611df383611ded600161148a565b906114a6565b906114df565b51611e026114ff565b50611e0b610f78565b611e13611504565b50611e2060208301611537565b611e32611e2c5f61152b565b9161152b565b145f14612102575060015f611e4f611e4a600161148a565b61157f565b611e76611e5e606086016115a6565b611e7183611e6b8661146b565b906115b7565b6115d7565b611e95611e906040860151611e8a8561146b565b906115b7565b6115a6565b925b611ef883611eb6611eb1611eac838a016115a6565b611610565b61161c565b92611f038c896323aa883c93979991611ed98d611ed3600161148a565b906114a6565b9086909160a03394015194611eec6101d2565b9d8e9c8d9b8c9a610c26565b8a5260048a0161185a565b03925af190816120dc575b50155f14611fc257506001611f2161195f565b6308c379a014611f44575b611f3f57611f3a905b61144c565b611dc2565b610c59565b611f4c611983565b80611f575750611f2c565b611fa183611f9c611f76611fbe9492611f70600161148a565b906114a6565b611f8d611f816101d2565b93849260208401611ac8565b602082018103825203826106e1565b611af4565b611fa96101d2565b91829162461bcd60e51b83526004830161029c565b0390fd5b81611fd6611fd0600161148a565b916101ef565b14611fe6575b50611f3a90611f35565b94909392611ff2610bc3565b5b8061201261200c61200760408b01516115b3565b6101ef565b916101ef565b10156120cd578690602061203761203261202d5f86016115a6565b611610565b61161c565b6372f78e1d906120725f8a9361207d61205e6120596040339b01518a906115b7565b6115a6565b6120666101d2565b998a9788968795610c26565b85526004850161192d565b03925af19182156120c8576120979261209c575b506118dd565b611ff3565b6120bc9060203d81116120c1575b6120b481836106e1565b81019061190f565b612091565b503d6120aa565b610c59565b509293611f3a91955090611fdc565b6120f7903d805f833e6120ef81836106e1565b8101906116a2565b505050505050611f0e565b61210e60208301611537565b61212161211b600261152b565b9161152b565b145f146121e2575f600361213d6121386003611547565b61157f565b9061216561214d606087016115a6565b6121608461215a8761146b565b906115b7565b6115d7565b6121a1612188612183604088015161217d600161148a565b906115b7565b6115a6565b61219c84612196600161148a565b906115b7565b6115d7565b6121dd6121c46121bf60408801516121b960026115e8565b906115b7565b6115a6565b6121d8846121d260026115e8565b906115b7565b6115d7565b611e97565b5f632237483560e21b8152806121fa6004820161065b565b0390fd5b5061221061220b83610fcc565b610fd8565b5f6340a515ec91859061224f339461225a6040612236896122308961146b565b906114df565b51015186906122436101d2565b98899788968796610c26565b865260048601611b9b565b03915afa9081156124bf575f9161249d575b50906122775f61146b565b9061228961228485610fcc565b610fd8565b63849cd604602060406122a689956122a05f61146b565b906114df565b51015195015193339091600195843b15612498575f966122da9488946122e5936122ce6101d2565b9b8c9a8b998a98610c26565b885260048801611c81565b03925af1801561249357612467575b5061230661230182610fcc565b610fd8565b906318cdae1f833393600192813b15612462575f61233791612342829661232b6101d2565b998a9788968795610c26565b855260048501611ce5565b03925af190811561245d576123659261236092612431575b50610fcc565b610fd8565b630c49da888233925f92813b1561242c575f6123949161239f82966123886101d2565b98899788968795610c26565b855260048501611d17565b03925af18015612427576123fb575b50336123e36123dd7fb005d6b2b931dc1764f5d36788bbca10ae4f3dc57db89ee6646fb5c41b36639c93611d49565b91611d55565b916123ec6101d2565b806123f68161065b565b0390a3565b61241a905f3d8111612420575b61241281836106e1565b810190611bde565b5f6123ae565b503d612408565b610c59565b610c22565b612450905f3d8111612456575b61244881836106e1565b810190611bde565b5f61235a565b503d61243e565b610c59565b610c22565b612486905f3d811161248c575b61247e81836106e1565b810190611bde565b5f6122f4565b503d612474565b610c59565b610c22565b6124b991503d805f833e6124b181836106e1565b810190611b66565b5f61226c565b610c59565b6124e091503d805f833e6124d881836106e1565b8101906113f1565b5f611db5565b610c59565b6124ff906124f7610bc3565b505f906133bf565b90565b61250b90610bca565b90565b61251790612502565b90565b61252390610bfe565b90565b9061253082611bed565b811015612541576020809102010190565b6114cb565b61255090516101ef565b90565b60409061257c612583949695939661257260608401985f85019061055e565b602083019061055e565b01906101f2565b565b9160206125a692949361259f60408201965f83019061055e565b01906101f2565b565b6125dd6125e4946125d36060949897956125c9608086019a5f870190611426565b602085019061055e565b604083019061055e565b01906101f2565b565b946126459061263b612659966126316126268a61264f986126669f9d989a9e9a612618905f610100850194019061177f565b8c60208184039101526117bf565b9b60408b019061055e565b60608901906101f2565b60808701906101f2565b60a0850190611426565b60c083019061055e565b60e0818403910152611829565b90565b9a999791966126e26127089760a06126da8f97996126cc6127109f9b976126f99b6101209f6126ec9a60408e6126b86126bf946126ae6101408401985f850190611426565b602083019061055e565b019061055e565b8b820360608d01526117bf565b9089820360808b0152611c24565b96019061055e565b60c08c01906101f2565b89820360e08b01526117bf565b90878203610100890152611c24565b9401906101f2565b565b919461276361275860a09561274a61276d956127749a9c9b999c61273d60c08a01925f8b0190611426565b88820360208a01526117bf565b908682036040880152611c24565b98606085019061055e565b60808301906101f2565b019061180f565b565b60409061279f6127a6949695939661279560608401985f850190611426565b602083019061055e565b019061180f565b565b90916127c26127d09360408401908482035f8601526117bf565b916020818403910152611c24565b90565b9092916128155f6127eb6127e687610fcc565b610fd8565b6328c84bbd9061280a86926127fe6101d2565b95869485938493610c26565b835260048301611433565b03915afa908115613054575f91613032575b5061284c6040612844608084015161283e5f61146b565b906114df565b5101516115b3565b93612855610bc3565b5b80612869612863886101ef565b916101ef565b1015612aa85761289d612898604061288e60808701516128885f61146b565b906114df565b51015183906115b7565b6115a6565b908460206128b26128ad8561250e565b610c16565b6323b872dd906128f15f33936128fc6128dd6128d86128d03061251a565b998b90612526565b612546565b6128e56101d2565b98899788968795610c26565b855260048501612553565b03925af18015612aa357612a77575b5061291d6129188361250e565b610c16565b602063a9059cbb918a906129565f61293e6129398c8990612526565b612546565b9561296161294a6101d2565b97889687958694610c26565b845260048401612585565b03925af18015612a7257612a46575b506129a361299e6129995f612992608089015161298c8361146b565b906114df565b51016115a6565b611610565b61161c565b63701ad7a690879033946129c06129bb8a8790612526565b612546565b823b15612a41575f946129f186926129e6946129da6101d2565b9a8b9889978896610c26565b8652600486016125a8565b03925af1918215612a3c57612a0b92612a10575b506118dd565b612856565b612a2f905f3d8111612a35575b612a2781836106e1565b810190611bde565b5f612a05565b503d612a1d565b610c59565b610c22565b612a669060203d8111612a6b575b612a5e81836106e1565b81019061190f565b612970565b503d612a54565b610c59565b612a979060203d8111612a9c575b612a8f81836106e1565b81019061190f565b61290b565b503d612a85565b610c59565b5090919350939193612ab8610bc3565b5b80612ad8612ad2612acd6080870151611448565b6101ef565b916101ef565b1015612dde57612aed608084015182906114df565b519080612b02612afc5f61146b565b916101ef565b1480612d31575b612d2d575f612b29612b24612b1f8386016115a6565b611610565b61161c565b6323aa883c90612b8383612b3f60208801611537565b93612b8e8d60408a015199612b56606082016115a6565b91851990612b6660808401612546565b909160a03394015194612b776101d2565b9e8f9c8d9b8c9a610c26565b8a5260048a016125e6565b03925af180885f8080808080809891939a9095929497612cfc575b50155f14612c52575050505050505090506001612bc461195f565b6308c379a014612be7575b612be257612bdd905b6118dd565b612ab9565b610c59565b612bef611983565b80612bfa5750612bcf565b612c3183612c2c612c4e9391612c1d612c116101d2565b93849260208401611ac8565b602082018103825203826106e1565b611af4565b612c396101d2565b91829162461bcd60e51b83526004830161029c565b0390fd5b949791909295612c69612c648d610fcc565b610fd8565b9663471f5222959433979a9493909192938a958a3b15612cf757612c8b6101d2565b9c8d9a612c988c9b610c26565b8b5260048b0199612ca89a612669565b03815a5f948591f1918215612cf257612bdd92612cc6575b50612bd8565b612ce5905f3d8111612ceb575b612cdd81836106e1565b810190611bde565b5f612cc0565b503d612cd3565b610c59565b610c22565b959750985050505050612d2191503d805f833e612d1981836106e1565b8101906116a2565b9694959093985f612ba9565b5f80fd5b50612d3e60208301611537565b612d51612d4b600261152b565b9161152b565b148015612db8575b8015612d92575b8015612d6c575b612b09565b50612d7960208301611537565b612d8c612d86600361152b565b9161152b565b14612d67565b50612d9f60208301611537565b612db2612dac600161152b565b9161152b565b14612d60565b50612dc560208301611537565b612dd8612dd2600561152b565b9161152b565b14612d59565b50939091612deb5f61146b565b612dfc612df783610fcc565b610fd8565b9063849cd6049184906040612e1e6080890151612e185f61146b565b906114df565b5101519388933390915f95843b1561302d575f96612e50948894612e5b93612e446101d2565b9b8c9a8b998a98610c26565b885260048801612712565b03925af1801561302857612ffc575b50612e7c612e7782610fcc565b610fd8565b906318cdae1f8333935f92813b15612ff7575f612eac91612eb78296612ea06101d2565b998a9788968795610c26565b855260048501612776565b03925af1908115612ff257612eda92612ed592612fc6575b50610fcc565b610fd8565b630c49da88823392600192813b15612fc1575f612f0a91612f158296612efe6101d2565b98899788968795610c26565b855260048501611d17565b03925af18015612fbc57612f90575b506040612f3f608033940151612f395f61146b565b906114df565b51015192612f76612f707f54a6a9323164f82c265ada99decf7dce837940c7be4474aab209ebf4e95ce32593611d49565b93611d55565b93612f8b612f826101d2565b928392836127a8565b0390a3565b612faf905f3d8111612fb5575b612fa781836106e1565b810190611bde565b5f612f24565b503d612f9d565b610c59565b610c22565b612fe5905f3d8111612feb575b612fdd81836106e1565b810190611bde565b5f612ecf565b503d612fd3565b610c59565b610c22565b61301b905f3d8111613021575b61301381836106e1565b810190611bde565b5f612e6a565b503d613009565b610c59565b610c22565b61304e91503d805f833e61304681836106e1565b8101906113f1565b5f612827565b610c59565b604090613082613089949695939661307860608401985f85019061055e565b60208301906101f2565b01906101f2565b565b90613094610bc3565b5061309e81610fb1565b826130b16130ab836101ef565b916101ef565b116130d857506130d5906130c483613367565b926130cd613414565b918492613639565b90565b826130f68391925f938493633c8097d960e11b855260048501613059565b0390fd5b9061310490611d55565b5f5260205260405f2090565b61312661312b9161311f610bc3565b505f6130fa565b610ead565b90565b90613137610bc3565b50613141816132d1565b8261315461314e836101ef565b916101ef565b1161317c575061317990613167836131d6565b92613170613414565b91849192613639565b90565b8261319a8391925f93849363284ff66760e01b855260048501613059565b0390fd5b6131a6610d0a565b506131b16004610e1a565b90565b6131d1916131c0610e53565b506131c9613414565b919091613548565b600190565b6131eb906131e2610bc3565b506001906133bf565b90565b916131f7610bc3565b50613201816132f7565b8361321461320e836101ef565b916101ef565b1161323f57509061323c9161322884610e79565b93613231613414565b9291909185936136b9565b90565b8361325d8391925f938493633fa733bb60e21b855260048501613059565b0390fd5b613269610bc3565b5061327383613314565b81613286613280836101ef565b916101ef565b116132af5750908161329a6132ac936124eb565b936132a3613414565b928592936136b9565b90565b906132cd8491925f938493632e52afbb60e21b855260048501613059565b0390fd5b506132da610bc3565b505f1990565b6132f4906132ec610bc3565b505f90613431565b90565b61330c61331191613306610bc3565b50613314565b6124eb565b90565b61332690613320610bc3565b50613110565b90565b9061333390611d55565b5f5260205260405f2090565b6133649161335a61335f92613352610bc3565b506001613329565b6130fa565b610ead565b90565b61337b90613373610bc3565b505f90613431565b90565b61338d613393919392936101ef565b926101ef565b820180921161339e57565b610f03565b6133ac90610501565b604d81116133ba57600a0a90565b610f03565b90613411916133cc610bc3565b50906133e96133d9610c69565b6133e3600161148a565b9061337e565b61340a6133f4610eba565b6134046133ff613601565b6133a3565b9061337e565b9192613777565b90565b61341c610f78565b503390565b9161342f9291600192613845565b565b906134839161343e610bc3565b509061346161344b610eba565b61345b613456613601565b6133a3565b9061337e565b61347c61346c610c69565b613476600161148a565b9061337e565b9192613777565b90565b9061349191036101ef565b90565b9291926134a281839061333f565b90816134b76134b15f196101ef565b916101ef565b106134c4575b5050509050565b816134d76134d1876101ef565b916101ef565b106134fd576134f493946134ec919392613486565b905f92613845565b805f80806134bd565b5061351c849291925f938493637dc7a0d960e11b855260048501613059565b0390fd5b61353461352f61353992611468565b610bc7565b610363565b90565b61354590613520565b90565b918261356461355e6135595f61353c565b61036e565b9161036e565b146135be578161358461357e6135795f61353c565b61036e565b9161036e565b146135975761359592919091613962565b565b6135ba6135a35f61353c565b5f91829163ec442f0560e01b83526004830161056b565b0390fd5b6135e16135ca5f61353c565b5f918291634b637e8f60e11b83526004830161056b565b0390fd5b6135f96135f46135fe92611468565b610bc7565b610501565b90565b613609610eff565b506136135f6135e5565b90565b91602061363792949361363060408201965f8301906101f2565b01906101f2565b565b61365e61364c613647610f7c565b610bf2565b8261365630610c16565b908692613ad1565b613669828590613b1c565b90919261369f6136997fdcbc1c05240f31ff3ad067ef1ee35ce4997762752e3a095284754544f4c709d793611d55565b93611d55565b936136b46136ab6101d2565b92839283613616565b0390a3565b806136cc6136c68561036e565b9161036e565b03613752575b6136dd838690613b7a565b6136f86136f06136eb610f7c565b610bf2565b838691613bd9565b9091929361373861373261372c7ffbde797d201c681b91056529119e0b02407c7bb96a4a2c75c01fc9667232c8db94611d55565b94611d55565b94611d55565b9461374d6137446101d2565b92839283613616565b0390a4565b61375e83828791613494565b6136d2565b634e487b7160e01b5f52601260045260245ffd5b929190613782610bc3565b5061379861379285838591613ca8565b93613f16565b93846137b7575b5050506137ae6137b492613f52565b9061337e565b90565b90919350909280156137e6576137b4936137ae92096137de6137d85f61146b565b916101ef565b11925f61379f565b613763565b5f1b90565b906137fc5f19916137eb565b9181191691161790565b61381a61381561381f926101ef565b610bc7565b6101ef565b90565b90565b9061383a61383561384192613806565b613822565b82546137f0565b9055565b90928161386261385c6138575f61353c565b61036e565b9161036e565b1461392d578361388261387c6138775f61353c565b61036e565b9161036e565b14613906576138a6836138a161389a60018690613329565b87906130fa565b613825565b6138b0575b505050565b9190916138fb6138e96138e37f8c5be1e5ebec7d5bd14f71427d1e84f3dd0314c0f7b2291e5b200ac8c7c3b92593611d55565b93611d55565b936138f26101d2565b918291826101ff565b0390a35f80806138ab565b6139296139125f61353c565b5f918291634a1406b160e11b83526004830161056b565b0390fd5b6139506139395f61353c565b5f91829163e602df0560e01b83526004830161056b565b0390fd5b9061395f91016101ef565b90565b9190918061398061397a6139755f61353c565b61036e565b9161036e565b145f14613a61576139a461399d836139986002610ead565b61337e565b6002613825565b5b826139c06139ba6139b55f61353c565b61036e565b9161036e565b145f14613a35576139e46139dd836139d86002610ead565b613486565b6002613825565b5b919091613a30613a1e613a187fddf252ad1be2c89b69c2b068fc378daa952ba7f163c4a11628f55a4df523b3ef93611d55565b93611d55565b93613a276101d2565b918291826101ff565b0390a3565b613a5c82613a56613a475f87906130fa565b91613a5183610ead565b613954565b90613825565b6139e5565b613a74613a6f5f83906130fa565b610ead565b80613a87613a81856101ef565b916101ef565b10613aaf57613a9a613aaa918490613486565b613aa55f84906130fa565b613825565b6139a5565b90613acd9091925f93849363391434e360e21b855260048501613059565b0390fd5b9290613aee92613ae8928592919091600193613f60565b156103ca565b613af55750565b613b01613b1891610c0a565b5f918291635274afe760e01b83526004830161056b565b0390fd5b80613b37613b31613b2c5f61353c565b61036e565b9161036e565b14613b5357613b5191613b495f61353c565b919091613962565b565b613b76613b5f5f61353c565b5f91829163ec442f0560e01b83526004830161056b565b0390fd5b9081613b96613b90613b8b5f61353c565b61036e565b9161036e565b14613bb257613bb09190613ba95f61353c565b9091613962565b565b613bd5613bbe5f61353c565b5f918291634b637e8f60e11b83526004830161056b565b0390fd5b91613bf291613bec918491600192613fd9565b156103ca565b613bf95750565b613c05613c1c91610c0a565b5f918291635274afe760e01b83526004830161056b565b0390fd5b613c2c613c32916101ef565b916101ef565b908115613c3d570490565b613763565b90565b613c59613c54613c5e92613c42565b610bc7565b6101ef565b90565b613c6b6012613c45565b90565b90565b613c85613c80613c8a92613c6e565b610bc7565b6101ef565b90565b613c976011613c71565b90565b90613ca591026101ef565b90565b90929192613cb4610bc3565b50613cc0828290614043565b9190919282613cd7613cd15f61146b565b916101ef565b14613e845785613cef613ce9856101ef565b916101ef565b1115613e5257613e499286613e4f969793613d4093613d0c610bc3565b5009908582119003940393600183613d2d5f613d28879161146b565b613486565b1680809504960493805f03040190613c9a565b1791613e43613e27613e03613ddf613dbb613d97613d686003613d638991611547565b613c9a565b613d7260026115e8565b18613d916002613d8c613d868b8590613c9a565b916115e8565b613486565b90613c9a565b613db56002613db0613daa8a8590613c9a565b916115e8565b613486565b90613c9a565b613dd96002613dd4613dce898590613c9a565b916115e8565b613486565b90613c9a565b613dfd6002613df8613df2888590613c9a565b916115e8565b613486565b90613c9a565b613e216002613e1c613e16878590613c9a565b916115e8565b613486565b90613c9a565b91613e3e613e386002928590613c9a565b916115e8565b613486565b90613c9a565b90613c9a565b90565b613e7f86613e68613e625f61146b565b916101ef565b14613e71613c61565b613e79613c8d565b91614068565b61408c565b50505091613e929192613c20565b90565b60041115613e9f57565b611508565b90613eae82613e95565b565b613eb990613ea4565b90565b613ed0613ecb613ed5926115e5565b610bc7565b610501565b90565b613ee4613eea91610501565b91610501565b908115613ef5570690565b613763565b613f0e613f09613f1392611487565b610bc7565b610501565b90565b613f2b613f3b91613f25610e53565b50613eb0565b613f356002613ebc565b90613ed8565b613f4e613f486001613efa565b91610501565b1490565b613f5a610bc3565b50151590565b91949394929092613f6f610e53565b506323b872dd60e01b93604051945f525f1960601c166004525f1960601c1660245260445260205f60648180855af19360015f5114851615613fb7575b50506040525f606052565b8492941516613fd0575f903b113d151616915f80613fac565b833d5f823e3d90fd5b9091939293613fe6610e53565b5063a9059cbb60e01b92604051935f525f1960601c1660045260245260205f60448180855af19360015f5114851615614021575b5050604052565b849294151661403a575f903b113d151616915f8061401a565b833d5f823e3d90fd5b9061404c610bc3565b50614055610bc3565b505f198183099102908180821091030391565b6140826140889293614078610bc3565b5080941891613f52565b90613c9a565b1890565b634e487b715f526020526024601cfdfea2646970667358221220d55494a5fbf0f48c91b5dc7650b67b9d35d6efc7769f613bbf8ad16e8dce74c464736f6c634300081c0033",
    "linkReferences": {}
  },
  "methodIdentifiers": {
    "allowance(address,address)": "dd62ed3e",
    "approve(address,uint256)": "095ea7b3",
    "asset()": "38d52e0f",
    "balanceOf(address)": "70a08231",
    "convertToAssets(uint256)": "07a2d13a",
    "convertToShares(uint256)": "c6e6f592",
    "decimals()": "313ce567",
    "deposit(uint256,address)": "6e553f65",
    "exit(bytes32,address)": "4a877938",
    "join(bytes32,address,uint256[])": "69eca7f7",
    "maxDeposit(address)": "402d267d",
    "maxMint(address)": "c63d75b6",
    "maxRedeem(address)": "d905777e",
    "maxWithdraw(address)": "ce96cb77",
    "mint(uint256,address)": "94bf804d",
    "name()": "06fdde03",
    "previewDeposit(uint256)": "ef8b30f7",
    "previewMint(uint256)": "b3d7f6b9",
    "previewRedeem(uint256)": "4cdad506",
    "previewWithdraw(uint256)": "0a28a477",
    "redeem(uint256,address,address)": "ba087652",
    "symbol()": "95d89b41",
    "totalAssets()": "01e1d114",
    "totalSupply()": "18160ddd",
    "transfer(address,uint256)": "a9059cbb",
    "transferFrom(address,address,uint256)": "23b872dd",
    "withdraw(uint256,address,address)": "b460af94"
  },
  "id": 132
}