{
  "abi": [
    {
      "type": "constructor",
      "inputs": [
        {
          "name": "name",
          "type": "string",
          "internalType": "string"
        },
        {
          "name": "_connectorType",
          "type": "uint8",
          "internalType": "enum IConnector.ConnectorType"
        },
        {
          "name": "_strategy",
          "type": "address",
          "internalType": "address"
        },
        {
          "name": "_engine",
          "type": "address",
          "internalType": "address"
        },
        {
          "name": "_oracle",
          "type": "address",
          "internalType": "address"
        }
      ],
      "stateMutability": "nonpayable"
    },
    {
      "type": "function",
      "name": "connectorName",
      "inputs": [],
      "outputs": [
        {
          "name": "",
          "type": "bytes32",
          "internalType": "bytes32"
        }
      ],
      "stateMutability": "view"
    },
    {
      "type": "function",
      "name": "connectorType",
      "inputs": [],
      "outputs": [
        {
          "name": "",
          "type": "uint8",
          "internalType": "enum IConnector.ConnectorType"
        }
      ],
      "stateMutability": "view"
    },
    {
      "type": "function",
      "name": "engine",
      "inputs": [],
      "outputs": [
        {
          "name": "",
          "type": "address",
          "internalType": "contract IEngine"
        }
      ],
      "stateMutability": "view"
    },
    {
      "type": "function",
      "name": "execute",
      "inputs": [
        {
          "name": "actionType",
          "type": "uint8",
          "internalType": "enum IConnector.ActionType"
        },
        {
          "name": "assetsIn",
          "type": "address[]",
          "internalType": "address[]"
        },
        {
          "name": "assetOut",
          "type": "address",
          "internalType": "address"
        },
        {
          "name": "stepIndex",
          "type": "uint256",
          "internalType": "uint256"
        },
        {
          "name": "amountRatio",
          "type": "uint256",
          "internalType": "uint256"
        },
        {
          "name": "strategyId",
          "type": "bytes32",
          "internalType": "bytes32"
        },
        {
          "name": "userAddress",
          "type": "address",
          "internalType": "address"
        },
        {
          "name": "",
          "type": "bytes",
          "internalType": "bytes"
        }
      ],
      "outputs": [
        {
          "name": "",
          "type": "address",
          "internalType": "address"
        },
        {
          "name": "",
          "type": "address[]",
          "internalType": "address[]"
        },
        {
          "name": "",
          "type": "uint256[]",
          "internalType": "uint256[]"
        },
        {
          "name": "",
          "type": "address",
          "internalType": "address"
        },
        {
          "name": "",
          "type": "uint256",
          "internalType": "uint256"
        },
        {
          "name": "",
          "type": "address[]",
          "internalType": "address[]"
        },
        {
          "name": "",
          "type": "uint256[]",
          "internalType": "uint256[]"
        }
      ],
      "stateMutability": "payable"
    },
    {
      "type": "function",
      "name": "getConnectorName",
      "inputs": [],
      "outputs": [
        {
          "name": "",
          "type": "bytes32",
          "internalType": "bytes32"
        }
      ],
      "stateMutability": "view"
    },
    {
      "type": "function",
      "name": "getConnectorType",
      "inputs": [],
      "outputs": [
        {
          "name": "",
          "type": "uint8",
          "internalType": "enum IConnector.ConnectorType"
        }
      ],
      "stateMutability": "view"
    },
    {
      "type": "function",
      "name": "initialTokenBalanceUpdate",
      "inputs": [
        {
          "name": "strategyId",
          "type": "bytes32",
          "internalType": "bytes32"
        },
        {
          "name": "userAddress",
          "type": "address",
          "internalType": "address"
        },
        {
          "name": "token",
          "type": "address",
          "internalType": "address"
        },
        {
          "name": "amount",
          "type": "uint256",
          "internalType": "uint256"
        }
      ],
      "outputs": [],
      "stateMutability": "nonpayable"
    },
    {
      "type": "function",
      "name": "oracle",
      "inputs": [],
      "outputs": [
        {
          "name": "",
          "type": "address",
          "internalType": "contract IOracle"
        }
      ],
      "stateMutability": "view"
    },
    {
      "type": "function",
      "name": "strategyModule",
      "inputs": [],
      "outputs": [
        {
          "name": "",
          "type": "address",
          "internalType": "contract IFluidStrategy"
        }
      ],
      "stateMutability": "view"
    },
    {
      "type": "function",
      "name": "withdrawAsset",
      "inputs": [
        {
          "name": "_strategyId",
          "type": "bytes32",
          "internalType": "bytes32"
        },
        {
          "name": "_user",
          "type": "address",
          "internalType": "address"
        },
        {
          "name": "_token",
          "type": "address",
          "internalType": "address"
        }
      ],
      "outputs": [
        {
          "name": "",
          "type": "bool",
          "internalType": "bool"
        }
      ],
      "stateMutability": "nonpayable"
    },
    {
      "type": "error",
      "name": "ExecutionFailed",
      "inputs": [
        {
          "name": "reason",
          "type": "string",
          "internalType": "string"
        }
      ]
    },
    {
      "type": "error",
      "name": "InvalidAction",
      "inputs": []
    }
  ],
  "bytecode": {
    "object": "0x610120604052346101655761001e610015610326565b939290926103bf565b61002661016a565b61480461040a82396080518181816105570152610d07015260a0518181816105d2015261127a015260c0518181816108bd01528181610e0601528181611088015281816110f40152818161185d0152818161191701528181611b0d01528181611c36015281816122a101528181612340015281816123c9015281816124820152818161252901528181612c48015281816130e701528181613422015281816134ce01528181613544015281816137cf0152613a26015260e05181818161094401528181610ab201528181610d3f0152610ed80152610100518181816107d601528181613b5c01528181613fbe0152818161406b01528181614118015281816141c5015281816142720152818161431f015281816143cc0152818161447901528181614526015281816145d301528181614680015261472d015261480490f35b610170565b60405190565b5f80fd5b601f801991011690565b634e487b7160e01b5f52604160045260245ffd5b9061019c90610174565b810190811060018060401b038211176101b457604052565b61017e565b906101cc6101c561016a565b9283610192565b565b5f80fd5b5f80fd5b5f80fd5b5f80fd5b60018060401b0381116101fa576101f6602091610174565b0190565b61017e565b90825f9392825e0152565b9092919261021f61021a826101de565b6101b9565b9381855260208501908284011161023b57610239926101ff565b565b6101da565b9080601f8301121561025e5781602061025b9351910161020a565b90565b6101d6565b6003111561026d57565b5f80fd5b9050519061027e82610263565b565b60018060a01b031690565b61029490610280565b90565b6102a08161028b565b036102a757565b5f80fd5b905051906102b882610297565b565b919060a083820312610321575f83015160018060401b03811161031c57816102e3918501610240565b926102f18260208301610271565b9261031961030284604085016102ab565b9361031081606086016102ab565b936080016102ab565b90565b6101d2565b6101ce565b610344614c0e80380380610339816101b9565b9283398101906102ba565b9091929394565b90565b60200190565b5190565b90565b61036f61036a61037492610280565b610358565b610280565b90565b6103809061035b565b90565b61038c90610377565b90565b6103989061035b565b90565b6103a49061038f565b90565b6103b09061035b565b90565b6103bc906103a7565b90565b6103fb926104039594926103d56103f39361034b565b6103e76103e182610354565b9161034e565b2060805260a052610383565b60c05261039b565b60e0526103b3565b6101005256fe60806040526004361015610013575b6109c9565b61001d5f356100bc565b806323aa883c146100b7578063607985fc146100b25780636370cc02146100ad5780636c033086146100a8578063701ad7a6146100a357806372f78e1d1461009e5780637dc0d1d01461009957806387b4effd146100945780638aec28341461008f5763c9d4623f0361000e57610994565b61090d565b610886565b610851565b61079e565b610706565b610686565b610651565b61059b565b610506565b60e01c90565b60405190565b5f80fd5b5f80fd5b600811156100da57565b5f80fd5b905035906100eb826100d0565b565b5f80fd5b601f801991011690565b634e487b7160e01b5f52604160045260245ffd5b90610119906100f1565b810190811067ffffffffffffffff82111761013357604052565b6100fb565b9061014b6101446100c2565b928361010f565b565b67ffffffffffffffff81116101655760208091020190565b6100fb565b5f80fd5b60018060a01b031690565b6101829061016e565b90565b61018e81610179565b0361019557565b5f80fd5b905035906101a682610185565b565b909291926101bd6101b88261014d565b610138565b93818552602080860192028301928184116101fa57915b8383106101e15750505050565b602080916101ef8486610199565b8152019201916101d4565b61016a565b9080601f8301121561021d5781602061021a933591016101a8565b90565b6100ed565b90565b61022e81610222565b0361023557565b5f80fd5b9050359061024682610225565b565b90565b61025481610248565b0361025b57565b5f80fd5b9050359061026c8261024b565b565b5f80fd5b909182601f830112156102ac5781359167ffffffffffffffff83116102a75760200192600183028401116102a257565b61016a565b61026e565b6100ed565b9190916101008184031261035f576102cb835f83016100de565b92602082013567ffffffffffffffff811161035a57816102ec9184016101ff565b926102fa8260408501610199565b926103088360608301610239565b926103168160808401610239565b926103248260a0850161025f565b926103328360c08301610199565b9260e082013567ffffffffffffffff8111610355576103519201610272565b9091565b6100cc565b6100cc565b6100c8565b61036d90610179565b9052565b5190565b60209181520190565b60200190565b61038d90610179565b9052565b9061039e81602093610384565b0190565b60200190565b906103c56103bf6103b884610371565b8093610375565b9261037e565b905f5b8181106103d55750505090565b9091926103ee6103e86001928651610391565b946103a2565b91019190916103c8565b5190565b60209181520190565b60200190565b61041490610222565b9052565b906104258160209361040b565b0190565b60200190565b9061044c61044661043f846103f8565b80936103fc565b92610405565b905f5b81811061045c5750505090565b90919261047561046f6001928651610418565b94610429565b910191909161044f565b61048890610222565b9052565b9591946104de6104d36104f596956104c58a6105039c9a6104b76104e8985f60e08501940190610364565b8c60208184039101526103a8565b908a820360408c015261042f565b946060890190610364565b608087019061047f565b84820360a08601526103a8565b9160c081840391015261042f565b90565b61053e6105266105173660046102b1565b97969096959195949294610ca3565b936105359795979391936100c2565b9788978861048c565b0390f35b5f80fd5b5f91031261055057565b6100c8565b7f000000000000000000000000000000000000000000000000000000000000000090565b61058290610248565b9052565b9190610599905f60208501940190610579565b565b346105cb576105ab366004610546565b6105c76105b6610555565b6105be6100c2565b91829182610586565b0390f35b610542565b7f000000000000000000000000000000000000000000000000000000000000000090565b634e487b7160e01b5f52602160045260245ffd5b6003111561061257565b6105f4565b9061062182610608565b565b61062c90610617565b90565b61063890610623565b9052565b919061064f905f6020850194019061062f565b565b3461068157610661366004610546565b61067d61066c6105d0565b6106746100c2565b9182918261063c565b0390f35b610542565b346106b657610696366004610546565b6106b26106a1610cfc565b6106a96100c2565b91829182610586565b0390f35b610542565b6080818303126106fc576106d1825f830161025f565b926106f96106e28460208501610199565b936106f08160408601610199565b93606001610239565b90565b6100c8565b5f0190565b34610738576107226107193660046106bb565b92919091610eb0565b61072a6100c2565b8061073481610701565b0390f35b610542565b90916060828403126107725761076f610758845f850161025f565b936107668160208601610199565b93604001610199565b90565b6100c8565b151590565b61078590610777565b9052565b919061079c905f6020850194019061077c565b565b346107cf576107cb6107ba6107b436600461073d565b91611255565b6107c26100c2565b91829182610789565b0390f35b610542565b7f000000000000000000000000000000000000000000000000000000000000000090565b90565b61080f61080a6108149261016e565b6107f8565b61016e565b90565b610820906107fb565b90565b61082c90610817565b90565b61083890610823565b9052565b919061084f905f6020850194019061082f565b565b3461088157610861366004610546565b61087d61086c6107d4565b6108746100c2565b9182918261083c565b0390f35b610542565b346108b657610896366004610546565b6108b26108a161126f565b6108a96100c2565b9182918261063c565b0390f35b610542565b7f000000000000000000000000000000000000000000000000000000000000000090565b6108e890610817565b90565b6108f4906108df565b9052565b919061090b905f602085019401906108eb565b565b3461093d5761091d366004610546565b6109396109286108bb565b6109306100c2565b918291826108f8565b0390f35b610542565b7f000000000000000000000000000000000000000000000000000000000000000090565b61096f90610817565b90565b61097b90610966565b9052565b9190610992905f60208501940190610972565b565b346109c4576109a4366004610546565b6109c06109af610942565b6109b76100c2565b9182918261097f565b0390f35b610542565b5f80fd5b5f90565b606090565b606090565b5f90565b60209181520190565b60207f6e65000000000000000000000000000000000000000000000000000000000000917f63616c6c6572206973206e6f742074686520657865637574696f6e20656e67695f8201520152565b610a4260226040926109df565b610a4b816109e8565b0190565b610a649060208101905f818303910152610a35565b90565b15610a6e57565b610a766100c2565b62461bcd60e51b815280610a8c60048201610a4f565b0390fd5b90610aec9f9e9d9c9b9a999897969594939291610ae733610ae1610adb610ad67f0000000000000000000000000000000000000000000000000000000000000000610966565b610179565b91610179565b14610a67565b610b70565b90919293949596565b60081115610aff57565b6105f4565b90610b0e82610af5565b565b634e487b7160e01b5f52603260045260245ffd5b90610b2e82610371565b811015610b3f576020809102010190565b610b10565b90565b610b5b610b56610b6092610b44565b6107f8565b610222565b90565b610b6d9051610179565b90565b919395979e50919395979c509a99989a5050505050505080610b9a610b945f610b04565b91610b04565b145f14610bda575050610bc1610bbc610bcb96610bb65f610b47565b90610b24565b610b63565b93909192936133d9565b91939596909294959493929190565b80949194610bf1610beb6002610b04565b91610b04565b145f14610c175750610c0895949091929394612bfd565b91939596909294959493929190565b809150610c2d610c276003610b04565b91610b04565b145f14610c525750610c43949390919293612257565b91939596909294959493929190565b610c65610c5f6001610b04565b91610b04565b14610c86575f634a7f394f60e01b815280610c8260048201610701565b0390fd5b610c94949390919293611815565b91939596909294959493929190565b90610cef9897969594939291610cb76109cd565b610cbf6109d1565b610cc76109d6565b610ccf6109cd565b610cd76109db565b91610ce06109d1565b93610ce96109d6565b95610a90565b90919293949596565b5f90565b610d04610cf8565b507f000000000000000000000000000000000000000000000000000000000000000090565b90610d79939291610d7433610d6e610d68610d637f0000000000000000000000000000000000000000000000000000000000000000610966565b610179565b91610179565b14610a67565b610dfe565b565b5f80fd5b60e01b90565b5f910312610d8f57565b6100c8565b610d9d90610b47565b9052565b90959492610dec94610ddb610de592610dd1608096610dc760a088019c5f890190610579565b6020870190610364565b6040850190610364565b606083019061047f565b0190610d94565b565b610df66100c2565b3d5f823e3d90fd5b929192610e2a7f00000000000000000000000000000000000000000000000000000000000000006108df565b9063ade68e4d909294935f91833b15610eab57610e68610e5d935f97938894610e516100c2565b9a8b998a988997610d7f565b875260048701610da1565b03925af18015610ea657610e7a575b50565b610e99905f3d8111610e9f575b610e91818361010f565b810190610d85565b5f610e77565b503d610e87565b610dee565b610d7b565b90610ebc939291610d29565b565b5f90565b90610f12939291610f0d33610f07610f01610efc7f0000000000000000000000000000000000000000000000000000000000000000610966565b610179565b91610179565b14610a67565b61107d565b90565b90505190610f2282610225565b565b90602082820312610f3d57610f3a915f01610f15565b90565b6100c8565b604090610f6b610f729496959396610f6160608401985f850190610579565b6020830190610364565b0190610364565b565b610f7d81610777565b03610f8457565b5f80fd5b90505190610f9582610f74565b565b90602082820312610fb057610fad915f01610f88565b90565b6100c8565b916020610fd6929493610fcf60408201965f830190610364565b019061047f565b565b5f7f4e6f7420656e6f75676820746f6b656e7320666f72207769746864726177616c910152565b61100b602080926109df565b61101481610fd8565b0190565b61102d9060208101905f818303910152610fff565b90565b1561103757565b61103f6100c2565b62461bcd60e51b81528061105560048201611018565b0390fd5b611062906107fb565b90565b61106e90611059565b90565b61107a90610817565b90565b9291925060206110ac7f00000000000000000000000000000000000000000000000000000000000000006108df565b63fd932ecb92906110d15f87956110dc886110c56100c2565b98899788968795610d7f565b855260048501610f42565b03925af1908115611250575f91611222575b506111187f00000000000000000000000000000000000000000000000000000000000000006108df565b6020631072cbea91849061113f5f869561114a6111336100c2565b97889687958694610d7f565b845260048401610fb5565b03925af1801561121d5760209361116f61117492611179945f916111f0575b50611030565b611065565b611071565b61119c5f63a9059cbb9593956111a76111906100c2565b97889687958694610d7f565b845260048401610fb5565b03925af19081156111eb575f916111bd575b5090565b6111de915060203d81116111e4575b6111d6818361010f565b810190610f97565b5f6111b9565b503d6111cc565b610dee565b6112109150873d8111611216575b611208818361010f565b810190610f97565b5f611169565b503d6111fe565b610dee565b611243915060203d8111611249575b61123b818361010f565b810190610f24565b5f6110ee565b503d611231565b610dee565b906112689291611263610ebe565b610ec2565b90565b5f90565b61127761126b565b507f000000000000000000000000000000000000000000000000000000000000000090565b90565b6112b36112ae6112b89261129c565b6107f8565b610222565b90565b906112cd6112c88361014d565b610138565b918252565b369037565b906112fc6112e4836112bb565b926020806112f2869361014d565b92019103906112d2565b565b9061130890610179565b9052565b5f80fd5b5f80fd5b9050519061132182610185565b565b909291926113386113338261014d565b610138565b938185526020808601920283019281841161137557915b83831061135c5750505050565b6020809161136a8486611314565b81520192019161134f565b61016a565b9080601f830112156113985781602061139593519101611323565b90565b6100ed565b67ffffffffffffffff81116113b55760208091020190565b6100fb565b909291926113cf6113ca8261139d565b610138565b938185526020808601920283019281841161140c57915b8383106113f35750505050565b602080916114018486610f15565b8152019201916113e6565b61016a565b9080601f8301121561142f5781602061142c935191016113ba565b90565b6100ed565b91909160408184031261149e5761144b6040610138565b925f82015167ffffffffffffffff8111611499578161146b91840161137a565b5f850152602082015167ffffffffffffffff81116114945761148d9201611411565b6020830152565b611310565b611310565b61130c565b906020828203126114d3575f82015167ffffffffffffffff81116114ce576114cb9201611434565b90565b6100cc565b6100c8565b94939160609161151994611504611511936114fa60808b01945f8c0190610579565b60208a0190610364565b87820360408901526103a8565b94019061047f565b565b90611525826103f8565b811015611536576020809102010190565b610b10565b6115459051610222565b90565b61155190610817565b90565b9190611567905f60208501940190610364565b565b611572906107fb565b90565b61157e90611569565b90565b61158a90610817565b90565b91906115a0905f6020850194019061047f565b565b5f7f72656465656d206661696c656400000000000000000000000000000000000000910152565b6115d6600d6020926109df565b6115df816115a2565b0190565b6115f89060208101905f8183039101526115c9565b90565b1561160257565b61160a6100c2565b62461bcd60e51b815280611620600482016115e3565b0390fd5b61162d9061129f565b9052565b9095949261167c9461166b6116759261166160809661165760a088019c5f890190610579565b6020870190610364565b6040850190610364565b606083019061047f565b0190611624565b565b634e487b7160e01b5f52601160045260245ffd5b6116a16116a791939293610222565b92610222565b82039182116116b257565b61167e565b5f7f616d6f756e74206d6f7265207468616e20696e697469616c206465706f736974910152565b6116ea602080926109df565b6116f3816116b7565b0190565b61170c9060208101905f8183039101526116de565b90565b1561171657565b61171e6100c2565b62461bcd60e51b815280611734600482016116f7565b0390fd5b5f7f496e76616c696420746f6b656e20616d6f756e74000000000000000000000000910152565b61176c60146020926109df565b61177581611738565b0190565b61178e9060208101905f81830391015261175f565b90565b1561179857565b6117a06100c2565b62461bcd60e51b8152806117b660048201611779565b0390fd5b730f8f2f0fe32d8bdececc2ea966cd30b155f62b6d90565b906117e46117df8361139d565b610138565b918252565b369037565b906118136117fb836117d2565b92602080611809869361139d565b92019103906117e9565b565b929190936118216109cd565b5061182a6109d1565b506118336109d6565b5061183c6109cd565b506118456109db565b5061184e6109d1565b506118576109d6565b506118817f00000000000000000000000000000000000000000000000000000000000000006108df565b602063fd932ecb9184906118c35f88956118ce6118af6118aa8d6118a486610b47565b90610b24565b610b63565b6118b76100c2565b98899788968795610d7f565b855260048501610f42565b03925af1908115611e92575f91611e64575b50905f6118f56118f0600161129f565b6112d7565b916119128861190d8561190786610b47565b90610b24565b6112fe565b61193b7f00000000000000000000000000000000000000000000000000000000000000006108df565b61195e6340a515ec61196988948a976119526100c2565b98899788968796610d7f565b8652600486016114d8565b03915afa8015611e5f5760206119969161199b935f91611e3d575b5001516119905f610b47565b9061151b565b61153b565b936119e460206119b26119ad89611065565b611071565b6370a08231906119d96119c430611548565b926119cd6100c2565b95869485938493610d7f565b835260048301611554565b03915afa908115611e38575f91611e0a575b5091611a23611a1e611a19611a1485611a0e5f610b47565b90610b24565b610b63565b611065565b611071565b602063095ea7b391611a46611a4186611a3b5f610b47565b90610b24565b610b63565b90611a645f8695611a6f611a586100c2565b97889687958694610d7f565b845260048401610fb5565b03925af18015611e0557611dd9575b50611ada6020611aaf611aaa611aa5611aa087611a9a5f610b47565b90610b24565b610b63565b611575565b611581565b63db006a7590611acf5f8693611ac36100c2565b96879586948593610d7f565b83526004830161158d565b03925af18015611dd457611b08915f91611da6575b50611b02611afc5f610b47565b91610222565b146115fb565b611b317f00000000000000000000000000000000000000000000000000000000000000006108df565b63ade68e4d908591611b55611b508996611b4a5f610b47565b90610b24565b610b63565b93600191833b15611da157611b8b611b80935f97938894611b746100c2565b9a8b998a988997610d7f565b875260048701611631565b03925af18015611d9c57611d70575b50611be36020611bb1611bac88611065565b611071565b6370a0823190611bd8611bc330611548565b92611bcc6100c2565b95869485938493610d7f565b835260048301611554565b03915afa8015611d6b57611c1e92611c03925f92611d3b575b5090611692565b93611c17611c118692610222565b91610222565b111561170f565b611c31611c2c8585906139fa565b611791565b611c5a7f00000000000000000000000000000000000000000000000000000000000000006108df565b9163ade68e4d9190928592855f91833b15611d3657611c9a611c8f935f97938894611c836100c2565b9a8b998a988997610d7f565b875260048701610da1565b03925af18015611d3157611d05575b50611cb26117ba565b611cc3611cbe5f610b47565b6112d7565b93611cd5611cd05f610b47565b6117ee565b939291611ce9611ce45f610b47565b6112d7565b91611cfb611cf65f610b47565b6117ee565b9196959493929190565b611d24905f3d8111611d2a575b611d1c818361010f565b810190610d85565b5f611ca9565b503d611d12565b610dee565b610d7b565b611d5d91925060203d8111611d64575b611d55818361010f565b810190610f24565b905f611bfc565b503d611d4b565b610dee565b611d8f905f3d8111611d95575b611d87818361010f565b810190610d85565b5f611b9a565b503d611d7d565b610dee565b610d7b565b611dc7915060203d8111611dcd575b611dbf818361010f565b810190610f24565b5f611aef565b503d611db5565b610dee565b611df99060203d8111611dfe575b611df1818361010f565b810190610f97565b611a7e565b503d611de7565b610dee565b611e2b915060203d8111611e31575b611e23818361010f565b810190610f24565b5f6119f6565b503d611e19565b610dee565b611e5991503d805f833e611e51818361010f565b8101906114a3565b5f611984565b610dee565b611e85915060203d8111611e8b575b611e7d818361010f565b810190610f24565b5f6118e0565b503d611e73565b610dee565b91909160a081840312611f3757611eae60a0610138565b92611ebb815f8401611314565b5f850152611ecc8160208401611314565b6020850152611ede8160408401610f15565b6040850152606082015167ffffffffffffffff8111611f325781611f0391840161137a565b6060850152608082015167ffffffffffffffff8111611f2d57611f269201611411565b6080830152565b611310565b611310565b61130c565b90602082820312611f6c575f82015167ffffffffffffffff8111611f6757611f649201611e97565b90565b6100cc565b6100c8565b90959492611fbc94611fab611fb592611fa1608096611f9760a088019c5f890190610579565b6020870190610364565b6040850190610364565b6060830190610364565b019061047f565b565b60207f616e636500000000000000000000000000000000000000000000000000000000917f626f72726f7720616d6f756e74206c657373207468616e20757365722062616c5f8201520152565b61201860246040926109df565b61202181611fbe565b0190565b61203a9060208101905f81830391015261200b565b90565b1561204457565b61204c6100c2565b62461bcd60e51b81528061206260048201612025565b0390fd5b5f7f6e6f7420656e6f75676820626f72726f77656420746f6b656e00000000000000910152565b61209a60196020926109df565b6120a381612066565b0190565b6120bc9060208101905f81830391015261208d565b90565b156120c657565b6120ce6100c2565b62461bcd60e51b8152806120e4600482016120a7565b0390fd5b90565b6120ff6120fa612104926120e8565b6107f8565b610222565b90565b5f7f726570617920626f72726f77206661696c656400000000000000000000000000910152565b61213b60136020926109df565b61214481612107565b0190565b61215d9060208101905f81830391015261212e565b90565b1561216757565b61216f6100c2565b62461bcd60e51b81528061218560048201612148565b0390fd5b612192906107fb565b90565b61219e90612189565b90565b6121aa90610817565b90565b5f7f65786974206d61726b6574206661696c65640000000000000000000000000000910152565b6121e160126020926109df565b6121ea816121ad565b0190565b6122039060208101905f8183039101526121d4565b90565b1561220d57565b6122156100c2565b62461bcd60e51b81528061222b600482016121ee565b0390fd5b61224361223e61224892610b44565b6107f8565b61016e565b90565b6122549061222f565b90565b92919390506122646109cd565b5061226d6109d1565b506122766109d6565b5061227f6109cd565b506122886109db565b506122916109d1565b5061229a6109d6565b505f6122c57f00000000000000000000000000000000000000000000000000000000000000006108df565b639a1b125c9061230f879261231a87966122dd6117ba565b906122f96122f48c6122ee8b610b47565b90610b24565b610b63565b90916123036100c2565b998a9889978897610d7f565b875260048701611f71565b03915afa90811561294a5761233a916040915f91612928575b500161153b565b926123647f00000000000000000000000000000000000000000000000000000000000000006108df565b602063fd932ecb9183906123a65f87956123b161239261238d8c61238786610b47565b90610b24565b610b63565b61239a6100c2565b98899788968795610d7f565b855260048501610f42565b03925af1908115612923575f916128f5575b506123ed7f00000000000000000000000000000000000000000000000000000000000000006108df565b90602063fd932ecb9284906124305f889661243b61241c6124178d61241186610b47565b90610b24565b610b63565b6124246100c2565b998a9788968795610d7f565b855260048501610f42565b03925af19182156128f05761247d926128c4575b5061247661247061246a88612464600161129f565b90611692565b92610222565b91610222565b111561203d565b6124a67f00000000000000000000000000000000000000000000000000000000000000006108df565b9163ade68e4d9190926124ca6124c5866124bf5f610b47565b90610b24565b610b63565b926124df876124d9600161129f565b90611692565b600191833b156128bf57612514612509935f979388946124fd6100c2565b9a8b998a988997610d7f565b875260048701611631565b03925af180156128ba5761288e575b5061254d7f00000000000000000000000000000000000000000000000000000000000000006108df565b6020631072cbea9161257061256b856125655f610b47565b90610b24565b610b63565b9061258e5f87956125996125826100c2565b97889687958694610d7f565b845260048401610fb5565b03925af18015612889576125b4915f9161285b575b506120bf565b6125df6125da6125d56125d0846125ca5f610b47565b90610b24565b610b63565b611065565b611071565b91602063095ea7b3936126046125ff856125f960026120eb565b90610b24565b610b63565b906126225f859761262d6126166100c2565b998a9687958694610d7f565b845260048401610fb5565b03925af1908115612856576126999360209261282b575b5061267161266c6126676126628661265c60026120eb565b90610b24565b610b63565b611575565b611581565b61268e5f630e7527026126826100c2565b97889586948593610d7f565b83526004830161158d565b03925af1908115612826576126ce60209261272b945f916127f9575b506126c86126c25f610b47565b91610222565b14612160565b6126e66126e16126dc6117ba565b612195565b6121a1565b6127205f61270b61270663ede4edd095612700600161129f565b90610b24565b610b63565b936127146100c2565b96879586948593610d7f565b835260048301611554565b03925af180156127f457612759915f916127c6575b5061275361274d5f610b47565b91610222565b14612206565b6127616117ba565b61277261276d5f610b47565b6112d7565b9161278461277f5f610b47565b6117ee565b9161278e5f61224b565b915f916127a261279d5f610b47565b6112d7565b916127c16127b76127b25f610b47565b6117ee565b9297969594610b47565b929190565b6127e7915060203d81116127ed575b6127df818361010f565b810190610f24565b5f612740565b503d6127d5565b610dee565b6128199150843d811161281f575b612811818361010f565b810190610f24565b5f6126b5565b503d612807565b610dee565b61284a90833d811161284f575b612842818361010f565b810190610f97565b612644565b503d612838565b610dee565b61287c915060203d8111612882575b612874818361010f565b810190610f97565b5f6125ae565b503d61286a565b610dee565b6128ad905f3d81116128b3575b6128a5818361010f565b810190610d85565b5f612523565b503d61289b565b610dee565b610d7b565b6128e49060203d81116128e9575b6128dc818361010f565b810190610f24565b61244f565b503d6128d2565b610dee565b612916915060203d811161291c575b61290e818361010f565b810190610f24565b5f6123c3565b503d612904565b610dee565b61294491503d805f833e61293c818361010f565b810190611f3c565b5f612333565b610dee565b61295e61296491939293610222565b92610222565b91612970838202610222565b92818404149015171561297f57565b61167e565b90565b61299b6129966129a092612984565b6107f8565b610222565b90565b634e487b7160e01b5f52601260045260245ffd5b6129c36129c991610222565b91610222565b9081156129d4570490565b6129a3565b5f7f4e6f7420656e6f7567682062616c616e63650000000000000000000000000000910152565b612a0d60126020926109df565b612a16816129d9565b0190565b612a2f9060208101905f818303910152612a00565b90565b15612a3957565b612a416100c2565b62461bcd60e51b815280612a5760048201612a1a565b0390fd5b90602082820312612a8b575f82015167ffffffffffffffff8111612a8657612a839201611411565b90565b6100cc565b6100c8565b612aa59160208201915f8184039101526103a8565b90565b60ff1690565b612ab781612aa8565b03612abe57565b5f80fd5b90505190612acf82612aae565b565b90602082820312612aea57612ae7915f01612ac2565b90565b6100c8565b90565b612b06612b01612b0b92612aef565b6107f8565b612aa8565b90565b612b1a612b2091612aa8565b91612aa8565b90039060ff8211612b2d57565b61167e565b612b3b90612aa8565b604d8111612b4957600a0a90565b61167e565b90565b612b65612b60612b6a92612b4e565b6107f8565b610222565b90565b5f7f626f72726f77206661696c656400000000000000000000000000000000000000910152565b612ba1600d6020926109df565b612baa81612b6d565b0190565b612bc39060208101905f818303910152612b94565b90565b15612bcd57565b612bd56100c2565b62461bcd60e51b815280612beb60048201612bae565b0390fd5b90612bf990610222565b9052565b92919593909450612c0c6109cd565b50612c156109d1565b50612c1e6109d6565b50612c276109cd565b50612c306109db565b50612c396109d1565b50612c426109d6565b50612c6c7f00000000000000000000000000000000000000000000000000000000000000006108df565b602063fd932ecb918490612caf5f8695612cba612c9b612c968c612c90600161129f565b90610b24565b610b63565b612ca36100c2565b98899788968795610d7f565b855260048501610f42565b03925af19081156132d0575f916132a2575b509586612d166020612d00612cfb612cf6612cf18a612ceb600161129f565b90610b24565b610b63565b611575565b611581565b63bd6d894d90612d0e6100c2565b938492610d7f565b8252815f81612d2760048201610701565b03925af1801561329d57612d5d92612d46925f9261326d575b5061294f565b612d57670de0b6b3a7640000612987565b906129b7565b612d7988612d73612d6d5f610b47565b91610222565b11612a32565b612e065f612d8f612d8a600161129f565b6112d7565b612dc6612dae612da98a612da3600161129f565b90610b24565b610b63565b612dc183612dbb86610b47565b90610b24565b6112fe565b612dde612dd9612dd46117ba565b612195565b6121a1565b612dfb8363c2998238612def6100c2565b96879586948593610d7f565b835260048301612a90565b03925af1801561326857613248575b50612e6b612e3e612e37612e3288612e2c5f610b47565b90610b24565b610b63565b8990613b40565b916012926020612e55612e508c611065565b611071565b63313ce56790612e636100c2565b958692610d7f565b82528180612e7b60048201610701565b03915afa90811561324357612eb3612eae612eb993612f0397612ebf975f9261320f575b50612ea990612af2565b612b0e565b612b32565b906129b7565b9061294f565b916020612eed612ee8612ee3612ede8a612ed85f610b47565b90610b24565b610b63565b611065565b611071565b63313ce56790612efb6100c2565b948592610d7f565b82528180612f1360048201610701565b03915afa801561320a57612f5593612f39612f3f92612f44955f916131dc575b50612b32565b906129b7565b61294f565b612f4f612710612b51565b906129b7565b93612fb26020612f87612f82612f7d612f7889612f7260026120eb565b90610b24565b610b63565b611575565b611581565b63c5ebeaec90612fa75f8a93612f9b6100c2565b96879586948593610d7f565b83526004830161158d565b03925af180156131d757612fe0915f916131a9575b50612fda612fd45f610b47565b91610222565b14612bc6565b612ff2612fed600161129f565b6112d7565b9161302a61301261300d87613007600161129f565b90610b24565b610b63565b6130258561301f5f610b47565b90610b24565b6112fe565b61305861303f61303a600161129f565b6117ee565b986130538a61304d5f610b47565b9061151b565b612bef565b6130a061308861308361307361306e600161129f565b6112d7565b9761307d5f610b47565b90610b24565b610b63565b61309b876130955f610b47565b90610b24565b6112fe565b6130b26130ad600161129f565b6117ee565b936130cf876130ca876130c45f610b47565b9061151b565b612bef565b6130e26130dd8989906139fa565b611791565b61310b7f00000000000000000000000000000000000000000000000000000000000000006108df565b9163ade68e4d9190928992895f91833b156131a45761314b613140935f979388946131346100c2565b9a8b998a988997610d7f565b875260048701610da1565b03925af1801561319f57613173575b506131636117ba565b9196959493929196959493929190565b613192905f3d8111613198575b61318a818361010f565b810190610d85565b5f61315a565b503d613180565b610dee565b610d7b565b6131ca915060203d81116131d0575b6131c2818361010f565b810190610f24565b5f612fc7565b503d6131b8565b610dee565b6131fd915060203d8111613203575b6131f5818361010f565b810190612ad1565b5f612f33565b503d6131eb565b610dee565b612ea99192506132359060203d811161323c575b61322d818361010f565b810190612ad1565b9190612e9f565b503d613223565b610dee565b613263903d805f833e61325b818361010f565b810190612a5b565b612e15565b610dee565b61328f91925060203d8111613296575b613287818361010f565b810190610f24565b905f612d40565b503d61327d565b610dee565b6132c3915060203d81116132c9575b6132bb818361010f565b810190610f24565b5f612ccc565b503d6132b1565b610dee565b5f7f4e6f7420656e6f75676820746f6b656e00000000000000000000000000000000910152565b61330960106020926109df565b613312816132d5565b0190565b61332b9060208101905f8183039101526132fc565b90565b1561333557565b61333d6100c2565b62461bcd60e51b81528061335360048201613316565b0390fd5b5f7f6d696e74206661696c6564000000000000000000000000000000000000000000910152565b61338b600b6020926109df565b61339481613357565b0190565b6133ad9060208101905f81830391015261337e565b90565b156133b757565b6133bf6100c2565b62461bcd60e51b8152806133d560048201613398565b0390fd5b91929093946133e66109cd565b506133ef6109d1565b506133f86109d6565b506134016109cd565b5061340a6109db565b506134136109d1565b5061341c6109d6565b506134467f00000000000000000000000000000000000000000000000000000000000000006108df565b602063fd932ecb91869061346e5f87956134798a6134626100c2565b98899788968795610d7f565b855260048501610f42565b03925af19081156139f5576134c8916134b7915f916139c7575b50976134b1896134ab6134a55f610b47565b91610222565b11612a32565b8861294f565b6134c2612710612b51565b906129b7565b916134f27f00000000000000000000000000000000000000000000000000000000000000006108df565b6020631072cbea9186906135195f889561352461350d6100c2565b97889687958694610d7f565b845260048401610fb5565b03925af180156139c25761353f915f91613994575b5061332e565b6135687f00000000000000000000000000000000000000000000000000000000000000006108df565b63ade68e4d868392879287600191833b1561398f576135a861359d935f979388946135916100c2565b9a8b998a988997610d7f565b875260048701611631565b03925af1801561398a5761395e575b5061360060206135ce6135c989611065565b611071565b6370a08231906135f56135e030611548565b926135e96100c2565b95869485938493610d7f565b835260048301611554565b03915afa908115613959575f9161392b575b5061362461361f86611065565b611071565b90602063095ea7b392899061364c5f89966136576136406100c2565b98899687958694610d7f565b845260048401610fb5565b03925af1918215613926576136aa926138fa575b50602061367f61367a8a611575565b611581565b63a0712d689061369f5f89936136936100c2565b97889586948593610d7f565b83526004830161158d565b03925af19182156138f557613722926136dd915f916138c7575b506136d76136d15f610b47565b91610222565b146133b0565b60206136f06136eb8a611065565b611071565b6370a082319061371761370230611548565b9261370b6100c2565b96879485938493610d7f565b835260048301611554565b03915afa9081156138c25761373f925f92613892575b5090611692565b9461376e613755613750600161129f565b6117ee565b986137698a6137635f610b47565b9061151b565b612bef565b61379c61378361377e600161129f565b6112d7565b95613797876137915f610b47565b90610b24565b6112fe565b6137ca6137b16137ac600161129f565b6117ee565b946137c5866137bf5f610b47565b9061151b565b612bef565b6137f37f00000000000000000000000000000000000000000000000000000000000000006108df565b9163ade68e4d9190928892885f91833b1561388d57613833613828935f9793889461381c6100c2565b9a8b998a988997610d7f565b875260048701610da1565b03925af180156138885761385c575b5061384b6117ba565b908396959493929196959493929190565b61387b905f3d8111613881575b613873818361010f565b810190610d85565b5f613842565b503d613869565b610dee565b610d7b565b6138b491925060203d81116138bb575b6138ac818361010f565b810190610f24565b905f613738565b503d6138a2565b610dee565b6138e8915060203d81116138ee575b6138e0818361010f565b810190610f24565b5f6136c4565b503d6138d6565b610dee565b61391a9060203d811161391f575b613912818361010f565b810190610f97565b61366b565b503d613908565b610dee565b61394c915060203d8111613952575b613944818361010f565b810190610f24565b5f613612565b503d61393a565b610dee565b61397d905f3d8111613983575b613975818361010f565b810190610d85565b5f6135b7565b503d61396b565b610dee565b610d7b565b6139b5915060203d81116139bb575b6139ad818361010f565b810190610f97565b5f613539565b503d6139a3565b610dee565b6139e8915060203d81116139ee575b6139e0818361010f565b810190610f24565b5f613493565b503d6139d6565b610dee565b613a16613a11602092613a0b610ebe565b50611065565b611071565b9163a9059cbb92613a635f613a4a7f00000000000000000000000000000000000000000000000000000000000000006108df565b9395613a6e613a576100c2565b97889687958694610d7f565b845260048401610fb5565b03925af1908115613ab2575f91613a84575b5090565b613aa5915060203d8111613aab575b613a9d818361010f565b810190610f97565b5f613a80565b503d613a93565b610dee565b90565b613ace613ac9613ad392613ab7565b6107f8565b610222565b90565b90565b613aed613ae8613af292613ad6565b6107f8565b612aa8565b90565b613afe90613ad9565b9052565b613b37613b3e94613b2d606094989795613b23608086019a5f87019061047f565b6020850190613af5565b604083019061047f565b0190613af5565b565b602091613b5591613b4f6109db565b50613e0a565b9190613b807f0000000000000000000000000000000000000000000000000000000000000000610823565b613bb7613b91639d61e0c393613aba565b92613bc2613ba0600897613aba565b600890613bab6100c2565b98899788968796610d7f565b865260048601613b02565b03915afa908115613c06575f91613bd8575b5090565b613bf9915060203d8111613bff575b613bf1818361010f565b810190610f24565b5f613bd4565b503d613be7565b610dee565b5f90565b6006602160991b0190565b90565b6affffffffffffffffffffff191690565b60581b90565b613c48613c43613c4d92613c1a565b613c2e565b613c1d565b90565b613c63665193148bd554d1606a1b613c34565b90565b613c6f81613ab7565b03613c7657565b5f80fd5b90505190613c8782613c66565b565b90602082820312613ca257613c9f915f01613c7a565b90565b6100c8565b613cb090613c1d565b9052565b9190613cc7905f60208501940190613ca7565b565b73cbb7c0000ab88b473b1f5afd9ef808440eed33bf90565b90565b613cf8613cf3613cfd92613ce1565b613c2e565b613c1d565b90565b613d1366509510cbd554d1606a1b613ce4565b90565b6006602160991b0190565b90565b613d38613d33613d3d92613d21565b613c2e565b613c1d565b90565b613d53665155120bd554d1606a1b613d24565b90565b73833589fcd6edb6e08f4c7c32d4f71b54bda0291390565b90565b613d85613d80613d8a92613d6e565b613c2e565b613c1d565b90565b613da1675554d110cbd554d160621b613d71565b90565b73833589fcd6edb6e08f4c7c32d4f71b54bda0291390565b90565b613dd3613dce613dd892613dbc565b613c2e565b613c1d565b90565b613def675554d1150bd554d160621b613dbf565b90565b73833589fcd6edb6e08f4c7c32d4f71b54bda0291390565b9190613e14613c0b565b50613e1d613c0b565b50613e26613c0b565b90613e2f613c0b565b9380613e4a613e44613e3f613c0f565b610179565b91610179565b14614721575b80613e6a613e64613e5f613cc9565b610179565b91610179565b14614674575b80613e8a613e84613e7f613d16565b610179565b91610179565b146145c7575b80613eaa613ea4613e9f613d56565b610179565b91610179565b1461451a575b80613eca613ec4613ebf613da4565b610179565b91610179565b1461446d575b613ee9613ee3613ede613df2565b610179565b91610179565b146143c0575b80613f09613f03613efe613c0f565b610179565b91610179565b14614313575b80613f29613f23613f1e613cc9565b610179565b91610179565b14614266575b80613f49613f43613f3e613d16565b610179565b91610179565b146141b9575b80613f69613f63613f5e613d56565b610179565b91610179565b1461410c575b80613f89613f83613f7e613da4565b610179565b91610179565b1461405f575b613fa8613fa2613f9d613df2565b610179565b91610179565b14613fb2575b9190565b91506140136020613fe27f0000000000000000000000000000000000000000000000000000000000000000610823565b63765bc54390614008613ff3613ddb565b92613ffc6100c2565b95869485938493610d7f565b835260048301613cb4565b03915afa90811561405a575f9161402c575b5091613fae565b61404d915060203d8111614053575b614045818361010f565b810190613c89565b5f614025565b503d61403b565b610dee565b92506140c0602061408f7f0000000000000000000000000000000000000000000000000000000000000000610823565b63765bc543906140b56140a0613ddb565b926140a96100c2565b95869485938493610d7f565b835260048301613cb4565b03915afa908115614107575f916140d9575b5092613f8f565b6140fa915060203d8111614100575b6140f2818361010f565b810190613c89565b5f6140d2565b503d6140e8565b610dee565b925061416d602061413c7f0000000000000000000000000000000000000000000000000000000000000000610823565b63765bc5439061416261414d613d8d565b926141566100c2565b95869485938493610d7f565b835260048301613cb4565b03915afa9081156141b4575f91614186575b5092613f6f565b6141a7915060203d81116141ad575b61419f818361010f565b810190613c89565b5f61417f565b503d614195565b610dee565b925061421a60206141e97f0000000000000000000000000000000000000000000000000000000000000000610823565b63765bc5439061420f6141fa613d40565b926142036100c2565b95869485938493610d7f565b835260048301613cb4565b03915afa908115614261575f91614233575b5092613f4f565b614254915060203d811161425a575b61424c818361010f565b810190613c89565b5f61422c565b503d614242565b610dee565b92506142c760206142967f0000000000000000000000000000000000000000000000000000000000000000610823565b63765bc543906142bc6142a7613d00565b926142b06100c2565b95869485938493610d7f565b835260048301613cb4565b03915afa90811561430e575f916142e0575b5092613f2f565b614301915060203d8111614307575b6142f9818361010f565b810190613c89565b5f6142d9565b503d6142ef565b610dee565b925061437460206143437f0000000000000000000000000000000000000000000000000000000000000000610823565b63765bc54390614369614354613c50565b9261435d6100c2565b95869485938493610d7f565b835260048301613cb4565b03915afa9081156143bb575f9161438d575b5092613f0f565b6143ae915060203d81116143b4575b6143a6818361010f565b810190613c89565b5f614386565b503d61439c565b610dee565b905061442160206143f07f0000000000000000000000000000000000000000000000000000000000000000610823565b63765bc54390614416614401613ddb565b9261440a6100c2565b95869485938493610d7f565b835260048301613cb4565b03915afa908115614468575f9161443a575b5090613eef565b61445b915060203d8111614461575b614453818361010f565b810190613c89565b5f614433565b503d614449565b610dee565b91506144ce602061449d7f0000000000000000000000000000000000000000000000000000000000000000610823565b63765bc543906144c36144ae613ddb565b926144b76100c2565b95869485938493610d7f565b835260048301613cb4565b03915afa908115614515575f916144e7575b5091613ed0565b614508915060203d811161450e575b614500818361010f565b810190613c89565b5f6144e0565b503d6144f6565b610dee565b915061457b602061454a7f0000000000000000000000000000000000000000000000000000000000000000610823565b63765bc5439061457061455b613d8d565b926145646100c2565b95869485938493610d7f565b835260048301613cb4565b03915afa9081156145c2575f91614594575b5091613eb0565b6145b5915060203d81116145bb575b6145ad818361010f565b810190613c89565b5f61458d565b503d6145a3565b610dee565b915061462860206145f77f0000000000000000000000000000000000000000000000000000000000000000610823565b63765bc5439061461d614608613d40565b926146116100c2565b95869485938493610d7f565b835260048301613cb4565b03915afa90811561466f575f91614641575b5091613e90565b614662915060203d8111614668575b61465a818361010f565b810190613c89565b5f61463a565b503d614650565b610dee565b91506146d560206146a47f0000000000000000000000000000000000000000000000000000000000000000610823565b63765bc543906146ca6146b5613d00565b926146be6100c2565b95869485938493610d7f565b835260048301613cb4565b03915afa90811561471c575f916146ee575b5091613e70565b61470f915060203d8111614715575b614707818361010f565b810190613c89565b5f6146e7565b503d6146fd565b610dee565b915061478260206147517f0000000000000000000000000000000000000000000000000000000000000000610823565b63765bc54390614777614762613c50565b9261476b6100c2565b95869485938493610d7f565b835260048301613cb4565b03915afa9081156147c9575f9161479b575b5091613e50565b6147bc915060203d81116147c2575b6147b4818361010f565b810190613c89565b5f614794565b503d6147aa565b610dee56fea26469706673582212204fccc6a88d6a688e203605bd72d71e9ecd8fb9126e5cd70129cd80fc296d6c4964736f6c634300081c0033",
    "linkReferences": {}
  },
  "methodIdentifiers": {
    "connectorName()": "607985fc",
    "connectorType()": "6370cc02",
    "engine()": "c9d4623f",
    "execute(uint8,address[],address,uint256,uint256,bytes32,address,bytes)": "23aa883c",
    "getConnectorName()": "6c033086",
    "getConnectorType()": "87b4effd",
    "initialTokenBalanceUpdate(bytes32,address,address,uint256)": "701ad7a6",
    "oracle()": "7dc0d1d0",
    "strategyModule()": "8aec2834",
    "withdrawAsset(bytes32,address,address)": "72f78e1d"
  },
  "id": 131
}