{
  "abi": [
    {
      "type": "constructor",
      "inputs": [
        {
          "name": "_name",
          "type": "string",
          "internalType": "string"
        },
        {
          "name": "_type",
          "type": "uint8",
          "internalType": "enum IConnector.ConnectorType"
        },
        {
          "name": "_strategy",
          "type": "address",
          "internalType": "address"
        },
        {
          "name": "_engine",
          "type": "address",
          "internalType": "address"
        },
        {
          "name": "_oracle",
          "type": "address",
          "internalType": "address"
        },
        {
          "name": "_router",
          "type": "address",
          "internalType": "address"
        }
      ],
      "stateMutability": "nonpayable"
    },
    {
      "type": "function",
      "name": "connectorName",
      "inputs": [],
      "outputs": [
        {
          "name": "",
          "type": "bytes32",
          "internalType": "bytes32"
        }
      ],
      "stateMutability": "view"
    },
    {
      "type": "function",
      "name": "connectorType",
      "inputs": [],
      "outputs": [
        {
          "name": "",
          "type": "uint8",
          "internalType": "enum IConnector.ConnectorType"
        }
      ],
      "stateMutability": "view"
    },
    {
      "type": "function",
      "name": "engine",
      "inputs": [],
      "outputs": [
        {
          "name": "",
          "type": "address",
          "internalType": "contract IEngine"
        }
      ],
      "stateMutability": "view"
    },
    {
      "type": "function",
      "name": "execute",
      "inputs": [
        {
          "name": "actionType",
          "type": "uint8",
          "internalType": "enum IConnector.ActionType"
        },
        {
          "name": "assetsIn",
          "type": "address[]",
          "internalType": "address[]"
        },
        {
          "name": "assetOut",
          "type": "address",
          "internalType": "address"
        },
        {
          "name": "stepIndex",
          "type": "uint256",
          "internalType": "uint256"
        },
        {
          "name": "amountRatio",
          "type": "uint256",
          "internalType": "uint256"
        },
        {
          "name": "strategyId",
          "type": "bytes32",
          "internalType": "bytes32"
        },
        {
          "name": "userAddress",
          "type": "address",
          "internalType": "address"
        },
        {
          "name": "data",
          "type": "bytes",
          "internalType": "bytes"
        }
      ],
      "outputs": [
        {
          "name": "protocol",
          "type": "address",
          "internalType": "address"
        },
        {
          "name": "assets",
          "type": "address[]",
          "internalType": "address[]"
        },
        {
          "name": "assetsAmount",
          "type": "uint256[]",
          "internalType": "uint256[]"
        },
        {
          "name": "shareToken",
          "type": "address",
          "internalType": "address"
        },
        {
          "name": "shareAmount",
          "type": "uint256",
          "internalType": "uint256"
        },
        {
          "name": "underlyingTokens",
          "type": "address[]",
          "internalType": "address[]"
        },
        {
          "name": "underlyingAmounts",
          "type": "uint256[]",
          "internalType": "uint256[]"
        }
      ],
      "stateMutability": "payable"
    },
    {
      "type": "function",
      "name": "getConnectorName",
      "inputs": [],
      "outputs": [
        {
          "name": "",
          "type": "bytes32",
          "internalType": "bytes32"
        }
      ],
      "stateMutability": "view"
    },
    {
      "type": "function",
      "name": "getConnectorType",
      "inputs": [],
      "outputs": [
        {
          "name": "",
          "type": "uint8",
          "internalType": "enum IConnector.ConnectorType"
        }
      ],
      "stateMutability": "view"
    },
    {
      "type": "function",
      "name": "initialTokenBalanceUpdate",
      "inputs": [
        {
          "name": "strategyId",
          "type": "bytes32",
          "internalType": "bytes32"
        },
        {
          "name": "userAddress",
          "type": "address",
          "internalType": "address"
        },
        {
          "name": "token",
          "type": "address",
          "internalType": "address"
        },
        {
          "name": "amount",
          "type": "uint256",
          "internalType": "uint256"
        }
      ],
      "outputs": [],
      "stateMutability": "nonpayable"
    },
    {
      "type": "function",
      "name": "oracle",
      "inputs": [],
      "outputs": [
        {
          "name": "",
          "type": "address",
          "internalType": "contract IOracle"
        }
      ],
      "stateMutability": "view"
    },
    {
      "type": "function",
      "name": "router",
      "inputs": [],
      "outputs": [
        {
          "name": "",
          "type": "address",
          "internalType": "contract ISparkDexV3Router"
        }
      ],
      "stateMutability": "view"
    },
    {
      "type": "function",
      "name": "strategyModule",
      "inputs": [],
      "outputs": [
        {
          "name": "",
          "type": "address",
          "internalType": "contract IFluidStrategy"
        }
      ],
      "stateMutability": "view"
    },
    {
      "type": "function",
      "name": "withdrawAsset",
      "inputs": [
        {
          "name": "_strategyId",
          "type": "bytes32",
          "internalType": "bytes32"
        },
        {
          "name": "_user",
          "type": "address",
          "internalType": "address"
        },
        {
          "name": "_token",
          "type": "address",
          "internalType": "address"
        }
      ],
      "outputs": [
        {
          "name": "",
          "type": "bool",
          "internalType": "bool"
        }
      ],
      "stateMutability": "nonpayable"
    },
    {
      "type": "error",
      "name": "InsufficientAmountIn",
      "inputs": []
    },
    {
      "type": "error",
      "name": "InvalidAction",
      "inputs": []
    }
  ],
  "bytecode": {
    "object": "0x6101406040523461014f5761002161001561031e565b9493909392919261037b565b610029610154565b613d2f61043c82396080518181816105670152610cea015260a0518181816105e2015261127c015260c0518181816108cd01528181610e080152818161108a015281816110f601528181611b0101528181611ba701528181611c1d01528181611f16015281816123ca015281816124940152818161250a01528181612765015281816127dd015281816130dd0152818161314d015281816132160152818161328c015281816133020152818161337c015281816135cd015281816137d7015281816138a00152613c68015260e05181818161095401528181610b4901528181610d220152610eda015261010051816107e60152610120518181816109db015281816115cf015281816116bc0152818161172e0152818161187a01526119100152613d2f90f35b61015a565b60405190565b5f80fd5b601f801991011690565b634e487b7160e01b5f52604160045260245ffd5b906101869061015e565b810190811060018060401b0382111761019e57604052565b610168565b906101b66101af610154565b928361017c565b565b5f80fd5b5f80fd5b5f80fd5b5f80fd5b60018060401b0381116101e4576101e060209161015e565b0190565b610168565b90825f9392825e0152565b90929192610209610204826101c8565b6101a3565b9381855260208501908284011161022557610223926101e9565b565b6101c4565b9080601f8301121561024857816020610245935191016101f4565b90565b6101c0565b6003111561025757565b5f80fd5b905051906102688261024d565b565b60018060a01b031690565b61027e9061026a565b90565b61028a81610275565b0361029157565b5f80fd5b905051906102a282610281565b565b909160c082840312610319575f82015160018060401b03811161031457836102cd91840161022a565b926102db816020850161025b565b926102e98260408301610295565b926103116102fa8460608501610295565b936103088160808601610295565b9360a001610295565b90565b6101bc565b6101b8565b61033c61416b80380380610331816101a3565b9283398101906102a4565b909192939495565b90565b61035b6103566103609261026a565b610344565b61026a565b90565b61036c90610347565b90565b61037890610363565b90565b92610396959491926103919493909192936103f1565b61036f565b61012052565b90565b60200190565b5190565b6103b290610347565b90565b6103be906103a9565b90565b6103ca90610347565b90565b6103d6906103c1565b90565b6103e290610347565b90565b6103ee906103d9565b90565b61042d926104359594926104076104259361039c565b610419610413826103a5565b9161039f565b2060805260a0526103b5565b60c0526103cd565b60e0526103e5565b6101005256fe60806040526004361015610013575b610a60565b61001d5f356100cc565b806323aa883c146100c7578063607985fc146100c25780636370cc02146100bd5780636c033086146100b8578063701ad7a6146100b357806372f78e1d146100ae5780637dc0d1d0146100a957806387b4effd146100a45780638aec28341461009f578063c9d4623f1461009a5763f887ea400361000e57610a2b565b6109a4565b61091d565b610896565b610861565b6107ae565b610716565b610696565b610661565b6105ab565b610516565b60e01c90565b60405190565b5f80fd5b5f80fd5b600811156100ea57565b5f80fd5b905035906100fb826100e0565b565b5f80fd5b601f801991011690565b634e487b7160e01b5f52604160045260245ffd5b9061012990610101565b810190811067ffffffffffffffff82111761014357604052565b61010b565b9061015b6101546100d2565b928361011f565b565b67ffffffffffffffff81116101755760208091020190565b61010b565b5f80fd5b60018060a01b031690565b6101929061017e565b90565b61019e81610189565b036101a557565b5f80fd5b905035906101b682610195565b565b909291926101cd6101c88261015d565b610148565b938185526020808601920283019281841161020a57915b8383106101f15750505050565b602080916101ff84866101a9565b8152019201916101e4565b61017a565b9080601f8301121561022d5781602061022a933591016101b8565b90565b6100fd565b90565b61023e81610232565b0361024557565b5f80fd5b9050359061025682610235565b565b90565b61026481610258565b0361026b57565b5f80fd5b9050359061027c8261025b565b565b5f80fd5b909182601f830112156102bc5781359167ffffffffffffffff83116102b75760200192600183028401116102b257565b61017a565b61027e565b6100fd565b9190916101008184031261036f576102db835f83016100ee565b92602082013567ffffffffffffffff811161036a57816102fc91840161020f565b9261030a82604085016101a9565b926103188360608301610249565b926103268160808401610249565b926103348260a0850161026f565b926103428360c083016101a9565b9260e082013567ffffffffffffffff8111610365576103619201610282565b9091565b6100dc565b6100dc565b6100d8565b61037d90610189565b9052565b5190565b60209181520190565b60200190565b61039d90610189565b9052565b906103ae81602093610394565b0190565b60200190565b906103d56103cf6103c884610381565b8093610385565b9261038e565b905f5b8181106103e55750505090565b9091926103fe6103f860019286516103a1565b946103b2565b91019190916103d8565b5190565b60209181520190565b60200190565b61042490610232565b9052565b906104358160209361041b565b0190565b60200190565b9061045c61045661044f84610408565b809361040c565b92610415565b905f5b81811061046c5750505090565b90919261048561047f6001928651610428565b94610439565b910191909161045f565b61049890610232565b9052565b9591946104ee6104e361050596956104d58a6105139c9a6104c76104f8985f60e08501940190610374565b8c60208184039101526103b8565b908a820360408c015261043f565b946060890190610374565b608087019061048f565b84820360a08601526103b8565b9160c081840391015261043f565b90565b61054e6105366105273660046102c1565b97969096959195949294610c86565b936105459795979391936100d2565b9788978861049c565b0390f35b5f80fd5b5f91031261056057565b6100d8565b7f000000000000000000000000000000000000000000000000000000000000000090565b61059290610258565b9052565b91906105a9905f60208501940190610589565b565b346105db576105bb366004610556565b6105d76105c6610565565b6105ce6100d2565b91829182610596565b0390f35b610552565b7f000000000000000000000000000000000000000000000000000000000000000090565b634e487b7160e01b5f52602160045260245ffd5b6003111561062257565b610604565b9061063182610618565b565b61063c90610627565b90565b61064890610633565b9052565b919061065f905f6020850194019061063f565b565b3461069157610671366004610556565b61068d61067c6105e0565b6106846100d2565b9182918261064c565b0390f35b610552565b346106c6576106a6366004610556565b6106c26106b1610cdf565b6106b96100d2565b91829182610596565b0390f35b610552565b60808183031261070c576106e1825f830161026f565b926107096106f284602085016101a9565b9361070081604086016101a9565b93606001610249565b90565b6100d8565b5f0190565b34610748576107326107293660046106cb565b92919091610eb2565b61073a6100d2565b8061074481610711565b0390f35b610552565b90916060828403126107825761077f610768845f850161026f565b9361077681602086016101a9565b936040016101a9565b90565b6100d8565b151590565b61079590610787565b9052565b91906107ac905f6020850194019061078c565b565b346107df576107db6107ca6107c436600461074d565b91611257565b6107d26100d2565b91829182610799565b0390f35b610552565b7f000000000000000000000000000000000000000000000000000000000000000090565b90565b61081f61081a6108249261017e565b610808565b61017e565b90565b6108309061080b565b90565b61083c90610827565b90565b61084890610833565b9052565b919061085f905f6020850194019061083f565b565b3461089157610871366004610556565b61088d61087c6107e4565b6108846100d2565b9182918261084c565b0390f35b610552565b346108c6576108a6366004610556565b6108c26108b1611271565b6108b96100d2565b9182918261064c565b0390f35b610552565b7f000000000000000000000000000000000000000000000000000000000000000090565b6108f890610827565b90565b610904906108ef565b9052565b919061091b905f602085019401906108fb565b565b3461094d5761092d366004610556565b6109496109386108cb565b6109406100d2565b91829182610908565b0390f35b610552565b7f000000000000000000000000000000000000000000000000000000000000000090565b61097f90610827565b90565b61098b90610976565b9052565b91906109a2905f60208501940190610982565b565b346109d4576109b4366004610556565b6109d06109bf610952565b6109c76100d2565b9182918261098f565b0390f35b610552565b7f000000000000000000000000000000000000000000000000000000000000000090565b610a0690610827565b90565b610a12906109fd565b9052565b9190610a29905f60208501940190610a09565b565b34610a5b57610a3b366004610556565b610a57610a466109d9565b610a4e6100d2565b91829182610a16565b0390f35b610552565b5f80fd5b5f90565b606090565b606090565b5f90565b60209181520190565b60207f6e65000000000000000000000000000000000000000000000000000000000000917f63616c6c6572206973206e6f742074686520657865637574696f6e20656e67695f8201520152565b610ad96022604092610a76565b610ae281610a7f565b0190565b610afb9060208101905f818303910152610acc565b90565b15610b0557565b610b0d6100d2565b62461bcd60e51b815280610b2360048201610ae6565b0390fd5b90610b839f9e9d9c9b9a999897969594939291610b7e33610b78610b72610b6d7f0000000000000000000000000000000000000000000000000000000000000000610976565b610189565b91610189565b14610afe565b610ba7565b90919293949596565b60081115610b9657565b610604565b90610ba582610b8c565b565b90919293949596979e9c9a989d9b99505050505050505080610bd1610bcb5f610b9b565b91610b9b565b145f14610bf85750610be996959091929394956118be565b91939596909294959493929190565b80610c0c610c066001610b9b565b91610b9b565b145f14610c335750610c2496959091929394956117e9565b91939596909294959493929190565b610c46610c406006610b9b565b91610b9b565b14610c67575f634a7f394f60e01b815280610c6360048201610711565b0390fd5b610c779695909192939495611507565b91939596909294959493929190565b90610cd29897969594939291610c9a610a64565b610ca2610a68565b610caa610a6d565b610cb2610a64565b610cba610a72565b91610cc3610a68565b93610ccc610a6d565b95610b27565b90919293949596565b5f90565b610ce7610cdb565b507f000000000000000000000000000000000000000000000000000000000000000090565b90610d5c939291610d5733610d51610d4b610d467f0000000000000000000000000000000000000000000000000000000000000000610976565b610189565b91610189565b14610afe565b610e00565b565b5f80fd5b60e01b90565b5f910312610d7257565b6100d8565b90565b610d8e610d89610d9392610d77565b610808565b610232565b90565b610d9f90610d7a565b9052565b90959492610dee94610ddd610de792610dd3608096610dc960a088019c5f890190610589565b6020870190610374565b6040850190610374565b606083019061048f565b0190610d96565b565b610df86100d2565b3d5f823e3d90fd5b929192610e2c7f00000000000000000000000000000000000000000000000000000000000000006108ef565b9063ade68e4d909294935f91833b15610ead57610e6a610e5f935f97938894610e536100d2565b9a8b998a988997610d62565b875260048701610da3565b03925af18015610ea857610e7c575b50565b610e9b905f3d8111610ea1575b610e93818361011f565b810190610d68565b5f610e79565b503d610e89565b610df0565b610d5e565b90610ebe939291610d0c565b565b5f90565b90610f14939291610f0f33610f09610f03610efe7f0000000000000000000000000000000000000000000000000000000000000000610976565b610189565b91610189565b14610afe565b61107f565b90565b90505190610f2482610235565b565b90602082820312610f3f57610f3c915f01610f17565b90565b6100d8565b604090610f6d610f749496959396610f6360608401985f850190610589565b6020830190610374565b0190610374565b565b610f7f81610787565b03610f8657565b5f80fd5b90505190610f9782610f76565b565b90602082820312610fb257610faf915f01610f8a565b90565b6100d8565b916020610fd8929493610fd160408201965f830190610374565b019061048f565b565b5f7f4e6f7420656e6f75676820746f6b656e7320666f72207769746864726177616c910152565b61100d60208092610a76565b61101681610fda565b0190565b61102f9060208101905f818303910152611001565b90565b1561103957565b6110416100d2565b62461bcd60e51b8152806110576004820161101a565b0390fd5b6110649061080b565b90565b6110709061105b565b90565b61107c90610827565b90565b9291925060206110ae7f00000000000000000000000000000000000000000000000000000000000000006108ef565b63fd932ecb92906110d35f87956110de886110c76100d2565b98899788968795610d62565b855260048501610f44565b03925af1908115611252575f91611224575b5061111a7f00000000000000000000000000000000000000000000000000000000000000006108ef565b6020631072cbea9184906111415f869561114c6111356100d2565b97889687958694610d62565b845260048401610fb7565b03925af1801561121f576020936111716111769261117b945f916111f2575b50611032565b611067565b611073565b61119e5f63a9059cbb9593956111a96111926100d2565b97889687958694610d62565b845260048401610fb7565b03925af19081156111ed575f916111bf575b5090565b6111e0915060203d81116111e6575b6111d8818361011f565b810190610f99565b5f6111bb565b503d6111ce565b610df0565b6112129150873d8111611218575b61120a818361011f565b810190610f99565b5f61116b565b503d611200565b610df0565b611245915060203d811161124b575b61123d818361011f565b810190610f26565b5f6110f0565b503d611233565b610df0565b9061126a9291611265610ec0565b610ec4565b90565b5f90565b61127961126d565b507f000000000000000000000000000000000000000000000000000000000000000090565b5f7f696e76616c696420617373657473496e00000000000000000000000000000000910152565b6112d26010602092610a76565b6112db8161129e565b0190565b6112f49060208101905f8183039101526112c5565b90565b156112fe57565b6113066100d2565b62461bcd60e51b81528061131c600482016112df565b0390fd5b634e487b7160e01b5f52603260045260245ffd5b9061133e82610381565b81101561134f576020809102010190565b611320565b61135e9051610189565b90565b62ffffff1690565b61137281611361565b0361137957565b5f80fd5b9050359061138a82611369565b565b6113958161017e565b0361139c57565b5f80fd5b905035906113ad8261138c565b565b6080818303126113f0576113c5825f830161137d565b926113ed6113d68460208501610249565b936113e48160408601610249565b936060016113a0565b90565b6100d8565b6113fe90610827565b90565b61140c610100610148565b90565b9061141990610189565b9052565b9061142790611361565b9052565b9061143590610232565b9052565b906114439061017e565b9052565b61145090611361565b9052565b61145d9061017e565b9052565b9060e0806114ef936114795f8201515f860190610394565b61148b60208201516020860190610394565b61149d60408201516040860190611447565b6114af60608201516060860190610394565b6114c16080820151608086019061041b565b6114d360a082015160a086019061041b565b6114e560c082015160c086019061041b565b0151910190611454565b565b9190611505905f6101008501940190611461565b565b6115b0939661159161158c61159b9397959497611522610a64565b5061152b610a68565b50611534610a6d565b5061153d610a64565b50611546610a72565b5061154f610a68565b50611558610a6d565b5061157d61156582610381565b6115776115715f610d7a565b91610232565b116112f7565b6115865f610d7a565b90611334565b611354565b96908101906113af565b9391929590959295939188908a908792611aee565b946115c26115bd89611067565b611073565b602063095ea7b3916115f37f00000000000000000000000000000000000000000000000000000000000000006109fd565b906116115f8b9561161c6116056100d2565b97889687958694610d62565b845260048401610fb7565b03925af180156117cc576117a0575b5087938793903061163b906113f5565b909188939495611649611401565b975f8901906116579161140f565b60208801906116659161140f565b60408701906116739161141d565b60608601906116819161140f565b608085019061168f9161142b565b60a084019061169d9161142b565b60c08301906116ab9161142b565b60e08201906116b991611439565b947f00000000000000000000000000000000000000000000000000000000000000006116e4906109fd565b63414bf3896116f16100d2565b80986116fd8293610d62565b8252600482019061170d916114f1565b03815a6020945f91f1801561179b5761175e965f9161176d575b50936117527f00000000000000000000000000000000000000000000000000000000000000006109fd565b95909192939495611eb7565b91939596909294959493929190565b61178e915060203d8111611794575b611786818361011f565b810190610f26565b5f611727565b503d61177c565b610df0565b6117c09060203d81116117c5575b6117b8818361011f565b810190610f99565b61162b565b503d6117ae565b610df0565b6117da9061080b565b90565b6117e6906117d1565b90565b6118af9694929593915061186c61187191611802610a64565b5061180b610a68565b50611814610a6d565b5061181d610a64565b50611826610a72565b5061182f610a68565b50611838610a6d565b5061185d61184582610381565b6118576118515f610d7a565b91610232565b116112f7565b6118665f610d7a565b90611334565b611354565b946118a361189e7f00000000000000000000000000000000000000000000000000000000000000006109fd565b6117dd565b9590919293949561237b565b91939596909294959493929190565b91611946969492959391956118d1610a64565b506118da610a68565b506118e3610a6d565b506118ec610a64565b506118f5610a72565b506118fe610a68565b50611907610a6d565b506119396119347f00000000000000000000000000000000000000000000000000000000000000006109fd565b6117dd565b9690919293949596612f64565b91939596909294959493929190565b634e487b7160e01b5f52601160045260245ffd5b61197861197e91939293610232565b92610232565b9161198a838202610232565b92818404149015171561199957565b611955565b90565b6119b56119b06119ba9261199e565b610808565b610232565b90565b634e487b7160e01b5f52601260045260245ffd5b6119dd6119e391610232565b91610232565b9081156119ee570490565b6119bd565b5f7f4e6f7420656e6f75676820746f6b656e00000000000000000000000000000000910152565b611a276010602092610a76565b611a30816119f3565b0190565b611a499060208101905f818303910152611a1a565b90565b15611a5357565b611a5b6100d2565b62461bcd60e51b815280611a7160048201611a34565b0390fd5b90565b611a8c611a87611a9192611a75565b610808565b610232565b90565b611a9d90611a78565b9052565b90959492611aec94611adb611ae592611ad1608096611ac760a088019c5f890190610589565b6020870190610374565b6040850190610374565b606083019061048f565b0190611a94565b565b9190939293611afb610a72565b50611b257f00000000000000000000000000000000000000000000000000000000000000006108ef565b602063fd932ecb918490611b4d5f8a95611b588a611b416100d2565b98899788968795610d62565b855260048501610f44565b03925af1918215611d4557611b8992611b78925f91611d17575b50611969565b611b836127106119a1565b906119d1565b9384611b9d611b975f610d7a565b91610232565b14611cfb57611bcb7f00000000000000000000000000000000000000000000000000000000000000006108ef565b6020631072cbea918590611bf25f8a95611bfd611be66100d2565b97889687958694610d62565b845260048401610fb7565b03925af18015611cf657611c18915f91611cc8575b50611a4c565b611c417f00000000000000000000000000000000000000000000000000000000000000006108ef565b63ade68e4d9291939286600191833b15611cc357611c80611c75935f97938894611c696100d2565b9a8b998a988997610d62565b875260048701611aa1565b03925af18015611cbe57611c92575b50565b611cb1905f3d8111611cb7575b611ca9818361011f565b810190610d68565b5f611c8f565b503d611c9f565b610df0565b610d5e565b611ce9915060203d8111611cef575b611ce1818361011f565b810190610f99565b5f611c12565b503d611cd7565b610df0565b5f636fad977360e11b815280611d1360048201610711565b0390fd5b611d38915060203d8111611d3e575b611d30818361011f565b810190610f26565b5f611b72565b503d611d26565b610df0565b5f7f496e76616c696420746f6b656e20616d6f756e74000000000000000000000000910152565b611d7e6014602092610a76565b611d8781611d4a565b0190565b611da09060208101905f818303910152611d71565b90565b15611daa57565b611db26100d2565b62461bcd60e51b815280611dc860048201611d8b565b0390fd5b90611dde611dd98361015d565b610148565b918252565b369037565b90611e0d611df583611dcc565b92602080611e03869361015d565b9201910390611de3565b565b67ffffffffffffffff8111611e275760208091020190565b61010b565b90611e3e611e3983611e0f565b610148565b918252565b369037565b90611e6d611e5583611e2c565b92602080611e638693611e0f565b9201910390611e43565b565b90611e7982610408565b811015611e8a576020809102010190565b611320565b611ea3611e9e611ea892610d77565b610808565b61017e565b90565b611eb490611e8f565b90565b9193909592969496611ec7610a64565b50611ed0610a68565b50611ed9610a6d565b50611ee2610a64565b50611eeb610a72565b50611ef4610a68565b50611efd610a6d565b50611f11611f0c868690613c3c565b611da3565b611f3a7f00000000000000000000000000000000000000000000000000000000000000006108ef565b9163ade68e4d9190928692865f91833b1561209557611f7a611f6f935f97938894611f636100d2565b9a8b998a988997610d62565b875260048701610da3565b03925af1801561209057612064575b50611fb8611f9f611f9a6001611a78565b611de8565b95611fb387611fad5f610d7a565b90611334565b61140f565b611fe6611fcd611fc86001611a78565b611e48565b96611fe188611fdb5f610d7a565b90611e6f565b61142b565b612014611ffb611ff66001611a78565b611de8565b9361200f856120095f610d7a565b90611334565b61140f565b6120426120296120246001611a78565b611e48565b9261203d846120375f610d7a565b90611e6f565b61142b565b93949361204e5f611eab565b9361205f5f94939297969594610d7a565b929190565b612083905f3d8111612089575b61207b818361011f565b810190610d68565b5f611f89565b503d612071565b610df0565b610d5e565b5f7f4e6f7420656e6f756768206c7000000000000000000000000000000000000000910152565b6120ce600d602092610a76565b6120d78161209a565b0190565b6120f09060208101905f8183039101526120c1565b90565b156120fa57565b6121026100d2565b62461bcd60e51b815280612118600482016120db565b0390fd5b6121259061080b565b90565b6121319061211c565b90565b61213d90610827565b90565b9050519061214d82610195565b565b9060208282031261216857612165915f01612140565b90565b6100d8565b61217690610827565b90565b5090565b90916060828403126121b2576121af612198845f8501610249565b936121a68160208601610249565b93604001610249565b90565b6100d8565b6121c090610827565b90565b91906040838203126121eb57806121df6121e8925f8601610f17565b93602001610f17565b90565b6100d8565b949290979695939160e08601985f870161220991610374565b6020860161221691610374565b604085016122239161048f565b606084016122309161048f565b6080830161223d9161048f565b60a0820161224a91610374565b60c0016122569161048f565b565b5f7f7472616e736665722041206661696c6564000000000000000000000000000000910152565b61228c6011602092610a76565b61229581612258565b0190565b6122ae9060208101905f81830391015261227f565b90565b156122b857565b6122c06100d2565b62461bcd60e51b8152806122d660048201612299565b0390fd5b5f7f7472616e736665722042206661696c6564000000000000000000000000000000910152565b61230e6011602092610a76565b612317816122da565b0190565b6123309060208101905f818303910152612301565b90565b1561233a57565b6123426100d2565b62461bcd60e51b8152806123586004820161231b565b0390fd5b90565b61237361236e6123789261235c565b610808565b610232565b90565b9095919694939661238a610a64565b50612393610a68565b5061239c610a6d565b506123a5610a64565b506123ae610a72565b506123b7610a68565b506123c0610a6d565b50866020896123ee7f00000000000000000000000000000000000000000000000000000000000000006108ef565b6124115f63fd932ecb61241c8b95976124056100d2565b98899788968795610d62565b855260048501610f44565b03925af1918215612b7c5761247692612465925f91612b4e575b50908061244b6124455f610d7a565b91610232565b145f14612b49575061245e6127106119a1565b5b90611969565b6124706127106119a1565b906119d1565b968761248a6124845f610d7a565b91610232565b14612b2d576124b87f00000000000000000000000000000000000000000000000000000000000000006108ef565b6020631072cbea9189906124df5f8d956124ea6124d36100d2565b97889687958694610d62565b845260048401610fb7565b03925af18015612b2857612505915f91612afa575b506120f3565b61252e7f00000000000000000000000000000000000000000000000000000000000000006108ef565b63ade68e4d8583928a928c600191833b15612af55761256e612563935f979388946125576100d2565b9a8b998a988997610d62565b875260048701611aa1565b03925af18015612af057612ac4575b506125aa602061259461258f8a612128565b612134565b630dfe1681906125a26100d2565b938492610d62565b825281806125ba60048201610711565b03915afa908115612abf575f91612a91575b50946125fa60206125e46125df8b612128565b612134565b63d21220a7906125f26100d2565b938492610d62565b8252818061260a60048201610711565b03915afa908115612a8c575f91612a5e575b509361262f61262a8a611067565b611073565b9160208b63095ea7b39461265f5f6126468a61216d565b939761266a6126536100d2565b998a9687958694610d62565b845260048401610fb7565b03925af1928315612a59578b93612a2d575b50612685610a72565b5061268e610a72565b50612697610a72565b506126a3818390612179565b6126b56126af5f610d7a565b91610232565b145f14612a12575050506126c85f610d7a565b936126d25f610d7a565b8942915b856126e09061216d565b9263baa2abde918a9189949a91306126f7906121b7565b91926127016100d2565b9c8d9761270e8998610d62565b8852600488019661271e976121f0565b03815a6040945f91f18015612a0d575f809690916129da575b50949061274d612748888890613c3c565b6122b1565b61276061275b868490613c3c565b612333565b6127897f00000000000000000000000000000000000000000000000000000000000000006108ef565b63ade68e4d8285928a928a5f91833b156129d5576127c86127bd935f979388946127b16100d2565b9a8b998a988997610d62565b875260048701610da3565b03925af180156129d0576129a4575b506128017f00000000000000000000000000000000000000000000000000000000000000006108ef565b9263ade68e4d9190938692845f91833b1561299f57612841612836935f9793889461282a6100d2565b9b8c998a988997610d62565b875260048701610da3565b03925af1801561299a5761294c94612947936129009261296e575b5061288b61287261286d6001611a78565b611de8565b9a6128868c6128805f610d7a565b90611334565b61140f565b6128b96128a061289b6001611a78565b611e48565b9b6128b48d6128ae5f610d7a565b90611e6f565b61142b565b6128e76128ce6128c9600261235f565b611de8565b986128e28a6128dc5f610d7a565b90611334565b61140f565b6128fb886128f56001611a78565b90611334565b61140f565b61292e612915612910600261235f565b611e48565b95612929876129235f610d7a565b90611e6f565b61142b565b6129428561293c6001611a78565b90611e6f565b61142b565b61216d565b9394936129585f611eab565b936129695f94939297969594610d7a565b929190565b61298d905f3d8111612993575b612985818361011f565b810190610d68565b5f61285c565b503d61297b565b610df0565b610d5e565b6129c3905f3d81116129c9575b6129bb818361011f565b810190610d68565b5f6127d7565b503d6129b1565b610df0565b610d5e565b90506129fe91955060403d8111612a06575b6129f6818361011f565b8101906121c3565b94905f612737565b503d6129ec565b610df0565b90612a23919692969081019061217d565b96909196916126d6565b612a4d9060203d8111612a52575b612a45818361011f565b810190610f99565b61267c565b503d612a3b565b610df0565b612a7f915060203d8111612a85575b612a77818361011f565b81019061214f565b5f61261c565b503d612a6d565b610df0565b612ab2915060203d8111612ab8575b612aaa818361011f565b81019061214f565b5f6125cc565b503d612aa0565b610df0565b612ae3905f3d8111612ae9575b612adb818361011f565b810190610d68565b5f61257d565b503d612ad1565b610df0565b610d5e565b612b1b915060203d8111612b21575b612b13818361011f565b810190610f99565b5f6124ff565b503d612b09565b610df0565b5f636fad977360e11b815280612b4560048201610711565b0390fd5b61245f565b612b6f915060203d8111612b75575b612b67818361011f565b810190610f26565b5f612436565b503d612b5d565b610df0565b5f7f70616972206d69736d6174636800000000000000000000000000000000000000910152565b612bb5600d602092610a76565b612bbe81612b81565b0190565b612bd79060208101905f818303910152612ba8565b90565b15612be157565b612be96100d2565b62461bcd60e51b815280612bff60048201612bc2565b0390fd5b5f7f4e6f7420656e6f75676820746f6b656e41000000000000000000000000000000910152565b612c376011602092610a76565b612c4081612c03565b0190565b612c599060208101905f818303910152612c2a565b90565b15612c6357565b612c6b6100d2565b62461bcd60e51b815280612c8160048201612c44565b0390fd5b5f7f4e6f7420656e6f75676820746f6b656e42000000000000000000000000000000910152565b612cb96011602092610a76565b612cc281612c85565b0190565b612cdb9060208101905f818303910152612cac565b90565b15612ce557565b612ced6100d2565b62461bcd60e51b815280612d0360048201612cc6565b0390fd5b9091606082840312612d3c57612d39612d22845f8501610f17565b93612d308160208601610f17565b93604001610f17565b90565b6100d8565b959391989796949290986101008701995f8801612d5d91610374565b60208701612d6a91610374565b60408601612d779161048f565b60608501612d849161048f565b60808401612d919161048f565b60a08301612d9e9161048f565b60c08201612dab91610374565b60e001612db79161048f565b565b612dc8612dce91939293610232565b92610232565b8203918211612dd957565b611955565b5f7f726566756e642041206661696c65640000000000000000000000000000000000910152565b612e12600f602092610a76565b612e1b81612dde565b0190565b612e349060208101905f818303910152612e05565b90565b15612e3e57565b612e466100d2565b62461bcd60e51b815280612e5c60048201612e1f565b0390fd5b5f7f726566756e642042206661696c65640000000000000000000000000000000000910152565b612e94600f602092610a76565b612e9d81612e60565b0190565b612eb69060208101905f818303910152612e87565b90565b15612ec057565b612ec86100d2565b62461bcd60e51b815280612ede60048201612ea1565b0390fd5b5f7f7472616e73666572206c70206661696c65640000000000000000000000000000910152565b612f166012602092610a76565b612f1f81612ee2565b0190565b612f389060208101905f818303910152612f09565b90565b15612f4257565b612f4a6100d2565b62461bcd60e51b815280612f6060048201612f23565b0390fd5b979194909693929597612f75610a64565b50612f7e610a68565b50612f87610a6d565b50612f90610a64565b50612f99610a72565b50612fa2610a68565b50612fab610a6d565b50612fd1612fb887610381565b612fcb612fc5600261235f565b91610232565b146112f7565b613008613003612ff2612fed89612fe75f610d7a565b90611334565b611354565b97612ffd6001611a78565b90611334565b611354565b98613035602061301f61301a8c612128565b612134565b630dfe16819061302d6100d2565b938492610d62565b8252818061304560048201610711565b03915afa8015613c3757613084915f91613c09575b50602061306e6130698d612128565b612134565b63d21220a79061307c6100d2565b948592610d62565b8252818061309460048201610711565b03915afa8015613c04576130d5925f91613bd6575b508c826130be6130b88d610189565b91610189565b1480613bbc575b928315613b79575b505050612bda565b8660206131017f00000000000000000000000000000000000000000000000000000000000000006108ef565b63fd932ecb906131265f8a936131318a9761311a6100d2565b98899788968795610d62565b855260048501610f44565b03925af1908115613b74575f91613b46575b50978a60206131717f00000000000000000000000000000000000000000000000000000000000000006108ef565b63fd932ecb906131965f8b936131a18b9761318a6100d2565b98899788968795610d62565b855260048501610f44565b03925af1918215613b41576131db6131ca6131f2946131e1945f91613b13575b509c8390611969565b6131d56127106119a1565b906119d1565b9a611969565b6131ec6127106119a1565b906119d1565b95886132066132005f610d7a565b91610232565b1480613af9575b613add5761323a7f00000000000000000000000000000000000000000000000000000000000000006108ef565b60208a631072cbea926132615f8d939561326c6132556100d2565b97889687958694610d62565b845260048401610fb7565b03925af18015613ad857613287915f91613aaa575b50612c5c565b6132b07f00000000000000000000000000000000000000000000000000000000000000006108ef565b6020631072cbea918d906132d75f8c956132e26132cb6100d2565b97889687958694610d62565b845260048401610fb7565b03925af18015613aa5576132fd915f91613a77575b50612cde565b6133267f00000000000000000000000000000000000000000000000000000000000000006108ef565b63ade68e4d8786928b928d600191833b15613a725761336661335b935f9793889461334f6100d2565b9a8b998a988997610d62565b875260048701611aa1565b03925af18015613a6d57613a41575b508a6133a07f00000000000000000000000000000000000000000000000000000000000000006108ef565b63ade68e4d9088908793928b600191833b15613a3c576133e16133d6935f979388946133ca6100d2565b9a8b998a988997610d62565b875260048701611aa1565b03925af18015613a3757613a0b575b506134026133fd89611067565b611073565b60208a63095ea7b3926134315f6134188961216d565b939561343c6134256100d2565b97889687958694610d62565b845260048401610fb7565b03925af18015613a06576139da575b5061345d6134588c611067565b611073565b602063095ea7b39161346e8661216d565b9061348c5f8c956134976134806100d2565b97889687958694610d62565b845260048401610fb7565b03925af180156139d5576139a9575b506134af610a72565b506134b8610a72565b506134c1610a72565b506134cd828290612179565b6134df6134d95f610d7a565b91610232565b145f146139915750506134f15f610d7a565b936134fb5f610d7a565b94425b836135089061216d565b918c63e8e33700918b91938d9a8c9230613521906121b7565b929361352b6100d2565b9d8e986135388a99610d62565b8952600489019761354898612d41565b03815a6060945f91f195861561398c578a905f8080989099613952575b5061357761357f9199989b8a90612db9565b918890612db9565b908061359361358d5f610d7a565b91610232565b11613886575b50806135ad6135a75f610d7a565b91610232565b116137bf575b50506135c86135c38a8a90613c3c565b612f3b565b6135f17f00000000000000000000000000000000000000000000000000000000000000006108ef565b9263ade68e4d9190938a928a5f91833b156137ba57613631613626935f9793889461361a6100d2565b9b8c998a988997610d62565b875260048701610da3565b03925af19182156137b55761377992613789575b5061377461365b613656600261235f565b611de8565b94613678886136738861366d5f610d7a565b90611334565b61140f565b6136958b6136908861368a6001611a78565b90611334565b61140f565b61372d6136aa6136a5600261235f565b611e48565b9b6136c88d6136c38b916136bd5f610d7a565b90611e6f565b61142b565b6136e68d6136e185916136db6001611a78565b90611e6f565b61142b565b6137146136fb6136f6600261235f565b611de8565b9a61370f8c6137095f610d7a565b90611334565b61140f565b6137288a6137226001611a78565b90611334565b61140f565b61375b61374261373d600261235f565b611e48565b97613756896137505f610d7a565b90611e6f565b61142b565b61376f876137696001611a78565b90611e6f565b61142b565b61216d565b9196959493929196959493929190565b6137a8905f3d81116137ae575b6137a0818361011f565b810190610d68565b5f613645565b503d613796565b610df0565b610d5e565b6137d26137cd838390613c3c565b612eb9565b6137fb7f00000000000000000000000000000000000000000000000000000000000000006108ef565b63ade68e4d9084918794935f91833b156138815761383a61382f935f979388946138236100d2565b9a8b998a988997610d62565b875260048701610da3565b03925af1801561387c57613850575b8a906135b3565b61386f905f3d8111613875575b613867818361011f565b810190610d68565b5f613849565b503d61385d565b610df0565b610d5e565b915061389b6138968a8490613c3c565b612e37565b6138c47f00000000000000000000000000000000000000000000000000000000000000006108ef565b9163ade68e4d92849087948c935f91833b1561394d576139056138fa935f979388946138ee6100d2565b9b8c998a988997610d62565b875260048701610da3565b03925af1918215613948578c9261391c575b613599565b61393b905f3d8111613941575b613933818361011f565b810190610d68565b5f613917565b503d613929565b610df0565b610d5e565b613577995061357f985061397d915060603d8111613985575b613975818361011f565b810190612d07565b985098613565565b503d61396b565b610df0565b61399e919081019061217d565b9591959095906134fe565b6139c99060203d81116139ce575b6139c1818361011f565b810190610f99565b6134a6565b503d6139b7565b610df0565b6139fa9060203d81116139ff575b6139f2818361011f565b810190610f99565b61344b565b503d6139e8565b610df0565b613a2a905f3d8111613a30575b613a22818361011f565b810190610d68565b5f6133f0565b503d613a18565b610df0565b610d5e565b613a60905f3d8111613a66575b613a58818361011f565b810190610d68565b5f613375565b503d613a4e565b610df0565b610d5e565b613a98915060203d8111613a9e575b613a90818361011f565b810190610f99565b5f6132f7565b503d613a86565b610df0565b613acb915060203d8111613ad1575b613ac3818361011f565b810190610f99565b5f613281565b503d613ab9565b610df0565b5f636fad977360e11b815280613af560048201610711565b0390fd5b5086613b0d613b075f610d7a565b91610232565b1461320d565b613b34915060203d8111613b3a575b613b2c818361011f565b810190610f26565b5f6131c1565b503d613b22565b610df0565b613b67915060203d8111613b6d575b613b5f818361011f565b810190610f26565b5f613143565b503d613b55565b610df0565b613b9091929350613b8a9092610189565b91610189565b149081613ba1575b505f8c816130cd565b9050613bb5613baf8a610189565b91610189565b145f613b98565b5081613bd0613bca83610189565b91610189565b146130c5565b613bf7915060203d8111613bfd575b613bef818361011f565b81019061214f565b5f6130a9565b503d613be5565b610df0565b613c2a915060203d8111613c30575b613c22818361011f565b81019061214f565b5f61305a565b503d613c18565b610df0565b613c58613c53602092613c4d610ec0565b50611067565b611073565b9163a9059cbb92613ca55f613c8c7f00000000000000000000000000000000000000000000000000000000000000006108ef565b9395613cb0613c996100d2565b97889687958694610d62565b845260048401610fb7565b03925af1908115613cf4575f91613cc6575b5090565b613ce7915060203d8111613ced575b613cdf818361011f565b810190610f99565b5f613cc2565b503d613cd5565b610df056fea26469706673582212203eda16b381834042b4b2964d8f3fef6df7c43cf85786abcaf6fe6d2aefd2650364736f6c634300081c0033",
    "linkReferences": {}
  },
  "methodIdentifiers": {
    "connectorName()": "607985fc",
    "connectorType()": "6370cc02",
    "engine()": "c9d4623f",
    "execute(uint8,address[],address,uint256,uint256,bytes32,address,bytes)": "23aa883c",
    "getConnectorName()": "6c033086",
    "getConnectorType()": "87b4effd",
    "initialTokenBalanceUpdate(bytes32,address,address,uint256)": "701ad7a6",
    "oracle()": "7dc0d1d0",
    "router()": "f887ea40",
    "strategyModule()": "8aec2834",
    "withdrawAsset(bytes32,address,address)": "72f78e1d"
  },
  "id": 130
}