{
  "abi": [
    {
      "type": "constructor",
      "inputs": [
        {
          "name": "_name",
          "type": "string",
          "internalType": "string"
        },
        {
          "name": "_type",
          "type": "uint8",
          "internalType": "enum IConnector.ConnectorType"
        },
        {
          "name": "_strategy",
          "type": "address",
          "internalType": "address"
        },
        {
          "name": "_engine",
          "type": "address",
          "internalType": "address"
        },
        {
          "name": "_oracle",
          "type": "address",
          "internalType": "address"
        },
        {
          "name": "_router",
          "type": "address",
          "internalType": "address"
        }
      ],
      "stateMutability": "nonpayable"
    },
    {
      "type": "function",
      "name": "connectorName",
      "inputs": [],
      "outputs": [
        {
          "name": "",
          "type": "bytes32",
          "internalType": "bytes32"
        }
      ],
      "stateMutability": "view"
    },
    {
      "type": "function",
      "name": "connectorType",
      "inputs": [],
      "outputs": [
        {
          "name": "",
          "type": "uint8",
          "internalType": "enum IConnector.ConnectorType"
        }
      ],
      "stateMutability": "view"
    },
    {
      "type": "function",
      "name": "engine",
      "inputs": [],
      "outputs": [
        {
          "name": "",
          "type": "address",
          "internalType": "contract IEngine"
        }
      ],
      "stateMutability": "view"
    },
    {
      "type": "function",
      "name": "execute",
      "inputs": [
        {
          "name": "actionType",
          "type": "uint8",
          "internalType": "enum IConnector.ActionType"
        },
        {
          "name": "assetsIn",
          "type": "address[]",
          "internalType": "address[]"
        },
        {
          "name": "assetOut",
          "type": "address",
          "internalType": "address"
        },
        {
          "name": "stepIndex",
          "type": "uint256",
          "internalType": "uint256"
        },
        {
          "name": "amountRatio",
          "type": "uint256",
          "internalType": "uint256"
        },
        {
          "name": "strategyId",
          "type": "bytes32",
          "internalType": "bytes32"
        },
        {
          "name": "userAddress",
          "type": "address",
          "internalType": "address"
        },
        {
          "name": "data",
          "type": "bytes",
          "internalType": "bytes"
        }
      ],
      "outputs": [
        {
          "name": "protocol",
          "type": "address",
          "internalType": "address"
        },
        {
          "name": "assets",
          "type": "address[]",
          "internalType": "address[]"
        },
        {
          "name": "assetsAmount",
          "type": "uint256[]",
          "internalType": "uint256[]"
        },
        {
          "name": "shareToken",
          "type": "address",
          "internalType": "address"
        },
        {
          "name": "shareAmount",
          "type": "uint256",
          "internalType": "uint256"
        },
        {
          "name": "underlyingTokens",
          "type": "address[]",
          "internalType": "address[]"
        },
        {
          "name": "underlyingAmounts",
          "type": "uint256[]",
          "internalType": "uint256[]"
        }
      ],
      "stateMutability": "payable"
    },
    {
      "type": "function",
      "name": "getConnectorName",
      "inputs": [],
      "outputs": [
        {
          "name": "",
          "type": "bytes32",
          "internalType": "bytes32"
        }
      ],
      "stateMutability": "view"
    },
    {
      "type": "function",
      "name": "getConnectorType",
      "inputs": [],
      "outputs": [
        {
          "name": "",
          "type": "uint8",
          "internalType": "enum IConnector.ConnectorType"
        }
      ],
      "stateMutability": "view"
    },
    {
      "type": "function",
      "name": "initialTokenBalanceUpdate",
      "inputs": [
        {
          "name": "strategyId",
          "type": "bytes32",
          "internalType": "bytes32"
        },
        {
          "name": "userAddress",
          "type": "address",
          "internalType": "address"
        },
        {
          "name": "token",
          "type": "address",
          "internalType": "address"
        },
        {
          "name": "amount",
          "type": "uint256",
          "internalType": "uint256"
        }
      ],
      "outputs": [],
      "stateMutability": "nonpayable"
    },
    {
      "type": "function",
      "name": "oracle",
      "inputs": [],
      "outputs": [
        {
          "name": "",
          "type": "address",
          "internalType": "contract IOracle"
        }
      ],
      "stateMutability": "view"
    },
    {
      "type": "function",
      "name": "router",
      "inputs": [],
      "outputs": [
        {
          "name": "",
          "type": "address",
          "internalType": "contract ISparkDexV2Router"
        }
      ],
      "stateMutability": "view"
    },
    {
      "type": "function",
      "name": "strategyModule",
      "inputs": [],
      "outputs": [
        {
          "name": "",
          "type": "address",
          "internalType": "contract IFluidStrategy"
        }
      ],
      "stateMutability": "view"
    },
    {
      "type": "function",
      "name": "withdrawAsset",
      "inputs": [
        {
          "name": "_strategyId",
          "type": "bytes32",
          "internalType": "bytes32"
        },
        {
          "name": "_user",
          "type": "address",
          "internalType": "address"
        },
        {
          "name": "_token",
          "type": "address",
          "internalType": "address"
        }
      ],
      "outputs": [
        {
          "name": "",
          "type": "bool",
          "internalType": "bool"
        }
      ],
      "stateMutability": "nonpayable"
    },
    {
      "type": "error",
      "name": "InsufficientAmountIn",
      "inputs": []
    },
    {
      "type": "error",
      "name": "InvalidAction",
      "inputs": []
    }
  ],
  "bytecode": {
    "object": "0x6101406040523461014f5761002161001561031e565b9493909392919261037b565b610029610154565b613e1361043c82396080518181816105670152610cea015260a0518181816105e2015261127c015260c0518181816108cd01528181610e080152818161108a015281816110f601528181611c5601528181611cfc01528181611d720152818161204a015281816124d30152818161259d015281816126130152818161286e015281816128e6015281816131c101528181613231015281816132fa01528181613370015281816133e601528181613460015281816136b1015281816138bb015281816139840152613d4c015260e05181818161095401528181610b4901528181610d220152610eda015261010051816107e60152610120518181816109db015281816117eb0152818161184a015281816118fa01528181611a1c0152611aa20152613e1390f35b61015a565b60405190565b5f80fd5b601f801991011690565b634e487b7160e01b5f52604160045260245ffd5b906101869061015e565b810190811060018060401b0382111761019e57604052565b610168565b906101b66101af610154565b928361017c565b565b5f80fd5b5f80fd5b5f80fd5b5f80fd5b60018060401b0381116101e4576101e060209161015e565b0190565b610168565b90825f9392825e0152565b90929192610209610204826101c8565b6101a3565b9381855260208501908284011161022557610223926101e9565b565b6101c4565b9080601f8301121561024857816020610245935191016101f4565b90565b6101c0565b6003111561025757565b5f80fd5b905051906102688261024d565b565b60018060a01b031690565b61027e9061026a565b90565b61028a81610275565b0361029157565b5f80fd5b905051906102a282610281565b565b909160c082840312610319575f82015160018060401b03811161031457836102cd91840161022a565b926102db816020850161025b565b926102e98260408301610295565b926103116102fa8460608501610295565b936103088160808601610295565b9360a001610295565b90565b6101bc565b6101b8565b61033c61424f80380380610331816101a3565b9283398101906102a4565b909192939495565b90565b61035b6103566103609261026a565b610344565b61026a565b90565b61036c90610347565b90565b61037890610363565b90565b92610396959491926103919493909192936103f1565b61036f565b61012052565b90565b60200190565b5190565b6103b290610347565b90565b6103be906103a9565b90565b6103ca90610347565b90565b6103d6906103c1565b90565b6103e290610347565b90565b6103ee906103d9565b90565b61042d926104359594926104076104259361039c565b610419610413826103a5565b9161039f565b2060805260a0526103b5565b60c0526103cd565b60e0526103e5565b6101005256fe60806040526004361015610013575b610a60565b61001d5f356100cc565b806323aa883c146100c7578063607985fc146100c25780636370cc02146100bd5780636c033086146100b8578063701ad7a6146100b357806372f78e1d146100ae5780637dc0d1d0146100a957806387b4effd146100a45780638aec28341461009f578063c9d4623f1461009a5763f887ea400361000e57610a2b565b6109a4565b61091d565b610896565b610861565b6107ae565b610716565b610696565b610661565b6105ab565b610516565b60e01c90565b60405190565b5f80fd5b5f80fd5b600811156100ea57565b5f80fd5b905035906100fb826100e0565b565b5f80fd5b601f801991011690565b634e487b7160e01b5f52604160045260245ffd5b9061012990610101565b810190811067ffffffffffffffff82111761014357604052565b61010b565b9061015b6101546100d2565b928361011f565b565b67ffffffffffffffff81116101755760208091020190565b61010b565b5f80fd5b60018060a01b031690565b6101929061017e565b90565b61019e81610189565b036101a557565b5f80fd5b905035906101b682610195565b565b909291926101cd6101c88261015d565b610148565b938185526020808601920283019281841161020a57915b8383106101f15750505050565b602080916101ff84866101a9565b8152019201916101e4565b61017a565b9080601f8301121561022d5781602061022a933591016101b8565b90565b6100fd565b90565b61023e81610232565b0361024557565b5f80fd5b9050359061025682610235565b565b90565b61026481610258565b0361026b57565b5f80fd5b9050359061027c8261025b565b565b5f80fd5b909182601f830112156102bc5781359167ffffffffffffffff83116102b75760200192600183028401116102b257565b61017a565b61027e565b6100fd565b9190916101008184031261036f576102db835f83016100ee565b92602082013567ffffffffffffffff811161036a57816102fc91840161020f565b9261030a82604085016101a9565b926103188360608301610249565b926103268160808401610249565b926103348260a0850161026f565b926103428360c083016101a9565b9260e082013567ffffffffffffffff8111610365576103619201610282565b9091565b6100dc565b6100dc565b6100d8565b61037d90610189565b9052565b5190565b60209181520190565b60200190565b61039d90610189565b9052565b906103ae81602093610394565b0190565b60200190565b906103d56103cf6103c884610381565b8093610385565b9261038e565b905f5b8181106103e55750505090565b9091926103fe6103f860019286516103a1565b946103b2565b91019190916103d8565b5190565b60209181520190565b60200190565b61042490610232565b9052565b906104358160209361041b565b0190565b60200190565b9061045c61045661044f84610408565b809361040c565b92610415565b905f5b81811061046c5750505090565b90919261048561047f6001928651610428565b94610439565b910191909161045f565b61049890610232565b9052565b9591946104ee6104e361050596956104d58a6105139c9a6104c76104f8985f60e08501940190610374565b8c60208184039101526103b8565b908a820360408c015261043f565b946060890190610374565b608087019061048f565b84820360a08601526103b8565b9160c081840391015261043f565b90565b61054e6105366105273660046102c1565b97969096959195949294610c86565b936105459795979391936100d2565b9788978861049c565b0390f35b5f80fd5b5f91031261056057565b6100d8565b7f000000000000000000000000000000000000000000000000000000000000000090565b61059290610258565b9052565b91906105a9905f60208501940190610589565b565b346105db576105bb366004610556565b6105d76105c6610565565b6105ce6100d2565b91829182610596565b0390f35b610552565b7f000000000000000000000000000000000000000000000000000000000000000090565b634e487b7160e01b5f52602160045260245ffd5b6003111561062257565b610604565b9061063182610618565b565b61063c90610627565b90565b61064890610633565b9052565b919061065f905f6020850194019061063f565b565b3461069157610671366004610556565b61068d61067c6105e0565b6106846100d2565b9182918261064c565b0390f35b610552565b346106c6576106a6366004610556565b6106c26106b1610cdf565b6106b96100d2565b91829182610596565b0390f35b610552565b60808183031261070c576106e1825f830161026f565b926107096106f284602085016101a9565b9361070081604086016101a9565b93606001610249565b90565b6100d8565b5f0190565b34610748576107326107293660046106cb565b92919091610eb2565b61073a6100d2565b8061074481610711565b0390f35b610552565b90916060828403126107825761077f610768845f850161026f565b9361077681602086016101a9565b936040016101a9565b90565b6100d8565b151590565b61079590610787565b9052565b91906107ac905f6020850194019061078c565b565b346107df576107db6107ca6107c436600461074d565b91611257565b6107d26100d2565b91829182610799565b0390f35b610552565b7f000000000000000000000000000000000000000000000000000000000000000090565b90565b61081f61081a6108249261017e565b610808565b61017e565b90565b6108309061080b565b90565b61083c90610827565b90565b61084890610833565b9052565b919061085f905f6020850194019061083f565b565b3461089157610871366004610556565b61088d61087c6107e4565b6108846100d2565b9182918261084c565b0390f35b610552565b346108c6576108a6366004610556565b6108c26108b1611271565b6108b96100d2565b9182918261064c565b0390f35b610552565b7f000000000000000000000000000000000000000000000000000000000000000090565b6108f890610827565b90565b610904906108ef565b9052565b919061091b905f602085019401906108fb565b565b3461094d5761092d366004610556565b6109496109386108cb565b6109406100d2565b91829182610908565b0390f35b610552565b7f000000000000000000000000000000000000000000000000000000000000000090565b61097f90610827565b90565b61098b90610976565b9052565b91906109a2905f60208501940190610982565b565b346109d4576109b4366004610556565b6109d06109bf610952565b6109c76100d2565b9182918261098f565b0390f35b610552565b7f000000000000000000000000000000000000000000000000000000000000000090565b610a0690610827565b90565b610a12906109fd565b9052565b9190610a29905f60208501940190610a09565b565b34610a5b57610a3b366004610556565b610a57610a466109d9565b610a4e6100d2565b91829182610a16565b0390f35b610552565b5f80fd5b5f90565b606090565b606090565b5f90565b60209181520190565b60207f6e65000000000000000000000000000000000000000000000000000000000000917f63616c6c6572206973206e6f742074686520657865637574696f6e20656e67695f8201520152565b610ad96022604092610a76565b610ae281610a7f565b0190565b610afb9060208101905f818303910152610acc565b90565b15610b0557565b610b0d6100d2565b62461bcd60e51b815280610b2360048201610ae6565b0390fd5b90610b839f9e9d9c9b9a999897969594939291610b7e33610b78610b72610b6d7f0000000000000000000000000000000000000000000000000000000000000000610976565b610189565b91610189565b14610afe565b610ba7565b90919293949596565b60081115610b9657565b610604565b90610ba582610b8c565b565b90919293949596979e9c9a989d9b99505050505050505080610bd1610bcb5f610b9b565b91610b9b565b145f14610bf85750610be99695909192939495611a56565b91939596909294959493929190565b80610c0c610c066001610b9b565b91610b9b565b145f14610c335750610c249695909192939495611991565b91939596909294959493929190565b610c46610c406006610b9b565b91610b9b565b14610c67575f634a7f394f60e01b815280610c6360048201610711565b0390fd5b610c779695909192939495611684565b91939596909294959493929190565b90610cd29897969594939291610c9a610a64565b610ca2610a68565b610caa610a6d565b610cb2610a64565b610cba610a72565b91610cc3610a68565b93610ccc610a6d565b95610b27565b90919293949596565b5f90565b610ce7610cdb565b507f000000000000000000000000000000000000000000000000000000000000000090565b90610d5c939291610d5733610d51610d4b610d467f0000000000000000000000000000000000000000000000000000000000000000610976565b610189565b91610189565b14610afe565b610e00565b565b5f80fd5b60e01b90565b5f910312610d7257565b6100d8565b90565b610d8e610d89610d9392610d77565b610808565b610232565b90565b610d9f90610d7a565b9052565b90959492610dee94610ddd610de792610dd3608096610dc960a088019c5f890190610589565b6020870190610374565b6040850190610374565b606083019061048f565b0190610d96565b565b610df86100d2565b3d5f823e3d90fd5b929192610e2c7f00000000000000000000000000000000000000000000000000000000000000006108ef565b9063ade68e4d909294935f91833b15610ead57610e6a610e5f935f97938894610e536100d2565b9a8b998a988997610d62565b875260048701610da3565b03925af18015610ea857610e7c575b50565b610e9b905f3d8111610ea1575b610e93818361011f565b810190610d68565b5f610e79565b503d610e89565b610df0565b610d5e565b90610ebe939291610d0c565b565b5f90565b90610f14939291610f0f33610f09610f03610efe7f0000000000000000000000000000000000000000000000000000000000000000610976565b610189565b91610189565b14610afe565b61107f565b90565b90505190610f2482610235565b565b90602082820312610f3f57610f3c915f01610f17565b90565b6100d8565b604090610f6d610f749496959396610f6360608401985f850190610589565b6020830190610374565b0190610374565b565b610f7f81610787565b03610f8657565b5f80fd5b90505190610f9782610f76565b565b90602082820312610fb257610faf915f01610f8a565b90565b6100d8565b916020610fd8929493610fd160408201965f830190610374565b019061048f565b565b5f7f4e6f7420656e6f75676820746f6b656e7320666f72207769746864726177616c910152565b61100d60208092610a76565b61101681610fda565b0190565b61102f9060208101905f818303910152611001565b90565b1561103957565b6110416100d2565b62461bcd60e51b8152806110576004820161101a565b0390fd5b6110649061080b565b90565b6110709061105b565b90565b61107c90610827565b90565b9291925060206110ae7f00000000000000000000000000000000000000000000000000000000000000006108ef565b63fd932ecb92906110d35f87956110de886110c76100d2565b98899788968795610d62565b855260048501610f44565b03925af1908115611252575f91611224575b5061111a7f00000000000000000000000000000000000000000000000000000000000000006108ef565b6020631072cbea9184906111415f869561114c6111356100d2565b97889687958694610d62565b845260048401610fb7565b03925af1801561121f576020936111716111769261117b945f916111f2575b50611032565b611067565b611073565b61119e5f63a9059cbb9593956111a96111926100d2565b97889687958694610d62565b845260048401610fb7565b03925af19081156111ed575f916111bf575b5090565b6111e0915060203d81116111e6575b6111d8818361011f565b810190610f99565b5f6111bb565b503d6111ce565b610df0565b6112129150873d8111611218575b61120a818361011f565b810190610f99565b5f61116b565b503d611200565b610df0565b611245915060203d811161124b575b61123d818361011f565b810190610f26565b5f6110f0565b503d611233565b610df0565b9061126a9291611265610ec0565b610ec4565b90565b5f90565b61127961126d565b507f000000000000000000000000000000000000000000000000000000000000000090565b5f7f696e76616c696420617373657473496e00000000000000000000000000000000910152565b6112d26010602092610a76565b6112db8161129e565b0190565b6112f49060208101905f8183039101526112c5565b90565b156112fe57565b6113066100d2565b62461bcd60e51b81528061131c600482016112df565b0390fd5b634e487b7160e01b5f52603260045260245ffd5b9061133e82610381565b81101561134f576020809102010190565b611320565b61135e9051610189565b90565b90916060828403126113ae575f82013567ffffffffffffffff81116113a95761138f846113a692850161020f565b9361139d8160208601610249565b93604001610249565b90565b6100dc565b6100d8565b90565b6113ca6113c56113cf926113b3565b610808565b610232565b90565b5f7f696e76616c696420706174680000000000000000000000000000000000000000910152565b611406600c602092610a76565b61140f816113d2565b0190565b6114289060208101905f8183039101526113f9565b90565b1561143257565b61143a6100d2565b62461bcd60e51b81528061145060048201611413565b0390fd5b5f7f70617468206d69736d6174636800000000000000000000000000000000000000910152565b611488600d602092610a76565b61149181611454565b0190565b6114aa9060208101905f81830391015261147b565b90565b156114b457565b6114bc6100d2565b62461bcd60e51b8152806114d260048201611495565b0390fd5b90565b6114ed6114e86114f2926114d6565b610808565b610232565b90565b634e487b7160e01b5f52601160045260245ffd5b61151861151e91939293610232565b92610232565b820391821161152957565b6114f5565b61153790610827565b90565b67ffffffffffffffff81116115525760208091020190565b61010b565b9092919261156c6115678261153a565b610148565b93818552602080860192028301928184116115a957915b8383106115905750505050565b6020809161159e8486610f17565b815201920191611583565b61017a565b9080601f830112156115cc578160206115c993519101611557565b90565b6100fd565b90602082820312611601575f82015167ffffffffffffffff81116115fc576115f992016115ae565b90565b6100dc565b6100d8565b9061164361164e916116559698979561163660809661162c60a08801945f89019061048f565b602087019061048f565b84820360408601526103b8565b966060830190610374565b019061048f565b565b9061166182610408565b811015611672576020809102010190565b611320565b6116819051610232565b90565b6117cc939194929661170d6117086117179361169e610a64565b506116a7610a68565b506116b0610a6d565b506116b9610a64565b506116c2610a72565b506116cb610a68565b506116d4610a6d565b506116f96116e182610381565b6116f36116ed5f610d7a565b91610232565b116112f7565b6117025f610d7a565b90611334565b611354565b9690810190611361565b919490919761174261172887610381565b61173b61173560026113b6565b91610232565b101561142b565b61177861176061175b886117555f610d7a565b90611334565b611354565b61177261176c8b610189565b91610189565b146114ad565b6117c16117a96117a48861179e61178e8b610381565b61179860016114d9565b90611509565b90611334565b611354565b6117bb6117b58a610189565b91610189565b146114ad565b879084908692611c43565b936117de6117d988611067565b611073565b602063095ea7b39161180f7f00000000000000000000000000000000000000000000000000000000000000006109fd565b9061182d5f8a956118386118216100d2565b97889687958694610d62565b845260048401610fb7565b03925af1801561198c57611960575b507f0000000000000000000000000000000000000000000000000000000000000000611872906109fd565b916338ed17399086909299306118879061152e565b61188f6100d2565b9b8c9561189c8796610d62565b865260048601946118ac95611606565b03815a5f948591f1801561195b576118ef6118f49161192a985f91611939575b506118e96118d982610408565b6118e360016114d9565b90611509565b90611657565b611677565b9361191e7f00000000000000000000000000000000000000000000000000000000000000006109fd565b95909192939495611feb565b91939596909294959493929190565b61195591503d805f833e61194d818361011f565b8101906115d1565b5f6118cc565b610df0565b6119809060203d8111611985575b611978818361011f565b810190610f99565b611847565b503d61196e565b610df0565b611a4796949295939150611a14611a19916119aa610a64565b506119b3610a68565b506119bc610a6d565b506119c5610a64565b506119ce610a72565b506119d7610a68565b506119e0610a6d565b50611a056119ed82610381565b6119ff6119f95f610d7a565b91610232565b116112f7565b611a0e5f610d7a565b90611334565b611354565b947f000000000000000000000000000000000000000000000000000000000000000095909192939495612484565b91939596909294959493929190565b91611ace96949295939195611a69610a64565b50611a72610a68565b50611a7b610a6d565b50611a84610a64565b50611a8d610a72565b50611a96610a68565b50611a9f610a6d565b507f00000000000000000000000000000000000000000000000000000000000000009690919293949596613048565b91939596909294959493929190565b611aec611af291939293610232565b92610232565b91611afe838202610232565b928184041490151715611b0d57565b6114f5565b90565b611b29611b24611b2e92611b12565b610808565b610232565b90565b634e487b7160e01b5f52601260045260245ffd5b611b51611b5791610232565b91610232565b908115611b62570490565b611b31565b5f7f4e6f7420656e6f75676820746f6b656e00000000000000000000000000000000910152565b611b9b6010602092610a76565b611ba481611b67565b0190565b611bbd9060208101905f818303910152611b8e565b90565b15611bc757565b611bcf6100d2565b62461bcd60e51b815280611be560048201611ba8565b0390fd5b611bf2906114d9565b9052565b90959492611c4194611c30611c3a92611c26608096611c1c60a088019c5f890190610589565b6020870190610374565b6040850190610374565b606083019061048f565b0190611be9565b565b9190939293611c50610a72565b50611c7a7f00000000000000000000000000000000000000000000000000000000000000006108ef565b602063fd932ecb918490611ca25f8a95611cad8a611c966100d2565b98899788968795610d62565b855260048501610f44565b03925af1918215611e9a57611cde92611ccd925f91611e6c575b50611add565b611cd8612710611b15565b90611b45565b9384611cf2611cec5f610d7a565b91610232565b14611e5057611d207f00000000000000000000000000000000000000000000000000000000000000006108ef565b6020631072cbea918590611d475f8a95611d52611d3b6100d2565b97889687958694610d62565b845260048401610fb7565b03925af18015611e4b57611d6d915f91611e1d575b50611bc0565b611d967f00000000000000000000000000000000000000000000000000000000000000006108ef565b63ade68e4d9291939286600191833b15611e1857611dd5611dca935f97938894611dbe6100d2565b9a8b998a988997610d62565b875260048701611bf6565b03925af18015611e1357611de7575b50565b611e06905f3d8111611e0c575b611dfe818361011f565b810190610d68565b5f611de4565b503d611df4565b610df0565b610d5e565b611e3e915060203d8111611e44575b611e36818361011f565b810190610f99565b5f611d67565b503d611e2c565b610df0565b5f636fad977360e11b815280611e6860048201610711565b0390fd5b611e8d915060203d8111611e93575b611e85818361011f565b810190610f26565b5f611cc7565b503d611e7b565b610df0565b5f7f496e76616c696420746f6b656e20616d6f756e74000000000000000000000000910152565b611ed36014602092610a76565b611edc81611e9f565b0190565b611ef59060208101905f818303910152611ec6565b90565b15611eff57565b611f076100d2565b62461bcd60e51b815280611f1d60048201611ee0565b0390fd5b90611f33611f2e8361015d565b610148565b918252565b369037565b90611f62611f4a83611f21565b92602080611f58869361015d565b9201910390611f38565b565b90611f6e90610189565b9052565b90611f84611f7f8361153a565b610148565b918252565b369037565b90611fb3611f9b83611f72565b92602080611fa9869361153a565b9201910390611f89565b565b90611fbf90610232565b9052565b611fd7611fd2611fdc92610d77565b610808565b61017e565b90565b611fe890611fc3565b90565b9193909592969496611ffb610a64565b50612004610a68565b5061200d610a6d565b50612016610a64565b5061201f610a72565b50612028610a68565b50612031610a6d565b50612045612040868690613d20565b611ef8565b61206e7f00000000000000000000000000000000000000000000000000000000000000006108ef565b9163ade68e4d9190928692865f91833b156121c9576120ae6120a3935f979388946120976100d2565b9a8b998a988997610d62565b875260048701610da3565b03925af180156121c457612198575b506120ec6120d36120ce60016114d9565b611f3d565b956120e7876120e15f610d7a565b90611334565b611f64565b61211a6121016120fc60016114d9565b611f8e565b966121158861210f5f610d7a565b90611657565b611fb5565b61214861212f61212a60016114d9565b611f3d565b936121438561213d5f610d7a565b90611334565b611f64565b61217661215d61215860016114d9565b611f8e565b926121718461216b5f610d7a565b90611657565b611fb5565b9394936121825f611fdf565b936121935f94939297969594610d7a565b929190565b6121b7905f3d81116121bd575b6121af818361011f565b810190610d68565b5f6120bd565b503d6121a5565b610df0565b610d5e565b5f7f4e6f7420656e6f756768206c7000000000000000000000000000000000000000910152565b612202600d602092610a76565b61220b816121ce565b0190565b6122249060208101905f8183039101526121f5565b90565b1561222e57565b6122366100d2565b62461bcd60e51b81528061224c6004820161220f565b0390fd5b6122599061080b565b90565b61226590612250565b90565b61227190610827565b90565b9050519061228182610195565b565b9060208282031261229c57612299915f01612274565b90565b6100d8565b5090565b90916060828403126122da576122d76122c0845f8501610249565b936122ce8160208601610249565b93604001610249565b90565b6100d8565b6122e890610827565b90565b91906040838203126123135780612307612310925f8601610f17565b93602001610f17565b90565b6100d8565b949290979695939160e08601985f870161233191610374565b6020860161233e91610374565b6040850161234b9161048f565b606084016123589161048f565b608083016123659161048f565b60a0820161237291610374565b60c00161237e9161048f565b565b5f7f7472616e736665722041206661696c6564000000000000000000000000000000910152565b6123b46011602092610a76565b6123bd81612380565b0190565b6123d69060208101905f8183039101526123a7565b90565b156123e057565b6123e86100d2565b62461bcd60e51b8152806123fe600482016123c1565b0390fd5b5f7f7472616e736665722042206661696c6564000000000000000000000000000000910152565b6124366011602092610a76565b61243f81612402565b0190565b6124589060208101905f818303910152612429565b90565b1561246257565b61246a6100d2565b62461bcd60e51b81528061248060048201612443565b0390fd5b90959196949396612493610a64565b5061249c610a68565b506124a5610a6d565b506124ae610a64565b506124b7610a72565b506124c0610a68565b506124c9610a6d565b50866020896124f77f00000000000000000000000000000000000000000000000000000000000000006108ef565b61251a5f63fd932ecb6125258b959761250e6100d2565b98899788968795610d62565b855260048501610f44565b03925af1918215612c855761257f9261256e925f91612c57575b50908061255461254e5f610d7a565b91610232565b145f14612c525750612567612710611b15565b5b90611add565b612579612710611b15565b90611b45565b968761259361258d5f610d7a565b91610232565b14612c36576125c17f00000000000000000000000000000000000000000000000000000000000000006108ef565b6020631072cbea9189906125e85f8d956125f36125dc6100d2565b97889687958694610d62565b845260048401610fb7565b03925af18015612c315761260e915f91612c03575b50612227565b6126377f00000000000000000000000000000000000000000000000000000000000000006108ef565b63ade68e4d8583928a928c600191833b15612bfe5761267761266c935f979388946126606100d2565b9a8b998a988997610d62565b875260048701611bf6565b03925af18015612bf957612bcd575b506126b3602061269d6126988a61225c565b612268565b630dfe1681906126ab6100d2565b938492610d62565b825281806126c360048201610711565b03915afa908115612bc8575f91612b9a575b509461270360206126ed6126e88b61225c565b612268565b63d21220a7906126fb6100d2565b938492610d62565b8252818061271360048201610711565b03915afa908115612b95575f91612b67575b50936127386127338a611067565b611073565b9160208b63095ea7b3946127685f61274f8a6109fd565b939761277361275c6100d2565b998a9687958694610d62565b845260048401610fb7565b03925af1928315612b62578b93612b36575b5061278e610a72565b50612797610a72565b506127a0610a72565b506127ac8183906122a1565b6127be6127b85f610d7a565b91610232565b145f14612b1b575050506127d15f610d7a565b936127db5f610d7a565b8942915b856127e9906109fd565b9263baa2abde918a9189949a9130612800906122df565b919261280a6100d2565b9c8d976128178998610d62565b8852600488019661282797612318565b03815a6040945f91f18015612b16575f80969091612ae3575b509490612856612851888890613d20565b6123d9565b612869612864868490613d20565b61245b565b6128927f00000000000000000000000000000000000000000000000000000000000000006108ef565b63ade68e4d8285928a928a5f91833b15612ade576128d16128c6935f979388946128ba6100d2565b9a8b998a988997610d62565b875260048701610da3565b03925af18015612ad957612aad575b5061290a7f00000000000000000000000000000000000000000000000000000000000000006108ef565b9263ade68e4d9190938692845f91833b15612aa85761294a61293f935f979388946129336100d2565b9b8c998a988997610d62565b875260048701610da3565b03925af18015612aa357612a5594612a5093612a0992612a77575b5061299461297b61297660016114d9565b611f3d565b9a61298f8c6129895f610d7a565b90611334565b611f64565b6129c26129a96129a460016114d9565b611f8e565b9b6129bd8d6129b75f610d7a565b90611657565b611fb5565b6129f06129d76129d260026113b6565b611f3d565b986129eb8a6129e55f610d7a565b90611334565b611f64565b612a04886129fe60016114d9565b90611334565b611f64565b612a37612a1e612a1960026113b6565b611f8e565b95612a3287612a2c5f610d7a565b90611657565b611fb5565b612a4b85612a4560016114d9565b90611657565b611fb5565b6109fd565b939493612a615f611fdf565b93612a725f94939297969594610d7a565b929190565b612a96905f3d8111612a9c575b612a8e818361011f565b810190610d68565b5f612965565b503d612a84565b610df0565b610d5e565b612acc905f3d8111612ad2575b612ac4818361011f565b810190610d68565b5f6128e0565b503d612aba565b610df0565b610d5e565b9050612b0791955060403d8111612b0f575b612aff818361011f565b8101906122eb565b94905f612840565b503d612af5565b610df0565b90612b2c91969296908101906122a5565b96909196916127df565b612b569060203d8111612b5b575b612b4e818361011f565b810190610f99565b612785565b503d612b44565b610df0565b612b88915060203d8111612b8e575b612b80818361011f565b810190612283565b5f612725565b503d612b76565b610df0565b612bbb915060203d8111612bc1575b612bb3818361011f565b810190612283565b5f6126d5565b503d612ba9565b610df0565b612bec905f3d8111612bf2575b612be4818361011f565b810190610d68565b5f612686565b503d612bda565b610df0565b610d5e565b612c24915060203d8111612c2a575b612c1c818361011f565b810190610f99565b5f612608565b503d612c12565b610df0565b5f636fad977360e11b815280612c4e60048201610711565b0390fd5b612568565b612c78915060203d8111612c7e575b612c70818361011f565b810190610f26565b5f61253f565b503d612c66565b610df0565b5f7f70616972206d69736d6174636800000000000000000000000000000000000000910152565b612cbe600d602092610a76565b612cc781612c8a565b0190565b612ce09060208101905f818303910152612cb1565b90565b15612cea57565b612cf26100d2565b62461bcd60e51b815280612d0860048201612ccb565b0390fd5b5f7f4e6f7420656e6f75676820746f6b656e41000000000000000000000000000000910152565b612d406011602092610a76565b612d4981612d0c565b0190565b612d629060208101905f818303910152612d33565b90565b15612d6c57565b612d746100d2565b62461bcd60e51b815280612d8a60048201612d4d565b0390fd5b5f7f4e6f7420656e6f75676820746f6b656e42000000000000000000000000000000910152565b612dc26011602092610a76565b612dcb81612d8e565b0190565b612de49060208101905f818303910152612db5565b90565b15612dee57565b612df66100d2565b62461bcd60e51b815280612e0c60048201612dcf565b0390fd5b9091606082840312612e4557612e42612e2b845f8501610f17565b93612e398160208601610f17565b93604001610f17565b90565b6100d8565b959391989796949290986101008701995f8801612e6691610374565b60208701612e7391610374565b60408601612e809161048f565b60608501612e8d9161048f565b60808401612e9a9161048f565b60a08301612ea79161048f565b60c08201612eb491610374565b60e001612ec09161048f565b565b5f7f726566756e642041206661696c65640000000000000000000000000000000000910152565b612ef6600f602092610a76565b612eff81612ec2565b0190565b612f189060208101905f818303910152612ee9565b90565b15612f2257565b612f2a6100d2565b62461bcd60e51b815280612f4060048201612f03565b0390fd5b5f7f726566756e642042206661696c65640000000000000000000000000000000000910152565b612f78600f602092610a76565b612f8181612f44565b0190565b612f9a9060208101905f818303910152612f6b565b90565b15612fa457565b612fac6100d2565b62461bcd60e51b815280612fc260048201612f85565b0390fd5b5f7f7472616e73666572206c70206661696c65640000000000000000000000000000910152565b612ffa6012602092610a76565b61300381612fc6565b0190565b61301c9060208101905f818303910152612fed565b90565b1561302657565b61302e6100d2565b62461bcd60e51b81528061304460048201613007565b0390fd5b979194909693929597613059610a64565b50613062610a68565b5061306b610a6d565b50613074610a64565b5061307d610a72565b50613086610a68565b5061308f610a6d565b506130b561309c87610381565b6130af6130a960026113b6565b91610232565b146112f7565b6130ec6130e76130d66130d1896130cb5f610d7a565b90611334565b611354565b976130e160016114d9565b90611334565b611354565b9861311960206131036130fe8c61225c565b612268565b630dfe1681906131116100d2565b938492610d62565b8252818061312960048201610711565b03915afa8015613d1b57613168915f91613ced575b50602061315261314d8d61225c565b612268565b63d21220a7906131606100d2565b948592610d62565b8252818061317860048201610711565b03915afa8015613ce8576131b9925f91613cba575b508c826131a261319c8d610189565b91610189565b1480613ca0575b928315613c5d575b505050612ce3565b8660206131e57f00000000000000000000000000000000000000000000000000000000000000006108ef565b63fd932ecb9061320a5f8a936132158a976131fe6100d2565b98899788968795610d62565b855260048501610f44565b03925af1908115613c58575f91613c2a575b50978a60206132557f00000000000000000000000000000000000000000000000000000000000000006108ef565b63fd932ecb9061327a5f8b936132858b9761326e6100d2565b98899788968795610d62565b855260048501610f44565b03925af1918215613c25576132bf6132ae6132d6946132c5945f91613bf7575b509c8390611add565b6132b9612710611b15565b90611b45565b9a611add565b6132d0612710611b15565b90611b45565b95886132ea6132e45f610d7a565b91610232565b1480613bdd575b613bc15761331e7f00000000000000000000000000000000000000000000000000000000000000006108ef565b60208a631072cbea926133455f8d93956133506133396100d2565b97889687958694610d62565b845260048401610fb7565b03925af18015613bbc5761336b915f91613b8e575b50612d65565b6133947f00000000000000000000000000000000000000000000000000000000000000006108ef565b6020631072cbea918d906133bb5f8c956133c66133af6100d2565b97889687958694610d62565b845260048401610fb7565b03925af18015613b89576133e1915f91613b5b575b50612de7565b61340a7f00000000000000000000000000000000000000000000000000000000000000006108ef565b63ade68e4d8786928b928d600191833b15613b565761344a61343f935f979388946134336100d2565b9a8b998a988997610d62565b875260048701611bf6565b03925af18015613b5157613b25575b508a6134847f00000000000000000000000000000000000000000000000000000000000000006108ef565b63ade68e4d9088908793928b600191833b15613b20576134c56134ba935f979388946134ae6100d2565b9a8b998a988997610d62565b875260048701611bf6565b03925af18015613b1b57613aef575b506134e66134e189611067565b611073565b60208a63095ea7b3926135155f6134fc896109fd565b93956135206135096100d2565b97889687958694610d62565b845260048401610fb7565b03925af18015613aea57613abe575b5061354161353c8c611067565b611073565b602063095ea7b391613552866109fd565b906135705f8c9561357b6135646100d2565b97889687958694610d62565b845260048401610fb7565b03925af18015613ab957613a8d575b50613593610a72565b5061359c610a72565b506135a5610a72565b506135b18282906122a1565b6135c36135bd5f610d7a565b91610232565b145f14613a755750506135d55f610d7a565b936135df5f610d7a565b94425b836135ec906109fd565b918c63e8e33700918b91938d9a8c9230613605906122df565b929361360f6100d2565b9d8e9861361c8a99610d62565b8952600489019761362c98612e4a565b03815a6060945f91f1958615613a70578a905f8080989099613a36575b5061365b6136639199989b8a90611509565b918890611509565b90806136776136715f610d7a565b91610232565b1161396a575b508061369161368b5f610d7a565b91610232565b116138a3575b50506136ac6136a78a8a90613d20565b61301f565b6136d57f00000000000000000000000000000000000000000000000000000000000000006108ef565b9263ade68e4d9190938a928a5f91833b1561389e5761371561370a935f979388946136fe6100d2565b9b8c998a988997610d62565b875260048701610da3565b03925af19182156138995761385d9261386d575b5061385861373f61373a60026113b6565b611f3d565b9461375c88613757886137515f610d7a565b90611334565b611f64565b6137798b6137748861376e60016114d9565b90611334565b611f64565b61381161378e61378960026113b6565b611f8e565b9b6137ac8d6137a78b916137a15f610d7a565b90611657565b611fb5565b6137ca8d6137c585916137bf60016114d9565b90611657565b611fb5565b6137f86137df6137da60026113b6565b611f3d565b9a6137f38c6137ed5f610d7a565b90611334565b611f64565b61380c8a61380660016114d9565b90611334565b611f64565b61383f61382661382160026113b6565b611f8e565b9761383a896138345f610d7a565b90611657565b611fb5565b6138538761384d60016114d9565b90611657565b611fb5565b6109fd565b9196959493929196959493929190565b61388c905f3d8111613892575b613884818361011f565b810190610d68565b5f613729565b503d61387a565b610df0565b610d5e565b6138b66138b1838390613d20565b612f9d565b6138df7f00000000000000000000000000000000000000000000000000000000000000006108ef565b63ade68e4d9084918794935f91833b156139655761391e613913935f979388946139076100d2565b9a8b998a988997610d62565b875260048701610da3565b03925af1801561396057613934575b8a90613697565b613953905f3d8111613959575b61394b818361011f565b810190610d68565b5f61392d565b503d613941565b610df0565b610d5e565b915061397f61397a8a8490613d20565b612f1b565b6139a87f00000000000000000000000000000000000000000000000000000000000000006108ef565b9163ade68e4d92849087948c935f91833b15613a31576139e96139de935f979388946139d26100d2565b9b8c998a988997610d62565b875260048701610da3565b03925af1918215613a2c578c92613a00575b61367d565b613a1f905f3d8111613a25575b613a17818361011f565b810190610d68565b5f6139fb565b503d613a0d565b610df0565b610d5e565b61365b99506136639850613a61915060603d8111613a69575b613a59818361011f565b810190612e10565b985098613649565b503d613a4f565b610df0565b613a8291908101906122a5565b9591959095906135e2565b613aad9060203d8111613ab2575b613aa5818361011f565b810190610f99565b61358a565b503d613a9b565b610df0565b613ade9060203d8111613ae3575b613ad6818361011f565b810190610f99565b61352f565b503d613acc565b610df0565b613b0e905f3d8111613b14575b613b06818361011f565b810190610d68565b5f6134d4565b503d613afc565b610df0565b610d5e565b613b44905f3d8111613b4a575b613b3c818361011f565b810190610d68565b5f613459565b503d613b32565b610df0565b610d5e565b613b7c915060203d8111613b82575b613b74818361011f565b810190610f99565b5f6133db565b503d613b6a565b610df0565b613baf915060203d8111613bb5575b613ba7818361011f565b810190610f99565b5f613365565b503d613b9d565b610df0565b5f636fad977360e11b815280613bd960048201610711565b0390fd5b5086613bf1613beb5f610d7a565b91610232565b146132f1565b613c18915060203d8111613c1e575b613c10818361011f565b810190610f26565b5f6132a5565b503d613c06565b610df0565b613c4b915060203d8111613c51575b613c43818361011f565b810190610f26565b5f613227565b503d613c39565b610df0565b613c7491929350613c6e9092610189565b91610189565b149081613c85575b505f8c816131b1565b9050613c99613c938a610189565b91610189565b145f613c7c565b5081613cb4613cae83610189565b91610189565b146131a9565b613cdb915060203d8111613ce1575b613cd3818361011f565b810190612283565b5f61318d565b503d613cc9565b610df0565b613d0e915060203d8111613d14575b613d06818361011f565b810190612283565b5f61313e565b503d613cfc565b610df0565b613d3c613d37602092613d31610ec0565b50611067565b611073565b9163a9059cbb92613d895f613d707f00000000000000000000000000000000000000000000000000000000000000006108ef565b9395613d94613d7d6100d2565b97889687958694610d62565b845260048401610fb7565b03925af1908115613dd8575f91613daa575b5090565b613dcb915060203d8111613dd1575b613dc3818361011f565b810190610f99565b5f613da6565b503d613db9565b610df056fea26469706673582212200fc39cbf015ac6ceeb72369853da9b38750ef237c6734fdb7b65d36a0af31f5364736f6c634300081c0033",
    "linkReferences": {}
  },
  "methodIdentifiers": {
    "connectorName()": "607985fc",
    "connectorType()": "6370cc02",
    "engine()": "c9d4623f",
    "execute(uint8,address[],address,uint256,uint256,bytes32,address,bytes)": "23aa883c",
    "getConnectorName()": "6c033086",
    "getConnectorType()": "87b4effd",
    "initialTokenBalanceUpdate(bytes32,address,address,uint256)": "701ad7a6",
    "oracle()": "7dc0d1d0",
    "router()": "f887ea40",
    "strategyModule()": "8aec2834",
    "withdrawAsset(bytes32,address,address)": "72f78e1d"
  },
  "id": 129
}