{
  "abi": [
    {
      "type": "constructor",
      "inputs": [
        {
          "name": "_engine",
          "type": "address",
          "internalType": "address"
        }
      ],
      "stateMutability": "nonpayable"
    },
    {
      "type": "function",
      "name": "acceptOwnership",
      "inputs": [],
      "outputs": [],
      "stateMutability": "nonpayable"
    },
    {
      "type": "function",
      "name": "approveConnector",
      "inputs": [
        {
          "name": "",
          "type": "address",
          "internalType": "address"
        }
      ],
      "outputs": [
        {
          "name": "",
          "type": "bool",
          "internalType": "bool"
        }
      ],
      "stateMutability": "view"
    },
    {
      "type": "function",
      "name": "createStrategy",
      "inputs": [
        {
          "name": "_name",
          "type": "string",
          "internalType": "string"
        },
        {
          "name": "_strategyDescription",
          "type": "string",
          "internalType": "string"
        },
        {
          "name": "_steps",
          "type": "tuple[]",
          "internalType": "struct IFluidStrategy.Step[]",
          "components": [
            {
              "name": "connector",
              "type": "address",
              "internalType": "address"
            },
            {
              "name": "actionType",
              "type": "uint8",
              "internalType": "enum IConnector.ActionType"
            },
            {
              "name": "assetsIn",
              "type": "address[]",
              "internalType": "address[]"
            },
            {
              "name": "assetOut",
              "type": "address",
              "internalType": "address"
            },
            {
              "name": "amountRatio",
              "type": "uint256",
              "internalType": "uint256"
            },
            {
              "name": "data",
              "type": "bytes",
              "internalType": "bytes"
            }
          ]
        },
        {
          "name": "_minDeposit",
          "type": "uint256",
          "internalType": "uint256"
        }
      ],
      "outputs": [],
      "stateMutability": "nonpayable"
    },
    {
      "type": "function",
      "name": "getAllStrategies",
      "inputs": [],
      "outputs": [
        {
          "name": "",
          "type": "tuple[]",
          "internalType": "struct IFluidStrategy.Strategy[]",
          "components": [
            {
              "name": "strategyId",
              "type": "bytes32",
              "internalType": "bytes32"
            },
            {
              "name": "curator",
              "type": "address",
              "internalType": "address"
            },
            {
              "name": "name",
              "type": "string",
              "internalType": "string"
            },
            {
              "name": "strategyDescription",
              "type": "string",
              "internalType": "string"
            },
            {
              "name": "steps",
              "type": "tuple[]",
              "internalType": "struct IFluidStrategy.Step[]",
              "components": [
                {
                  "name": "connector",
                  "type": "address",
                  "internalType": "address"
                },
                {
                  "name": "actionType",
                  "type": "uint8",
                  "internalType": "enum IConnector.ActionType"
                },
                {
                  "name": "assetsIn",
                  "type": "address[]",
                  "internalType": "address[]"
                },
                {
                  "name": "assetOut",
                  "type": "address",
                  "internalType": "address"
                },
                {
                  "name": "amountRatio",
                  "type": "uint256",
                  "internalType": "uint256"
                },
                {
                  "name": "data",
                  "type": "bytes",
                  "internalType": "bytes"
                }
              ]
            },
            {
              "name": "minDeposit",
              "type": "uint256",
              "internalType": "uint256"
            }
          ]
        }
      ],
      "stateMutability": "view"
    },
    {
      "type": "function",
      "name": "getStrategy",
      "inputs": [
        {
          "name": "_strategyId",
          "type": "bytes32",
          "internalType": "bytes32"
        }
      ],
      "outputs": [
        {
          "name": "",
          "type": "tuple",
          "internalType": "struct IFluidStrategy.Strategy",
          "components": [
            {
              "name": "strategyId",
              "type": "bytes32",
              "internalType": "bytes32"
            },
            {
              "name": "curator",
              "type": "address",
              "internalType": "address"
            },
            {
              "name": "name",
              "type": "string",
              "internalType": "string"
            },
            {
              "name": "strategyDescription",
              "type": "string",
              "internalType": "string"
            },
            {
              "name": "steps",
              "type": "tuple[]",
              "internalType": "struct IFluidStrategy.Step[]",
              "components": [
                {
                  "name": "connector",
                  "type": "address",
                  "internalType": "address"
                },
                {
                  "name": "actionType",
                  "type": "uint8",
                  "internalType": "enum IConnector.ActionType"
                },
                {
                  "name": "assetsIn",
                  "type": "address[]",
                  "internalType": "address[]"
                },
                {
                  "name": "assetOut",
                  "type": "address",
                  "internalType": "address"
                },
                {
                  "name": "amountRatio",
                  "type": "uint256",
                  "internalType": "uint256"
                },
                {
                  "name": "data",
                  "type": "bytes",
                  "internalType": "bytes"
                }
              ]
            },
            {
              "name": "minDeposit",
              "type": "uint256",
              "internalType": "uint256"
            }
          ]
        }
      ],
      "stateMutability": "view"
    },
    {
      "type": "function",
      "name": "getStrategy",
      "inputs": [
        {
          "name": "_curator",
          "type": "address",
          "internalType": "address"
        }
      ],
      "outputs": [
        {
          "name": "",
          "type": "tuple[]",
          "internalType": "struct IFluidStrategy.Strategy[]",
          "components": [
            {
              "name": "strategyId",
              "type": "bytes32",
              "internalType": "bytes32"
            },
            {
              "name": "curator",
              "type": "address",
              "internalType": "address"
            },
            {
              "name": "name",
              "type": "string",
              "internalType": "string"
            },
            {
              "name": "strategyDescription",
              "type": "string",
              "internalType": "string"
            },
            {
              "name": "steps",
              "type": "tuple[]",
              "internalType": "struct IFluidStrategy.Step[]",
              "components": [
                {
                  "name": "connector",
                  "type": "address",
                  "internalType": "address"
                },
                {
                  "name": "actionType",
                  "type": "uint8",
                  "internalType": "enum IConnector.ActionType"
                },
                {
                  "name": "assetsIn",
                  "type": "address[]",
                  "internalType": "address[]"
                },
                {
                  "name": "assetOut",
                  "type": "address",
                  "internalType": "address"
                },
                {
                  "name": "amountRatio",
                  "type": "uint256",
                  "internalType": "uint256"
                },
                {
                  "name": "data",
                  "type": "bytes",
                  "internalType": "bytes"
                }
              ]
            },
            {
              "name": "minDeposit",
              "type": "uint256",
              "internalType": "uint256"
            }
          ]
        }
      ],
      "stateMutability": "view"
    },
    {
      "type": "function",
      "name": "getStrategyStats",
      "inputs": [
        {
          "name": "_strategyId",
          "type": "bytes32",
          "internalType": "bytes32"
        },
        {
          "name": "_assets",
          "type": "address[]",
          "internalType": "address[]"
        }
      ],
      "outputs": [
        {
          "name": "totalDeposits",
          "type": "uint256[]",
          "internalType": "uint256[]"
        },
        {
          "name": "totalUsers",
          "type": "uint256",
          "internalType": "uint256"
        },
        {
          "name": "totalFeeGenerated",
          "type": "uint256",
          "internalType": "uint256"
        },
        {
          "name": "lastUpdated",
          "type": "uint256",
          "internalType": "uint256"
        }
      ],
      "stateMutability": "view"
    },
    {
      "type": "function",
      "name": "getTotalStrategies",
      "inputs": [],
      "outputs": [
        {
          "name": "",
          "type": "uint256",
          "internalType": "uint256"
        }
      ],
      "stateMutability": "view"
    },
    {
      "type": "function",
      "name": "getUserAssetBalance",
      "inputs": [
        {
          "name": "_strategyId",
          "type": "bytes32",
          "internalType": "bytes32"
        },
        {
          "name": "_user",
          "type": "address",
          "internalType": "address"
        },
        {
          "name": "_assets",
          "type": "address[]",
          "internalType": "address[]"
        },
        {
          "name": "_stepIndex",
          "type": "uint256",
          "internalType": "uint256"
        }
      ],
      "outputs": [
        {
          "name": "",
          "type": "tuple",
          "internalType": "struct IFluidStrategy.AssetBalance",
          "components": [
            {
              "name": "assets",
              "type": "address[]",
              "internalType": "address[]"
            },
            {
              "name": "amounts",
              "type": "uint256[]",
              "internalType": "uint256[]"
            }
          ]
        }
      ],
      "stateMutability": "view"
    },
    {
      "type": "function",
      "name": "getUserShareBalance",
      "inputs": [
        {
          "name": "_strategyId",
          "type": "bytes32",
          "internalType": "bytes32"
        },
        {
          "name": "_user",
          "type": "address",
          "internalType": "address"
        },
        {
          "name": "_protocol",
          "type": "address",
          "internalType": "address"
        },
        {
          "name": "_shareToken",
          "type": "address",
          "internalType": "address"
        },
        {
          "name": "_stepIndex",
          "type": "uint256",
          "internalType": "uint256"
        }
      ],
      "outputs": [
        {
          "name": "",
          "type": "tuple",
          "internalType": "struct IFluidStrategy.ShareBalance",
          "components": [
            {
              "name": "protocol",
              "type": "address",
              "internalType": "address"
            },
            {
              "name": "shareToken",
              "type": "address",
              "internalType": "address"
            },
            {
              "name": "shareAmount",
              "type": "uint256",
              "internalType": "uint256"
            },
            {
              "name": "underlyingTokens",
              "type": "address[]",
              "internalType": "address[]"
            },
            {
              "name": "underlyingAmounts",
              "type": "uint256[]",
              "internalType": "uint256[]"
            }
          ]
        }
      ],
      "stateMutability": "view"
    },
    {
      "type": "function",
      "name": "getUserStrategies",
      "inputs": [
        {
          "name": "_user",
          "type": "address",
          "internalType": "address"
        }
      ],
      "outputs": [
        {
          "name": "",
          "type": "bytes32[]",
          "internalType": "bytes32[]"
        }
      ],
      "stateMutability": "view"
    },
    {
      "type": "function",
      "name": "getUserStrategyStats",
      "inputs": [
        {
          "name": "_strategyId",
          "type": "bytes32",
          "internalType": "bytes32"
        },
        {
          "name": "_user",
          "type": "address",
          "internalType": "address"
        }
      ],
      "outputs": [
        {
          "name": "",
          "type": "tuple",
          "internalType": "struct IFluidStrategy.UserStats",
          "components": [
            {
              "name": "joinTimestamp",
              "type": "uint256",
              "internalType": "uint256"
            },
            {
              "name": "lastActionTimestamp",
              "type": "uint256",
              "internalType": "uint256"
            },
            {
              "name": "tokenBalances",
              "type": "tuple[]",
              "internalType": "struct IFluidStrategy.AssetBalance[]",
              "components": [
                {
                  "name": "assets",
                  "type": "address[]",
                  "internalType": "address[]"
                },
                {
                  "name": "amounts",
                  "type": "uint256[]",
                  "internalType": "uint256[]"
                }
              ]
            },
            {
              "name": "shareBalances",
              "type": "tuple[]",
              "internalType": "struct IFluidStrategy.ShareBalance[]",
              "components": [
                {
                  "name": "protocol",
                  "type": "address",
                  "internalType": "address"
                },
                {
                  "name": "shareToken",
                  "type": "address",
                  "internalType": "address"
                },
                {
                  "name": "shareAmount",
                  "type": "uint256",
                  "internalType": "uint256"
                },
                {
                  "name": "underlyingTokens",
                  "type": "address[]",
                  "internalType": "address[]"
                },
                {
                  "name": "underlyingAmounts",
                  "type": "uint256[]",
                  "internalType": "uint256[]"
                }
              ]
            }
          ]
        }
      ],
      "stateMutability": "view"
    },
    {
      "type": "function",
      "name": "getUserTokenBalance",
      "inputs": [
        {
          "name": "_strategyId",
          "type": "bytes32",
          "internalType": "bytes32"
        },
        {
          "name": "_user",
          "type": "address",
          "internalType": "address"
        },
        {
          "name": "_token",
          "type": "address",
          "internalType": "address"
        }
      ],
      "outputs": [
        {
          "name": "",
          "type": "uint256",
          "internalType": "uint256"
        }
      ],
      "stateMutability": "view"
    },
    {
      "type": "function",
      "name": "owner",
      "inputs": [],
      "outputs": [
        {
          "name": "",
          "type": "address",
          "internalType": "address"
        }
      ],
      "stateMutability": "view"
    },
    {
      "type": "function",
      "name": "pendingOwner",
      "inputs": [],
      "outputs": [
        {
          "name": "",
          "type": "address",
          "internalType": "address"
        }
      ],
      "stateMutability": "view"
    },
    {
      "type": "function",
      "name": "renounceOwnership",
      "inputs": [],
      "outputs": [],
      "stateMutability": "nonpayable"
    },
    {
      "type": "function",
      "name": "setJoinedStrategy",
      "inputs": [
        {
          "name": "_strategyId",
          "type": "bytes32",
          "internalType": "bytes32"
        },
        {
          "name": "_user",
          "type": "address",
          "internalType": "address"
        },
        {
          "name": "_status",
          "type": "bool",
          "internalType": "bool"
        }
      ],
      "outputs": [],
      "stateMutability": "nonpayable"
    },
    {
      "type": "function",
      "name": "toggleConnector",
      "inputs": [
        {
          "name": "_connector",
          "type": "address",
          "internalType": "address"
        }
      ],
      "outputs": [],
      "stateMutability": "nonpayable"
    },
    {
      "type": "function",
      "name": "transferOwnership",
      "inputs": [
        {
          "name": "newOwner",
          "type": "address",
          "internalType": "address"
        }
      ],
      "outputs": [],
      "stateMutability": "nonpayable"
    },
    {
      "type": "function",
      "name": "transferToken",
      "inputs": [
        {
          "name": "_token",
          "type": "address",
          "internalType": "address"
        },
        {
          "name": "_amount",
          "type": "uint256",
          "internalType": "uint256"
        }
      ],
      "outputs": [
        {
          "name": "",
          "type": "bool",
          "internalType": "bool"
        }
      ],
      "stateMutability": "nonpayable"
    },
    {
      "type": "function",
      "name": "updateStrategyStats",
      "inputs": [
        {
          "name": "_strategyId",
          "type": "bytes32",
          "internalType": "bytes32"
        },
        {
          "name": "_assets",
          "type": "address[]",
          "internalType": "address[]"
        },
        {
          "name": "_amounts",
          "type": "uint256[]",
          "internalType": "uint256[]"
        },
        {
          "name": "_user",
          "type": "address",
          "internalType": "address"
        },
        {
          "name": "_performanceFee",
          "type": "uint256",
          "internalType": "uint256"
        },
        {
          "name": "_indicator",
          "type": "uint256",
          "internalType": "uint256"
        }
      ],
      "outputs": [],
      "stateMutability": "nonpayable"
    },
    {
      "type": "function",
      "name": "updateUserStats",
      "inputs": [
        {
          "name": "_strategyId",
          "type": "bytes32",
          "internalType": "bytes32"
        },
        {
          "name": "_userAddress",
          "type": "address",
          "internalType": "address"
        },
        {
          "name": "_protocol",
          "type": "address",
          "internalType": "address"
        },
        {
          "name": "_assets",
          "type": "address[]",
          "internalType": "address[]"
        },
        {
          "name": "_assetsAmount",
          "type": "uint256[]",
          "internalType": "uint256[]"
        },
        {
          "name": "_shareToken",
          "type": "address",
          "internalType": "address"
        },
        {
          "name": "_shareAmount",
          "type": "uint256",
          "internalType": "uint256"
        },
        {
          "name": "_underlyingTokens",
          "type": "address[]",
          "internalType": "address[]"
        },
        {
          "name": "_underlyingAmounts",
          "type": "uint256[]",
          "internalType": "uint256[]"
        },
        {
          "name": "stepIndex",
          "type": "uint256",
          "internalType": "uint256"
        }
      ],
      "outputs": [],
      "stateMutability": "nonpayable"
    },
    {
      "type": "function",
      "name": "updateUserStrategy",
      "inputs": [
        {
          "name": "_strategyId",
          "type": "bytes32",
          "internalType": "bytes32"
        },
        {
          "name": "_user",
          "type": "address",
          "internalType": "address"
        },
        {
          "name": "_indicator",
          "type": "uint256",
          "internalType": "uint256"
        }
      ],
      "outputs": [],
      "stateMutability": "nonpayable"
    },
    {
      "type": "function",
      "name": "updateUserTokenBalance",
      "inputs": [
        {
          "name": "_strategyId",
          "type": "bytes32",
          "internalType": "bytes32"
        },
        {
          "name": "_user",
          "type": "address",
          "internalType": "address"
        },
        {
          "name": "_token",
          "type": "address",
          "internalType": "address"
        },
        {
          "name": "_amount",
          "type": "uint256",
          "internalType": "uint256"
        },
        {
          "name": "_indicator",
          "type": "uint256",
          "internalType": "uint256"
        }
      ],
      "outputs": [],
      "stateMutability": "nonpayable"
    },
    {
      "type": "event",
      "name": "CreateStrategy",
      "inputs": [
        {
          "name": "strategyId",
          "type": "bytes32",
          "indexed": true,
          "internalType": "bytes32"
        },
        {
          "name": "curator",
          "type": "address",
          "indexed": true,
          "internalType": "address"
        },
        {
          "name": "name",
          "type": "string",
          "indexed": false,
          "internalType": "string"
        },
        {
          "name": "strategyDescription",
          "type": "string",
          "indexed": false,
          "internalType": "string"
        },
        {
          "name": "steps",
          "type": "tuple[]",
          "indexed": false,
          "internalType": "struct IFluidStrategy.Step[]",
          "components": [
            {
              "name": "connector",
              "type": "address",
              "internalType": "address"
            },
            {
              "name": "actionType",
              "type": "uint8",
              "internalType": "enum IConnector.ActionType"
            },
            {
              "name": "assetsIn",
              "type": "address[]",
              "internalType": "address[]"
            },
            {
              "name": "assetOut",
              "type": "address",
              "internalType": "address"
            },
            {
              "name": "amountRatio",
              "type": "uint256",
              "internalType": "uint256"
            },
            {
              "name": "data",
              "type": "bytes",
              "internalType": "bytes"
            }
          ]
        },
        {
          "name": "minDeposit",
          "type": "uint256",
          "indexed": false,
          "internalType": "uint256"
        }
      ],
      "anonymous": false
    },
    {
      "type": "event",
      "name": "OwnershipTransferStarted",
      "inputs": [
        {
          "name": "previousOwner",
          "type": "address",
          "indexed": true,
          "internalType": "address"
        },
        {
          "name": "newOwner",
          "type": "address",
          "indexed": true,
          "internalType": "address"
        }
      ],
      "anonymous": false
    },
    {
      "type": "event",
      "name": "OwnershipTransferred",
      "inputs": [
        {
          "name": "previousOwner",
          "type": "address",
          "indexed": true,
          "internalType": "address"
        },
        {
          "name": "newOwner",
          "type": "address",
          "indexed": true,
          "internalType": "address"
        }
      ],
      "anonymous": false
    },
    {
      "type": "error",
      "name": "OwnableInvalidOwner",
      "inputs": [
        {
          "name": "owner",
          "type": "address",
          "internalType": "address"
        }
      ]
    },
    {
      "type": "error",
      "name": "OwnableUnauthorizedAccount",
      "inputs": [
        {
          "name": "account",
          "type": "address",
          "internalType": "address"
        }
      ]
    },
    {
      "type": "error",
      "name": "StrategyAlreadyExists",
      "inputs": [
        {
          "name": "strategyId",
          "type": "bytes32",
          "internalType": "bytes32"
        }
      ]
    },
    {
      "type": "error",
      "name": "StrategyNotFound",
      "inputs": [
        {
          "name": "strategyId",
          "type": "bytes32",
          "internalType": "bytes32"
        }
      ]
    },
    {
      "type": "error",
      "name": "Unauthorized",
      "inputs": [
        {
          "name": "caller",
          "type": "address",
          "internalType": "address"
        }
      ]
    }
  ],
  "bytecode": {
    "object": "0x60806040523461002f576100196100146100f4565b61019b565b610021610034565b6158626103b2823961586290f35b61003a565b60405190565b5f80fd5b601f801991011690565b634e487b7160e01b5f52604160045260245ffd5b906100669061003e565b810190811060018060401b0382111761007e57604052565b610048565b9061009661008f610034565b928361005c565b565b5f80fd5b60018060a01b031690565b6100b09061009c565b90565b6100bc816100a7565b036100c357565b5f80fd5b905051906100d4826100b3565b565b906020828203126100ef576100ec915f016100c7565b90565b610098565b610112615c148038038061010781610083565b9283398101906100d6565b90565b90565b61012c6101276101319261009c565b610115565b61009c565b90565b61013d90610118565b90565b61014990610134565b90565b5f1b90565b9061016260018060a01b039161014c565b9181191691161790565b61017590610134565b90565b90565b9061019061018b6101979261016c565b610178565b8254610151565b9055565b6101b06101b7916101ab336101b9565b610140565b600261017b565b565b6101c290610211565b565b90565b6101db6101d66101e0926101c4565b610115565b61009c565b90565b6101ec906101c7565b90565b6101f8906100a7565b9052565b919061020f905f602085019401906101ef565b565b8061022c6102266102215f6101e3565b6100a7565b916100a7565b1461023c5761023a906102e6565b565b61025f6102485f6101e3565b5f918291631e4fbdf760e01b8352600483016101fc565b0390fd5b1b90565b9190600861028791029161028160018060a01b0384610263565b92610263565b9181191691161790565b61029a90610118565b90565b6102a690610291565b90565b90565b91906102c26102bd6102ca9361029d565b6102a9565b908354610267565b9055565b5f90565b6102e4916102de6102ce565b916102ac565b565b6102fa906102f55f60016102d2565b610352565b565b5f1c90565b60018060a01b031690565b61031861031d916102fc565b610301565b90565b61032a905461030c565b90565b9061034261033d6103499261029d565b6102a9565b8254610151565b9055565b5f0190565b61035b5f610320565b610365825f61032d565b906103996103937f8be0079c531659141344cd1fd0a4f28419497f9722a3daafe3b4186f6b6457e09361029d565b9161029d565b916103a2610034565b806103ac8161034d565b0390a356fe60806040526004361015610013575b611a16565b61001d5f3561019c565b80630c49da88146101975780631072cbea1461019257806318cdae1f1461018d5780632862d9031461018857806328c84bbd1461018357806340a515ec1461017e578063471f522214610179578063596d6ce314610174578063715018a61461016f57806379ba50971461016a57806379f02fd414610165578063849cd604146101605780638da5cb5b1461015b57806399fe7396146101565780639a1b125c14610151578063aadbd7951461014c578063ade68e4d14610147578063c3b2886414610142578063dd19f34f1461013d578063df9cc80914610138578063e30c397814610133578063f2fde38b1461012e578063f8806a13146101295763fd932ecb0361000e576119e0565b611971565b61193e565b611909565b6118d3565b611652565b611587565b611430565b6113a3565b611048565b610f3e565b610ef4565b610e98565b610dcf565b610d0a565b610cd7565b610c95565b610c37565b610a69565b610933565b6105df565b610394565b610324565b61027b565b60e01c90565b60405190565b5f80fd5b5f80fd5b5f80fd5b90565b6101c0816101b4565b036101c757565b5f80fd5b905035906101d8826101b7565b565b60018060a01b031690565b6101ee906101da565b90565b6101fa816101e5565b0361020157565b5f80fd5b90503590610212826101f1565b565b151590565b61022281610214565b0361022957565b5f80fd5b9050359061023a82610219565b565b90916060828403126102715761026e610257845f85016101cb565b936102658160208601610205565b9360400161022d565b90565b6101ac565b5f0190565b346102aa5761029461028e36600461023c565b91611bce565b61029c6101a2565b806102a681610276565b0390f35b6101a8565b90565b6102bb816102af565b036102c257565b5f80fd5b905035906102d3826102b2565b565b91906040838203126102fd57806102f16102fa925f8601610205565b936020016102c6565b90565b6101ac565b61030b90610214565b9052565b9190610322905f60208501940190610302565b565b346103555761035161034061033a3660046102d5565b90611dc4565b6103486101a2565b9182918261030f565b0390f35b6101a8565b909160608284031261038f5761038c610375845f85016101cb565b936103838160208601610205565b936040016102c6565b90565b6101ac565b346103c3576103ad6103a736600461035a565b916122d5565b6103b56101a2565b806103bf81610276565b0390f35b6101a8565b5f80fd5b601f801991011690565b634e487b7160e01b5f52604160045260245ffd5b906103f4906103cc565b810190811067ffffffffffffffff82111761040e57604052565b6103d6565b9061042661041f6101a2565b92836103ea565b565b67ffffffffffffffff81116104405760208091020190565b6103d6565b5f80fd5b9092919261045e61045982610428565b610413565b938185526020808601920283019281841161049b57915b8383106104825750505050565b602080916104908486610205565b815201920191610475565b610445565b9080601f830112156104be578160206104bb93359101610449565b90565b6103c8565b919091604081840312610503576104dc835f83016101cb565b92602082013567ffffffffffffffff81116104fe576104fb92016104a0565b90565b6101b0565b6101ac565b5190565b60209181520190565b60200190565b610524906102af565b9052565b906105358160209361051b565b0190565b60200190565b9061055c61055661054f84610508565b809361050c565b92610515565b905f5b81811061056c5750505090565b90919261058561057f6001928651610528565b94610539565b910191909161055f565b610598906102af565b9052565b6105d66105dd946105cc6105c16060959998969960808601908682035f88015261053f565b98602085019061058f565b604083019061058f565b019061058f565b565b34610614576106106105fb6105f53660046104c3565b906123d8565b906106079492946101a2565b9485948561059c565b0390f35b6101a8565b906020828203126106325761062f915f016101cb565b90565b6101ac565b610640906101b4565b9052565b61064d906101e5565b9052565b5190565b60209181520190565b90825f9392825e0152565b6106886106916020936106969361067f81610651565b93848093610655565b9586910161065e565b6103cc565b0190565b5190565b60209181520190565b60200190565b634e487b7160e01b5f52602160045260245ffd5b600811156106cb57565b6106ad565b906106da826106c1565b565b6106e5906106d0565b90565b6106f1906106dc565b9052565b5190565b60209181520190565b60200190565b9061071581602093610644565b0190565b60200190565b9061073c61073661072f846106f5565b80936106f9565b92610702565b905f5b81811061074c5750505090565b90919261076561075f6001928651610708565b94610719565b910191909161073f565b5190565b60209181520190565b61079b6107a46020936107a9936107928161076f565b93848093610773565b9586910161065e565b6103cc565b0190565b6108239160a06107ee60c083016107ca5f8601515f860190610644565b6107dc602086015160208601906106e8565b6040850151848203604086015261071f565b9261080160608201516060850190610644565b6108136080820151608085019061051b565b01519060a081840391015261077c565b90565b90610830916107ad565b90565b60200190565b9061084d6108468361069a565b809261069e565b908161085e602083028401946106a7565b925f915b83831061087157505050505090565b9091929394602061089361088d83856001950387528951610826565b97610833565b9301930191939290610862565b906109189060a08061090d6108fb6108e960c086016108c55f8a01515f890190610637565b6108d760208a01516020890190610644565b60408901518782036040890152610669565b60608801518682036060880152610669565b60808701518582036080870152610839565b94015191019061051b565b90565b6109309160208201915f8184039101526108a0565b90565b346109635761095f61094e610949366004610619565b612a79565b6109566101a2565b9182918261091b565b0390f35b6101a8565b6080818303126109c25761097e825f83016101cb565b9261098c8360208401610205565b9260408301359067ffffffffffffffff82116109bd576109b1816109ba9386016104a0565b936060016102c6565b90565b6101b0565b6101ac565b60209181520190565b906109ed6109e76109e084610508565b80936109c7565b92610515565b905f5b8181106109fd5750505090565b909192610a16610a106001928651610528565b94610539565b91019190916109f0565b610a4e916020610a3d604083015f8501518482035f86015261071f565b9201519060208184039101526109d0565b90565b610a669160208201915f818403910152610a20565b90565b34610a9d57610a99610a88610a7f366004610968565b92919091612f2d565b610a906101a2565b91829182610a51565b0390f35b6101a8565b67ffffffffffffffff8111610aba5760208091020190565b6103d6565b90929192610ad4610acf82610aa2565b610413565b9381855260208086019202830192818411610b1157915b838310610af85750505050565b60208091610b0684866102c6565b815201920191610aeb565b610445565b9080601f83011215610b3457816020610b3193359101610abf565b90565b6103c8565b61014081830312610c3257610b50825f83016101cb565b92610b5e8360208401610205565b92610b6c8160408501610205565b92606081013567ffffffffffffffff8111610c2d5782610b8d9183016104a0565b92608082013567ffffffffffffffff8111610c285783610bae918401610b16565b92610bbc8160a08501610205565b92610bca8260c083016102c6565b9260e082013567ffffffffffffffff8111610c235783610beb9184016104a0565b926101008301359067ffffffffffffffff8211610c1e57610c1181610c1b938601610b16565b93610120016102c6565b90565b6101b0565b6101b0565b6101b0565b6101b0565b6101ac565b34610c7257610c5c610c4a366004610b39565b9897909796919695929594939461397b565b610c646101a2565b80610c6e81610276565b0390f35b6101a8565b90602082820312610c9057610c8d915f01610205565b90565b6101ac565b34610cc357610cad610ca8366004610c77565b6139d5565b610cb56101a2565b80610cbf81610276565b0390f35b6101a8565b5f910312610cd257565b6101ac565b34610d0557610ce7366004610cc8565b610cef613a05565b610cf76101a2565b80610d0181610276565b0390f35b6101a8565b34610d3857610d1a366004610cc8565b610d22613a0f565b610d2a6101a2565b80610d3481610276565b0390f35b6101a8565b5190565b60209181520190565b60200190565b90610d5d81602093610637565b0190565b60200190565b90610d84610d7e610d7784610d3d565b8093610d41565b92610d4a565b905f5b818110610d945750505090565b909192610dad610da76001928651610d50565b94610d61565b9101919091610d87565b610dcc9160208201915f818403910152610d67565b90565b34610dff57610dfb610dea610de5366004610c77565b613a65565b610df26101a2565b91829182610db7565b0390f35b6101a8565b909160c082840312610e9357610e1c835f84016101cb565b92602083013567ffffffffffffffff8111610e8e5781610e3d9185016104a0565b92604081013567ffffffffffffffff8111610e895782610e5e918301610b16565b92610e86610e6f8460608501610205565b93610e7d81608086016102c6565b9360a0016102c6565b90565b6101b0565b6101b0565b6101ac565b34610ecd57610eb7610eab366004610e04565b94939093929192613ced565b610ebf6101a2565b80610ec981610276565b0390f35b6101a8565b610edb906101e5565b9052565b9190610ef2905f60208501940190610ed2565b565b34610f2457610f04366004610cc8565b610f20610f0f613d01565b610f176101a2565b91829182610edf565b0390f35b6101a8565b9190610f3c905f6020850194019061058f565b565b34610f6e57610f4e366004610cc8565b610f6a610f59613d16565b610f616101a2565b91829182610f29565b0390f35b6101a8565b919060a083820312610fc457610f8b815f85016101cb565b92610f998260208301610205565b92610fc1610faa8460408501610205565b93610fb88160608601610205565b936080016102c6565b90565b6101ac565b61102d91608061101c60a08301610fe65f8601515f860190610644565b610ff860208601516020860190610644565b61100a6040860151604086019061051b565b6060850151848203606086015261071f565b9201519060808184039101526109d0565b90565b6110459160208201915f818403910152610fc9565b90565b3461107c5761107861106761105e366004610f73565b93929092613de4565b61106f6101a2565b91829182611030565b0390f35b6101a8565b5f80fd5b67ffffffffffffffff81116110a35761109f6020916103cc565b0190565b6103d6565b90825f939282370152565b909291926110c86110c382611085565b610413565b938185526020850190828401116110e4576110e2926110a8565b565b611081565b9080601f8301121561110757816020611104933591016110b3565b90565b6103c8565b67ffffffffffffffff81116111245760208091020190565b6103d6565b5f80fd5b5f80fd5b6008111561113b57565b5f80fd5b9050359061114c82611131565b565b67ffffffffffffffff811161116c576111686020916103cc565b0190565b6103d6565b909291926111866111818261114e565b610413565b938185526020850190828401116111a2576111a0926110a8565b565b611081565b9080601f830112156111c5578160206111c293359101611171565b90565b6103c8565b91909160c08184031261127c576111e160c0610413565b926111ee815f8401610205565b5f8501526111ff816020840161113f565b6020850152604082013567ffffffffffffffff811161127757816112249184016104a0565b60408501526112368160608401610205565b606085015261124881608084016102c6565b608085015260a082013567ffffffffffffffff81116112725761126b92016111a7565b60a0830152565b61112d565b61112d565b611129565b9291906112956112908261110c565b610413565b93818552602080860192028101918383116112ec5781905b8382106112bb575050505050565b813567ffffffffffffffff81116112e7576020916112dc87849387016111ca565b8152019101906112ad565b6103c8565b610445565b9080601f8301121561130f5781602061130c93359101611281565b90565b6103c8565b60808183031261139e575f81013567ffffffffffffffff8111611399578261133d9183016110e9565b92602082013567ffffffffffffffff8111611394578361135e9184016110e9565b9260408301359067ffffffffffffffff821161138f576113838161138c9386016112f1565b936060016102c6565b90565b6101b0565b6101b0565b6101b0565b6101ac565b346113d5576113bf6113b6366004611314565b929190916149ae565b6113c76101a2565b806113d181610276565b0390f35b6101a8565b919060a08382031261142b576113f2815f85016101cb565b926114008260208301610205565b926114286114118460408501610205565b9361141f81606086016102c6565b936080016102c6565b90565b6101ac565b346114625761144c6114433660046113da565b93929092614c55565b6114546101a2565b8061145e81610276565b0390f35b6101a8565b5190565b60209181520190565b60200190565b906114f29060a0806114e76114d56114c360c0860161149f5f8a01515f890190610637565b6114b160208a01516020890190610644565b60408901518782036040890152610669565b60608801518682036060880152610669565b60808701518582036080870152610839565b94015191019061051b565b90565b906114ff9161147a565b90565b60200190565b9061151c61151583611467565b809261146b565b908161152d60208302840194611474565b925f915b83831061154057505050505090565b9091929394602061156261155c838560019503875289516114f5565b97611502565b9301930191939290611531565b6115849160208201915f818403910152611508565b90565b346115b757611597366004610cc8565b6115b36115a2614d12565b6115aa6101a2565b9182918261156f565b0390f35b6101a8565b90565b6115d36115ce6115d8926101da565b6115bc565b6101da565b90565b6115e4906115bf565b90565b6115f0906115db565b90565b906115fd906115e7565b5f5260205260405f2090565b1c90565b60ff1690565b6116239060086116289302611609565b61160d565b90565b906116369154611613565b90565b61164f9061164a600a915f926115f3565b61162b565b90565b346116825761167e61166d611668366004610c77565b611639565b6116756101a2565b9182918261030f565b0390f35b6101a8565b91906040838203126116af57806116a36116ac925f86016101cb565b93602001610205565b90565b6101ac565b5190565b60209181520190565b60200190565b6116f59160206116e4604083015f8501518482035f86015261071f565b9201519060208184039101526109d0565b90565b90611702916116c7565b90565b60200190565b9061171f611718836116b4565b80926116b8565b9081611730602083028401946116c1565b925f915b83831061174357505050505090565b9091929394602061176561175f838560019503875289516116f8565b97611705565b9301930191939290611734565b5190565b60209181520190565b60200190565b6117e99160806117d860a083016117a25f8601515f860190610644565b6117b460208601516020860190610644565b6117c66040860151604086019061051b565b6060850151848203606086015261071f565b9201519060808184039101526109d0565b90565b906117f691611785565b90565b60200190565b9061181361180c83611772565b8092611776565b90816118246020830284019461177f565b925f915b83831061183757505050505090565b90919293946020611859611853838560019503875289516117ec565b976117f9565b9301930191939290611828565b6118b89160606118a7608083016118835f8601515f86019061051b565b6118956020860151602086019061051b565b6040850151848203604086015261170b565b9201519060608184039101526117ff565b90565b6118d09160208201915f818403910152611866565b90565b34611904576119006118ef6118e9366004611687565b90614dfa565b6118f76101a2565b918291826118bb565b0390f35b6101a8565b3461193957611919366004610cc8565b611935611924614e22565b61192c6101a2565b91829182610edf565b0390f35b6101a8565b3461196c57611956611951366004610c77565b614eaa565b61195e6101a2565b8061196881610276565b0390f35b6101a8565b346119a15761199d61198c611987366004610c77565b614f1d565b6119946101a2565b9182918261156f565b0390f35b6101a8565b90916060828403126119db576119d86119c1845f85016101cb565b936119cf8160208601610205565b93604001610205565b90565b6101ac565b34611a1157611a0d6119fc6119f63660046119a6565b91614f3c565b611a046101a2565b91829182610f29565b0390f35b6101a8565b5f80fd5b5f1c90565b60018060a01b031690565b611a36611a3b91611a1a565b611a1f565b90565b611a489054611a2a565b90565b611a54906115db565b90565b60209181520190565b60207f6e65000000000000000000000000000000000000000000000000000000000000917f63616c6c6572206973206e6f742074686520657865637574696f6e20656e67695f8201520152565b611aba6022604092611a57565b611ac381611a60565b0190565b611adc9060208101905f818303910152611aad565b90565b15611ae657565b611aee6101a2565b62461bcd60e51b815280611b0460048201611ac7565b0390fd5b90611b409291611b3b33611b35611b2f611b2a611b256002611a3e565b611a4b565b6101e5565b916101e5565b14611adf565b611bae565b565b611b4b906101b4565b90565b90611b5890611b42565b5f5260205260405f2090565b5f1b90565b90611b7560ff91611b64565b9181191691161790565b611b8890610214565b90565b90565b90611ba3611b9e611baa92611b7f565b611b8b565b8254611b69565b9055565b90611bc790611bc2611bcc94936009611b4e565b6115f3565b611b8e565b565b90611bd99291611b08565b565b5f90565b611beb611bf091611a1a565b61160d565b90565b611bfd9054611bdf565b90565b5f7f63616c6c6572206973206e6f74206120636f6e6e6563746f7200000000000000910152565b611c346019602092611a57565b611c3d81611c00565b0190565b611c569060208101905f818303910152611c27565b90565b15611c6057565b611c686101a2565b62461bcd60e51b815280611c7e60048201611c41565b0390fd5b90611ca99291611ca4611c9f611c9a600a33906115f3565b611bf3565b611c59565b611d36565b90565b611cb5906115bf565b90565b611cc190611cac565b90565b611ccd906115db565b90565b60e01b90565b90505190611ce382610219565b565b90602082820312611cfe57611cfb915f01611cd6565b90565b6101ac565b916020611d24929493611d1d60408201965f830190610ed2565b019061058f565b565b611d2e6101a2565b3d5f823e3d90fd5b611d46602092611d4b9250611cb8565b611cc4565b9163a9059cbb92611d705f339395611d7b611d646101a2565b97889687958694611cd0565b845260048401611d03565b03925af1908115611dbf575f91611d91575b5090565b611db2915060203d8111611db8575b611daa81836103ea565b810190611ce5565b5f611d8d565b503d611da0565b611d26565b90611dd691611dd1611bdb565b611c82565b90565b90611e119291611e0c33611e06611e00611dfb611df66002611a3e565b611a4b565b6101e5565b916101e5565b14611adf565b612158565b565b90565b611e2a611e25611e2f92611e13565b6115bc565b6102af565b90565b90611e3c906115e7565b5f5260205260405f2090565b5490565b60209181520190565b5f5260205f2090565b90565b611e6d611e7291611a1a565b611e5e565b90565b611e7f9054611e61565b90565b60010190565b90611ea5611e9f611e9884611e48565b8093611e4c565b92611e55565b905f5b818110611eb55750505090565b909192611ed5611ecf600192611eca87611e75565b610d50565b94611e82565b9101919091611ea8565b90611ee991611e88565b90565b90611f0c611f0592611efc6101a2565b93848092611edf565b03836103ea565b565b611f1790611eec565b90565b5f90565b6001611f2a91016102af565b90565b634e487b7160e01b5f52603260045260245ffd5b90611f4b82610d3d565b811015611f5c576020809102010190565b611f2d565b611f6b90516101b4565b90565b90565b611f85611f80611f8a92611f6e565b6115bc565b6102af565b90565b634e487b7160e01b5f52601160045260245ffd5b611fb0611fb6919392936102af565b926102af565b8203918211611fc157565b611f8d565b611fd5611fdb919392936102af565b926102af565b8201809211611fe657565b611f8d565b611ff481611e48565b82101561200e57612006600191611e55565b910201905f90565b611f2d565b6120239060086120289302611609565b611e5e565b90565b906120369154612013565b90565b1b90565b919060086120589102916120525f1984612039565b92612039565b9181191691161790565b61206b90611a1a565b90565b919061208461207f61208c93611b42565b612062565b90835461203d565b9055565b90565b634e487b7160e01b5f52603160045260245ffd5b5490565b5f5260205f2090565b6120bd816120a7565b8210156120d7576120cf6001916120ab565b910201905f90565b611f2d565b5f90565b6120f2916120ec6120dc565b9161206e565b565b6120fd816120a7565b801561211e57600190039061211b61211583836120b4565b906120e0565b55565b612093565b9081549168010000000000000000831015612153578261214b916001612151950181556120b4565b9061206e565b565b6103d6565b90929161216d6121675f611e16565b916102af565b145f146121935761218b61218661219093946007611e32565b612090565b612123565b5b565b6121a76121a260078590611e32565b611f0e565b906121b182610d3d565b916121ba611f1a565b5b806121ce6121c8866102af565b916102af565b10156122ca576121e76121e2838390611f41565b611f61565b6121f96121f3856101b4565b916101b4565b1461220d575b61220890611f1e565b6121bb565b92939091835b8061223961223361222e896122286001611f71565b90611fa1565b6102af565b916102af565b101561229e576122999061229461227861227261225860078c90611e32565b61226c856122666001611f71565b90611fc6565b90611feb565b9061202b565b61228e61228760078c90611e32565b8490611feb565b9061206e565b611f1e565b612213565b5091909392612208906122c36122be6122b960078a90611e32565b612090565b6120f4565b90506121ff565b505050509050612191565b906122e09291611dd9565b565b606090565b906122f190611b42565b5f5260205260405f2090565b90565b9061231261230d83610aa2565b610413565b918252565b369037565b9061234161232983612300565b926020806123378693610aa2565b9201910390612317565b565b9061234d826106f5565b81101561235e576020809102010190565b611f2d565b61236d90516101e5565b90565b9061237a906115e7565b5f5260205260405f2090565b90565b61239561239a91611a1a565b612386565b90565b6123a79054612389565b90565b906123b482610508565b8110156123c5576020809102010190565b611f2d565b906123d4906102af565b9052565b61240d612412919392936123ea6122e2565b506123f3611f1a565b506123fc611f1a565b50612405611f1a565b5060056122e7565b6122fd565b9161242461241f826106f5565b61231c565b9261242d611f1a565b5b8061244961244361243e866106f5565b6102af565b916102af565b1015612499576124949061248f61247d6124785f860161247261246d898790612343565b612363565b90612370565b61239d565b61248a88918490926123aa565b6123ca565b611f1e565b61242e565b5090506124a86001820161239d565b916124c160036124ba6002850161239d565b930161239d565b90565b6124ce60c0610413565b90565b5f90565b5f90565b606090565b606090565b5f90565b6124ef6124c4565b9060208080808080876125006124d1565b81520161250b6124d5565b8152016125166124d9565b8152016125216124d9565b81520161252c6124de565b8152016125376124e3565b81525050565b6125456124e7565b90565b9061255290611b42565b5f5260205260405f2090565b6125689054611e61565b90565b90612575906101b4565b9052565b60018060a01b031690565b61259061259591611a1a565b612579565b90565b6125a29054612584565b90565b906125af906101e5565b9052565b634e487b7160e01b5f52602260045260245ffd5b90600160028304921680156125e7575b60208310146125e257565b6125b3565b91607f16916125d7565b5f5260205f2090565b905f929180549061261461260d836125c7565b8094610655565b916001811690815f1461266b575060011461262f575b505050565b61263c91929394506125f1565b915f925b81841061265357505001905f808061262a565b60018160209295939554848601520191019290612640565b92949550505060ff19168252151560200201905f808061262a565b90612690916125fa565b90565b906126b36126ac926126a36101a2565b93848092612686565b03836103ea565b565b52565b5490565b906126ce6126c98361110c565b610413565b918252565b5f5260205f2090565b60a01c90565b60ff1690565b6126f46126f9916126dc565b6126e2565b90565b61270690546126e8565b90565b90612713906106d0565b9052565b5490565b5f5260205f2090565b61272e9054612584565b90565b60010190565b9061275461274e61274784612717565b80936106f9565b9261271b565b905f5b8181106127645750505090565b90919261278461277e60019261277987612724565b610708565b94612731565b9101919091612757565b9061279891612737565b90565b906127bb6127b4926127ab6101a2565b9384809261278e565b03836103ea565b565b52565b5f5260205f2090565b905f92918054906127e36127dc836125c7565b8094610773565b916001811690815f1461283a57506001146127fe575b505050565b61280b91929394506127c0565b915f925b81841061282257505001905f80806127f9565b6001816020929593955484860152019101929061280f565b92949550505060ff19168252151560200201905f80806127f9565b9061285f916127c9565b90565b9061288261287b926128726101a2565b93848092612855565b03836103ea565b565b52565b61289160c0610413565b90565b9061292a61292160046128a5612887565b946128bc6128b45f8301612598565b5f88016125a5565b6128d36128ca5f83016126fc565b60208801612709565b6128eb6128e26001830161279b565b604088016127bd565b6129036128fa60028301612598565b606088016125a5565b61291b6129126003830161239d565b608088016123ca565b01612862565b60a08401612884565b565b61293590612894565b90565b90612942826126b8565b61294b816126bc565b9261295960208501916126d3565b5f915b8383106129695750505050565b600560206001926129798561292c565b81520192019201919061295c565b52565b90612a21612a18600561299b6124c4565b946129b26129aa5f830161255e565b5f880161256b565b6129ca6129c160018301612598565b602088016125a5565b6129e26129d960028301612693565b604088016126b5565b6129fa6129f160038301612693565b606088016126b5565b612a12612a0960048301612938565b60808801612987565b0161239d565b60a084016123ca565b565b612a2c9061298a565b90565b612a43612a3e612a4892611e13565b6115bc565b6101da565b90565b612a5490612a2f565b90565b612a60906101b4565b9052565b9190612a77905f60208501940190612a57565b565b612a8161253d565b50612a96612a9160048390612548565b612a23565b90612aa360208301612363565b612abd612ab7612ab25f612a4b565b6101e5565b916101e5565b14612ac6575090565b612ae1905f9182916317199c9360e21b835260048301612a64565b0390fd5b612aef6040610413565b90565b606090565b606090565b612b04612ae5565b9060208083612b11612af2565b815201612b1c612af7565b81525050565b612b2a612afc565b90565b90612b3790611b42565b5f5260205260405f2090565b90612b4d906115e7565b5f5260205260405f2090565b5490565b67ffffffffffffffff8111612b755760208091020190565b6103d6565b90612b8c612b8783612b5d565b610413565b918252565b5f5260205f2090565b5490565b5f5260205f2090565b612bb19054612389565b90565b60010190565b90612bd7612bd1612bca84612b9a565b80936109c7565b92612b9e565b905f5b818110612be75750505090565b909192612c07612c01600192612bfc87612ba7565b610528565b94612bb4565b9101919091612bda565b90612c1b91612bba565b90565b90612c3e612c3792612c2e6101a2565b93848092612c11565b03836103ea565b565b52565b90612c7a612c716001612c54612ae5565b94612c6b612c635f830161279b565b5f88016127bd565b01612c1e565b60208401612c40565b565b612c8590612c43565b90565b90612c9282612b59565b612c9b81612b7a565b92612ca96020850191612b91565b5f915b838310612cb95750505050565b60026020600192612cc985612c7c565b815201920192019190612cac565b52565b5490565b67ffffffffffffffff8111612cf65760208091020190565b6103d6565b90612d0d612d0883612cde565b610413565b918252565b5f5260205f2090565b612d2560a0610413565b90565b90612da7612d9e6004612d39612d1b565b94612d50612d485f8301612598565b5f88016125a5565b612d68612d5f60018301612598565b602088016125a5565b612d80612d776002830161239d565b604088016123ca565b612d98612d8f6003830161279b565b606088016127bd565b01612c1e565b60808401612c40565b565b612db290612d28565b90565b90612dbf82612cda565b612dc881612cfb565b92612dd66020850191612d12565b5f915b838310612de65750505050565b60056020600192612df685612da9565b815201920192019190612dd9565b52565b612e116080610413565b90565b90612e7b612e726003612e25612e07565b94612e3c612e345f830161239d565b5f88016123ca565b612e54612e4b6001830161239d565b602088016123ca565b612e6c612e6360028301612c88565b60408801612cd7565b01612db5565b60608401612e04565b565b612e8690612e14565b90565b90612e93826116b4565b811015612ea4576020809102010190565b611f2d565b60209181520190565b90612ecf612ec9612ec2846106f5565b8093612ea9565b92610702565b905f5b818110612edf5750505090565b909192612ef8612ef26001928651610708565b94610719565b9101919091612ed2565b612f179160208201915f818403910152612eb2565b90565b60200190565b612f2a6040610413565b90565b612f5291612f48612f4d92612f40612b22565b506006612b2d565b612b43565b612e7d565b90612f5c5f611e16565b5b80612f7c612f76612f7160408701516116b4565b6102af565b916102af565b101561308e5783612f96612f905f196102af565b916102af565b145f1461308857805b612fcc612fdb5f612fb560408801518690612e89565b510151612fc06101a2565b92839160208301612f02565b602082018103825203826103ea565b612fed612fe78261076f565b91612f1a565b2061303c61303661300f61301e876130036101a2565b92839160208301612f02565b602082018103825203826103ea565b61303061302a8261076f565b91612f1a565b206101b4565b916101b4565b14908161306c575b506130575761305290611f1e565b612f5d565b916130689350604091500151612e89565b5190565b905061308161307b83926102af565b916102af565b145f613044565b83612f9f565b509150506130c36130a66130a15f611e16565b61231c565b6130ba6130b1612f20565b935f85016127bd565b60208301612c40565b90565b90613105999897969594939291613100336130fa6130f46130ef6130ea6002611a3e565b611a4b565b6101e5565b916101e5565b14611adf565b6136b2565b565b90565b61311460a0610413565b90565b906131235f1991611b64565b9181191691161790565b61314161313c613146926102af565b6115bc565b6102af565b90565b90565b9061316161315c6131689261312d565b613149565b8254613117565b9055565b61317581612b59565b82101561318f57613187600291612b91565b910201905f90565b611f2d565b61319d81612cda565b8210156131b7576131af600591612d12565b910201905f90565b611f2d565b6131c690516102af565b90565b634e487b7160e01b5f525f60045260245ffd5b5190565b6131ef6131f5919392936102af565b926102af565b916132018382026102af565b92818404149015171561321057565b611f8d565b600190818003010490565b919061323661323161323e9361312d565b613149565b90835461203d565b9055565b6132549161324e611f1a565b91613220565b565b5b818110613262575050565b8061326f5f600193613242565b01613257565b90613288905f1990602003600802611609565b8154169055565b909182811061329e575b505050565b6132bc6132b66132b06132c795613215565b92613215565b9261271b565b918201910190613256565b5f8080613299565b906801000000000000000081116132f857816132ed6132f693612717565b9082815561328f565b565b6103d6565b9190600861331d91029161331760018060a01b0384612039565b92612039565b9181191691161790565b90565b613333826106f5565b9167ffffffffffffffff83116133965761336161335b60019261335686866132cf565b610702565b9261271b565b9204915f5b8381106133735750505050565b600190602061338961338486612363565b613327565b9401938184015501613366565b6103d6565b906133a59161332a565b565b5190565b600190818003010490565b5b8181106133c2575050565b806133cf5f600193613242565b016133b7565b90918281106133e4575b505050565b6134026133fc6133f661340d956133ab565b926133ab565b92612b9e565b9182019101906133b6565b5f80806133df565b9068010000000000000000811161343e578161343361343c93612b9a565b908281556133d5565b565b6103d6565b61344c82610508565b9167ffffffffffffffff83116134af5761347a61347460019261346f8686613415565b610515565b92612b9e565b9204915f5b83811061348c5750505050565b60019060206134a261349d866131bc565b613149565b940193818401550161347f565b6103d6565b906134be91613443565b565b906134eb602060016134f1946134e35f82016134dd5f88016131dc565b9061339b565b0192016133a7565b906134b4565b565b919061350457613502916134c0565b565b6131c9565b9061351a60018060a01b0391611b64565b9181191691161790565b90613539613534613540926115e7565b613327565b8254613509565b9055565b906135ba608060046135c0946135675f82016135615f8801612363565b90613524565b6135806001820161357a60208801612363565b90613524565b61359960028201613593604088016131bc565b9061314c565b6135b2600382016135ac606088016131dc565b9061339b565b0192016133a7565b906134b4565b565b91906135d3576135d191613544565b565b6131c9565b90565b5f5260205f2090565b5490565b6135f1816135e4565b82101561360b576136036002916135db565b910201905f90565b611f2d565b9081549168010000000000000000831015613640578261363891600161363e950181556135e8565b906134f3565b565b6103d6565b90565b5f5260205f2090565b5490565b61365e81613651565b82101561367857613670600591613648565b910201905f90565b611f2d565b90815491680100000000000000008310156136ad57826136a59160016136ab95018155613655565b906135c2565b565b6103d6565b6136dd6136d86137439499936136d361373a949d9a9899979c9d6006612b2d565b612b43565b613107565b986136ff876136f66136ed612f20565b935f85016127bd565b60208301612c40565b979391613731866137288d9561371f61371661310a565b995f8b016125a5565b602089016125a5565b604087016123ca565b606085016127bd565b60808301612c40565b9561375060028701612b59565b61376261375c5f611e16565b916102af565b1461396a575b61377460028701612b59565b613786613780866102af565b916102af565b145f146137cb57505050506137c9926137ad6137be926137a8600286016135d8565b613610565b6137b960038401613645565b61367d565b5b600142910161314c565b565b919493509194506137e96137e360028501879061316c565b50612c7c565b956138016137fb600386018890613194565b50612da9565b9361380a611f1a565b5b8061382961382361381e5f8d01516106f5565b6102af565b916102af565b10156138835761387e906138796138496138448a84906123aa565b6131bc565b61387460208d01519161386e859161386961386484876123aa565b6131bc565b611fc6565b926123aa565b6123ca565b611f1e565b61380b565b5092959194509295613893611f1a565b5b806138b36138ad6138a860608c01516106f5565b6102af565b916102af565b101561390d57613908906139036138d36138ce8984906123aa565b6131bc565b6138fe60808c0151916138f885916138f36138ee84876123aa565b6131bc565b611fc6565b926123aa565b6123ca565b611f1e565b613894565b5061395f919294509561395561396594976139416137c99861393b6040860191613936836131bc565b611fc6565b906123ca565b61394f60028801869061316c565b906134f3565b9160038501613194565b906135c2565b6137bf565b613976425f880161314c565b613768565b9061398d9998979695949392916130c6565b565b6139a09061399b614f6d565b6139a2565b565b6139d3906139ce6139c66139c06139bb600a85906115f3565b611bf3565b15610214565b91600a6115f3565b611b8e565b565b6139de9061398f565b565b6139e8614f6d565b6139f06139f2565b565b613a036139fe5f612a4b565b614ff1565b565b613a0d6139e0565b565b613a17615007565b613a1f614e22565b613a31613a2b836101e5565b916101e5565b03613a4157613a3f90614ff1565b565b613a5c905f91829163118cdaa760e01b835260048301610edf565b0390fd5b606090565b613a7c613a8191613a74613a60565b506007611e32565b611f0e565b90565b90613abf9594939291613aba33613ab4613aae613aa9613aa46002611a3e565b611a4b565b6101e5565b916101e5565b14611adf565b613af9565b565b613aca906102af565b5f8114613ad8576001900390565b611f8d565b613ae6906102af565b5f198114613af45760010190565b611f8d565b949390959192613b13613b0e600588906122e7565b6122fd565b94613b26613b205f611e16565b916102af565b145f14613c3757613b35611f1a565b5b80613b51613b4b613b4688610508565b6102af565b916102af565b1015613bb457613baf90613baa87613ba4613b958c613b8f613b8a5f613b80613b7b8f8b906123aa565b6131bc565b9601928890612343565b612363565b90612370565b91613b9f8361239d565b611fc6565b9061314c565b611f1e565b613b36565b50613be691929650613c089350613bdb613be091613bd6613c12986009611b4e565b6115f3565b611bf3565b15610214565b613c14575b5b613c026002840191613bfd8361239d565b611fc6565b9061314c565b600342910161314c565b565b613c3260018401613c2c613c278261239d565b613add565b9061314c565b613beb565b509350613c42611f1a565b5b80613c5e613c58613c5386610508565b6102af565b916102af565b1015613cbf57613cba90613cb5613c7e613c798684906123aa565b6131bc565b613caf613ca05f8901613c9a613c958d8890612343565b612363565b90612370565b91613caa8361239d565b611fa1565b9061314c565b611f1e565b613c43565b50935050613c08613c1292613ce860018401613ce2613cdd8261239d565b613ac1565b9061314c565b613bec565b90613cfb9594939291613a84565b565b5f90565b613d09613cfd565b50613d135f612598565b90565b613d1e611f1a565b50613d29600b611e48565b90565b613d34612d1b565b9060208080808086613d446124d5565b815201613d4f6124d5565b815201613d5a6124e3565b815201613d65612af2565b815201613d70612af7565b81525050565b613d7e613d2c565b90565b90613d8b82611772565b811015613d9c576020809102010190565b611f2d565b90613db3613dae83610428565b610413565b918252565b369037565b90613de2613dca83613da1565b92602080613dd88693610428565b9201910390613db8565b565b613e0991613dff613e0492613df7613d76565b506006612b2d565b612b43565b612e7d565b91613e135f611e16565b5b80613e33613e2d613e286060880151611772565b6102af565b916102af565b1015613f105784613e4d613e475f196102af565b916102af565b145f14613f0a57805b613e705f613e6960608801518590613d81565b5101612363565b613e82613e7c866101e5565b916101e5565b1480613ed6575b9081613eba575b50613ea357613e9e90611f1e565b613e14565b929050613eb69350606091500151613d81565b5190565b9050613ecf613ec983926102af565b916102af565b145f613e90565b50613ef26020613eeb60608801518590613d81565b5101612363565b613f04613efe856101e5565b916101e5565b14613e89565b84613e56565b509250613f87915091613f7e5f613f75613f6c613f34613f2f5f611e16565b613dbd565b92613f67613f49613f445f611e16565b61231c565b96613f5e613f5561310a565b9a5f8c016125a5565b60208a016125a5565b611e16565b604087016123ca565b606085016127bd565b60808301612c40565b90565b60601b90565b613f9990613f8a565b90565b613fa590613f90565b90565b613fb4613fb9916101e5565b613f9c565b9052565b905090565b613fe7613fde92602092613fd581610651565b94858093613fbd565b9384910161065e565b0190565b9160148361400061400d969561400795613fa8565b0190613fc2565b90613fc2565b90565b61401a60c0610413565b90565b5f7f496e76616c696420737465707300000000000000000000000000000000000000910152565b614051600d602092611a57565b61405a8161401d565b0190565b6140739060208101905f818303910152614044565b90565b1561407d57565b6140856101a2565b62461bcd60e51b81528061409b6004820161405e565b0390fd5b906140b46140af6140bb92611b42565b612062565b8254613117565b9055565b5190565b601f602091010490565b5b8181106140d9575050565b806140e65f600193613242565b016140ce565b9190601f81116140fc575b505050565b61410861412d936125f1565b906020614114846140c3565b83019310614135575b614126906140c3565b01906140cd565b5f80806140f7565b91506141268192905061411d565b90614153905f1990600802611609565b191690565b8161416291614143565b906002021790565b9061417481610651565b9067ffffffffffffffff8211614234576141988261419285546125c7565b856140ec565b602090601f83116001146141cc579180916141bb935f926141c0575b5050614158565b90555b565b90915001515f806141b4565b601f198316916141db856125f1565b925f5b81811061421c57509160029391856001969410614202575b505050020190556141be565b614212910151601f841690614143565b90555f80806141f6565b919360206001819287870151815501950192016141de565b6103d6565b906142439161416a565b565b5190565b6142549060056131e0565b90565b5f614261916132cf565b565b905f036142755761427390614257565b565b6131c9565b905f91614291614289826127c0565b928354614158565b905555565b919290602082105f146142ef57601f84116001146142bf576142b9929350614158565b90555b5b565b50906142e56142ea9360016142dc6142d6856127c0565b926140c3565b820191016140cd565b61427a565b6142bc565b5061432682936143006001946127c0565b61431f61430c856140c3565b820192601f861680614331575b506140c3565b01906140cd565b6002021790556142bd565b61433d90888603613275565b5f614319565b9290916801000000000000000082116143a3576020115f1461439457602081105f146143785761437291614158565b90555b5b565b60019160ff1916614388846127c0565b55600202019055614375565b60019150600202019055614376565b6103d6565b9081546143b4816125c7565b908183116143dd575b8183106143cb575b50505050565b6143d493614296565b5f8080806143c5565b6143e983838387614343565b6143bd565b5f6143f8916143a8565b565b905f0361440c5761440a906143ee565b565b6131c9565b5f600461444392828082015561442a8360018301614263565b82600282015561443d8360038301613242565b016143fa565b565b905f036144575761445590614411565b565b6131c9565b5b818110614468575050565b806144755f600593614445565b0161445d565b909182811061448a575b505050565b6144a86144a261449c6144b395614249565b92614249565b926126d3565b91820191019061445c565b5f8080614485565b906801000000000000000081116144e457816144d96144e2936126b8565b9082815561447b565b565b6103d6565b5190565b6144f790516106d0565b90565b60a01b90565b9061450f60ff60a01b916144fa565b9181191691161790565b614522906106d0565b90565b90565b9061453d61453861454492614519565b614525565b8254614500565b9055565b5190565b9190601f811161455c575b505050565b61456861458d936127c0565b906020614574846140c3565b83019310614595575b614586906140c3565b01906140cd565b5f8080614557565b91506145868192905061457d565b906145ad8161076f565b9067ffffffffffffffff821161466d576145d1826145cb85546125c7565b8561454c565b602090601f8311600114614605579180916145f4935f926145f9575b5050614158565b90555b565b90915001515f806145ed565b601f19831691614614856127c0565b925f5b8181106146555750916002939185600196941061463b575b505050020190556145f7565b61464b910151601f841690614143565b90555f808061462f565b91936020600181928787015181550195019201614617565b6103d6565b9061467c916145a3565b565b9061470c60a06004614712946146a15f820161469b5f8801612363565b90613524565b6146b95f82016146b3602088016144ed565b90614528565b6146d2600182016146cc604088016131dc565b9061339b565b6146eb600282016146e560608801612363565b90613524565b614704600382016146fe608088016131bc565b9061314c565b019201614548565b90614672565b565b9061471e9161467e565b565b61474561473f61472f8461069a565b9361473a85856144bb565b6106a7565b916126d3565b5f915b8383106147555750505050565b600560208261476e6147686001956144e9565b86614714565b01920192019190614748565b9061478491614720565b565b9061481560a0600561481b946147a95f82016147a35f8801611f61565b9061409f565b6147c2600182016147bc60208801612363565b90613524565b6147db600282016147d5604088016140bf565b90614239565b6147f4600382016147ee606088016140bf565b90614239565b61480d6004820161480760808801614245565b9061477a565b0192016131bc565b9061314c565b565b9061482791614786565b565b90614833906115e7565b5f5260205260405f2090565b90565b5f5260205f2090565b5490565b6148588161484b565b8210156148725761486a600691614842565b910201905f90565b611f2d565b91906148885761488691614786565b565b6131c9565b90815491680100000000000000008310156148bd57826148b59160016148bb9501815561484f565b90614877565b565b6103d6565b6148e16148ea6020936148ef936148d881610651565b93848093611a57565b9586910161065e565b6103cc565b0190565b60209181520190565b906149106149098361069a565b80926148f3565b9081614921602083028401946106a7565b925f915b83831061493457505050505090565b9091929394602061495661495083856001950387528951610826565b97610833565b9301930191939290614925565b9493916149ac936149966149a49261498860609560808b01908b82035f8d01526148c2565b9089820360208b01526148c2565b9087820360408901526148fc565b94019061058f565b565b91336149dc84916149cd856149c16101a2565b94859360208501613feb565b602082018103825203826103ea565b6149ee6149e88261076f565b91612f1a565b20614a066001614a0060048490612548565b01612598565b614a20614a1a614a155f612a4b565b6101e5565b916101e5565b03614b4857614ac081614a8133614a7889614a6f8a614a668b91614a5d8c9597614a54614a4b614010565b9b5f8d0161256b565b60208b016125a5565b604089016126b5565b606087016126b5565b60808501612987565b60a083016123ca565b614a92614a8d85615362565b614076565b614aa781614aa260048690612548565b61481d565b614abb614ab660033390614829565b61483f565b61488d565b614ad4614acd600b612090565b8290612123565b614af5614aeb614ae6600584906122e7565b6122fd565b600342910161314c565b91614b433394919295614b31614b2b7f4a788c85a5e0e7169dcf1ff2ead59b673c45203c01b45fb03171f9fe9a67a0c896611b42565b966115e7565b96614b3a6101a2565b94859485614963565b0390a3565b614b63905f918291636409ce5560e01b835260048301612a64565b0390fd5b90614b9094939291614b8b614b86614b81600a33906115f3565b611bf3565b611c59565b614bbe565b565b90614b9c90611b42565b5f5260205260405f2090565b90614bb2906115e7565b5f5260205260405f2090565b92909193614bd4614bce5f611e16565b916102af565b145f14614c1757614c1493614bfa614c0e93614bf5614bff94966008614b92565b614ba8565b612370565b91614c098361239d565b611fc6565b9061314c565b5b565b614c5093614c36614c4a93614c31614c3b94966008614b92565b614ba8565b612370565b91614c458361239d565b611fa1565b9061314c565b614c15565b90614c6294939291614b67565b565b606090565b67ffffffffffffffff8111614c815760208091020190565b6103d6565b90614c98614c9383614c69565b610413565b918252565b614ca56124e7565b90565b5f5b828110614cb657505050565b602090614cc1614c9d565b8184015201614caa565b90614cf0614cd883614c86565b92602080614ce68693614c69565b9201910390614ca8565b565b90614cfc82611467565b811015614d0d576020809102010190565b611f2d565b614d1a614c64565b50614d25600b611e48565b90614d2f82614ccb565b90614d395f611e16565b5b80614d4d614d47866102af565b916102af565b1015614da157614d9c90614d95614d7a6004614d74614d6e600b8690611feb565b9061202b565b90612548565b85614d858492612a23565b614d8f8383614cf2565b52614cf2565b5150611f1e565b614d3a565b50915090565b606090565b606090565b614db9612e07565b90602080808085614dc86124e3565b815201614dd36124e3565b815201614dde614da7565b815201614de9614dac565b81525050565b614df7614db1565b90565b614e1f91614e15614e1a92614e0d614def565b506006612b2d565b612b43565b612e7d565b90565b614e2a613cfd565b50614e356001612598565b90565b614e4990614e44614f6d565b614e4b565b565b614e56816001613524565b614e5e613d01565b90614e92614e8c7f38d16b8cac22d99fc7c124b9cd0de2d3fa1faef420bfe791d8c362d765e22700936115e7565b916115e7565b91614e9b6101a2565b80614ea581610276565b0390a3565b614eb390614e38565b565b5490565b5f5260205f2090565b90614ecc82614eb5565b614ed581614c86565b92614ee36020850191614eb9565b5f915b838310614ef35750505050565b60066020600192614f0385612a23565b815201920192019190614ee6565b614f1a90614ec2565b90565b614f34614f3991614f2c614c64565b506003614829565b614f11565b90565b91614f60614f6592614f5b614f6a95614f53611f1a565b506008614b92565b614ba8565b612370565b61239d565b90565b614f75613d01565b614f8e614f88614f83615007565b6101e5565b916101e5565b03614f9557565b614fb7614fa0615007565b5f91829163118cdaa760e01b835260048301610edf565b0390fd5b9190614fd1614fcc614fd9936115e7565b613327565b9083546132fd565b9055565b614fef91614fe9613cfd565b91614fbb565b565b615005906150005f6001614fdd565b615618565b565b61500f613cfd565b503390565b9061501e8261069a565b81101561502f576020809102010190565b611f2d565b5f7f496e76616c696420636f6e6e6563746f72206164647265737300000000000000910152565b6150686019602092611a57565b61507181615034565b0190565b61508a9060208101905f81830391015261505b565b90565b1561509457565b61509c6101a2565b62461bcd60e51b8152806150b260048201615075565b0390fd5b5f7f496e76616c696420696e70757420617373657400000000000000000000000000910152565b6150ea6013602092611a57565b6150f3816150b6565b0190565b61510c9060208101905f8183039101526150dd565b90565b1561511657565b61511e6101a2565b62461bcd60e51b815280615134600482016150f7565b0390fd5b5f7f496e76616c6964206f7574707574206173736574000000000000000000000000910152565b61516c6014602092611a57565b61517581615138565b0190565b61518e9060208101905f81830391015261515f565b90565b1561519857565b6151a06101a2565b62461bcd60e51b8152806151b660048201615179565b0390fd5b90565b6151d16151cc6151d6926151ba565b6115bc565b6102af565b90565b5f7f496e76616c696420616d6f756e7420726174696f000000000000000000000000910152565b61520d6014602092611a57565b615216816151d9565b0190565b61522f9060208101905f818303910152615200565b90565b1561523957565b6152416101a2565b62461bcd60e51b8152806152576004820161521a565b0390fd5b615264906115bf565b90565b6152709061525b565b90565b61527c906115db565b90565b6003111561528957565b5f80fd5b9050519061529a8261527f565b565b906020828203126152b5576152b2915f0161528d565b90565b6101ac565b60207f6500000000000000000000000000000000000000000000000000000000000000917f496e76616c696420616374696f6e20666f7220636f6e6e6563746f72207479705f8201520152565b6153146021604092611a57565b61531d816152ba565b0190565b6153369060208101905f818303910152615307565b90565b1561534057565b6153486101a2565b62461bcd60e51b81528061535e60048201615321565b0390fd5b9061536b611bdb565b506153755f611e16565b905b8161539261538c6153878661069a565b6102af565b916102af565b1015615610576153d26153b15f6153aa868690615014565b5101612363565b6153cb6153c56153c05f612a4b565b6101e5565b916101e5565b141561508d565b6153da611f1a565b5b806154056153ff6153fa60406153f2898990615014565b5101516106f5565b6102af565b916102af565b101561545f5761545a9061545561543461542f6040615425898990615014565b5101518490612343565b612363565b61544e6154486154435f612a4b565b6101e5565b916101e5565b141561510f565b611f1e565b6153db565b509061550b9061547c6020615475868490615014565b51016144ed565b61548e6154885f6106d0565b916106d0565b036155d0575b6154ab60806154a4868490615014565b51016131bc565b6154bd6154b75f611e16565b916102af565b1180615598575b6154cd90615232565b60206154f56154f06154eb5f6154e4898790615014565b5101612363565b615267565b615273565b6387b4effd906155036101a2565b948592611cd0565b8252818061551b60048201610276565b03915afa80156155935761555561555a9161555f945f91615565575b5061554f6020615548898790615014565b51016144ed565b90615692565b615339565b611f1e565b90615377565b615586915060203d811161558c575b61557e81836103ea565b81019061529c565b5f615537565b503d615574565b611d26565b506154cd6155b360806155ac878590615014565b51016131bc565b6155c76155c16127106151bd565b916102af565b111590506154c4565b61560b6155ea60606155e3878590615014565b5101612363565b6156046155fe6155f95f612a4b565b6101e5565b916101e5565b1415615191565b615494565b915050600190565b6156215f612598565b61562b825f613524565b9061565f6156597f8be0079c531659141344cd1fd0a4f28419497f9722a3daafe3b4186f6b6457e0936115e7565b916115e7565b916156686101a2565b8061567281610276565b0390a3565b6003111561568157565b6106ad565b9061569082615677565b565b61569a611bdb565b50806156ae6156a85f615686565b91615686565b145f146157365750806156c96156c35f6106d0565b916106d0565b14801561571b575b8015615700575b9081156156e4575b5090565b90506156f96156f360036106d0565b916106d0565b145f6156e0565b508061571561570f60026106d0565b916106d0565b146156d8565b508061573061572a60016106d0565b916106d0565b146156d1565b8061574a6157446001615686565b91615686565b145f146157b057508061576561575f5f6106d0565b916106d0565b148015615795575b908115615779575b5090565b905061578e61578860066106d0565b916106d0565b145f615775565b50806157aa6157a460016106d0565b916106d0565b1461576d565b6157c36157bd6002615686565b91615686565b146157cd57505f90565b806157e16157db60046106d0565b916106d0565b148015615811575b9081156157f5575b5090565b905061580a61580460076106d0565b916106d0565b145f6157f1565b508061582661582060056106d0565b916106d0565b146157e956fea26469706673582212208ab37627bec24971a945c0e5a4c681c3c52f86dd4be5bb14cd09ec2a813d7dcf64736f6c634300081c0033",
    "linkReferences": {}
  },
  "methodIdentifiers": {
    "acceptOwnership()": "79ba5097",
    "approveConnector(address)": "dd19f34f",
    "createStrategy(string,string,(address,uint8,address[],address,uint256,bytes)[],uint256)": "aadbd795",
    "getAllStrategies()": "c3b28864",
    "getStrategy(address)": "f8806a13",
    "getStrategy(bytes32)": "28c84bbd",
    "getStrategyStats(bytes32,address[])": "2862d903",
    "getTotalStrategies()": "99fe7396",
    "getUserAssetBalance(bytes32,address,address[],uint256)": "40a515ec",
    "getUserShareBalance(bytes32,address,address,address,uint256)": "9a1b125c",
    "getUserStrategies(address)": "79f02fd4",
    "getUserStrategyStats(bytes32,address)": "df9cc809",
    "getUserTokenBalance(bytes32,address,address)": "fd932ecb",
    "owner()": "8da5cb5b",
    "pendingOwner()": "e30c3978",
    "renounceOwnership()": "715018a6",
    "setJoinedStrategy(bytes32,address,bool)": "0c49da88",
    "toggleConnector(address)": "596d6ce3",
    "transferOwnership(address)": "f2fde38b",
    "transferToken(address,uint256)": "1072cbea",
    "updateStrategyStats(bytes32,address[],uint256[],address,uint256,uint256)": "849cd604",
    "updateUserStats(bytes32,address,address,address[],uint256[],address,uint256,address[],uint256[],uint256)": "471f5222",
    "updateUserStrategy(bytes32,address,uint256)": "18cdae1f",
    "updateUserTokenBalance(bytes32,address,address,uint256,uint256)": "ade68e4d"
  },
  "id": 138
}